{
  "_format": "hh-sol-artifact-1",
  "contractName": "TokensRecoverableUpg",
  "sourceName": "contracts/TokensRecoverableUpg.sol",
  "abi": [
    {
      "anonymous": false,
      "inputs": [
        {
          "indexed": false,
          "internalType": "uint8",
          "name": "version",
          "type": "uint8"
        }
      ],
      "name": "Initialized",
      "type": "event"
    },
    {
      "anonymous": false,
      "inputs": [
        {
          "indexed": true,
          "internalType": "address",
          "name": "previousOwner",
          "type": "address"
        },
        {
          "indexed": true,
          "internalType": "address",
          "name": "newOwner",
          "type": "address"
        }
      ],
      "name": "OwnershipTransferred",
      "type": "event"
    },
    {
      "inputs": [],
      "name": "owner",
      "outputs": [
        {
          "internalType": "address",
          "name": "",
          "type": "address"
        }
      ],
      "stateMutability": "view",
      "type": "function"
    },
    {
      "inputs": [
        {
          "internalType": "uint256",
          "name": "amount",
          "type": "uint256"
        }
      ],
      "name": "recoverBNB",
      "outputs": [],
      "stateMutability": "nonpayable",
      "type": "function"
    },
    {
      "inputs": [
        {
          "internalType": "contract IERC20Upgradeable",
          "name": "token",
          "type": "address"
        }
      ],
      "name": "recoverTokens",
      "outputs": [],
      "stateMutability": "nonpayable",
      "type": "function"
    },
    {
      "inputs": [],
      "name": "renounceOwnership",
      "outputs": [],
      "stateMutability": "nonpayable",
      "type": "function"
    },
    {
      "inputs": [
        {
          "internalType": "address",
          "name": "newOwner",
          "type": "address"
        }
      ],
      "name": "transferOwnership",
      "outputs": [],
      "stateMutability": "nonpayable",
      "type": "function"
    }
  ],
  "bytecode": "0x608060405234801561001057600080fd5b50610714806100206000396000f3fe608060405234801561001057600080fd5b50600436106100575760003560e01c806316114acd1461005c578063715018a6146100715780638da5cb5b14610079578063f2fde38b14610098578063f603939b146100ab575b600080fd5b61006f61006a3660046105a9565b6100be565b005b61006f610182565b603354604080516001600160a01b039092168252519081900360200190f35b61006f6100a63660046105a9565b6101b8565b61006f6100b93660046105e5565b610250565b6033546001600160a01b031633146100f15760405162461bcd60e51b81526004016100e890610664565b60405180910390fd5b6040516370a0823160e01b815230600482015261017f9033906001600160a01b038416906370a082319060240160206040518083038186803b15801561013657600080fd5b505afa15801561014a573d6000803e3d6000fd5b505050506040513d601f19601f8201168201806040525081019061016e91906105fd565b6001600160a01b03841691906102ab565b50565b6033546001600160a01b031633146101ac5760405162461bcd60e51b81526004016100e890610664565b6101b66000610302565b565b6033546001600160a01b031633146101e25760405162461bcd60e51b81526004016100e890610664565b6001600160a01b0381166102475760405162461bcd60e51b815260206004820152602660248201527f4f776e61626c653a206e6577206f776e657220697320746865207a65726f206160448201526564647265737360d01b60648201526084016100e8565b61017f81610302565b6033546001600160a01b0316331461027a5760405162461bcd60e51b81526004016100e890610664565b604051339082156108fc029083906000818181858888f193505050501580156102a7573d6000803e3d6000fd5b5050565b604080516001600160a01b038416602482015260448082018490528251808303909101815260649091019091526020810180516001600160e01b031663a9059cbb60e01b1790526102fd908490610354565b505050565b603380546001600160a01b038381166001600160a01b0319831681179093556040519116919082907f8be0079c531659141344cd1fd0a4f28419497f9722a3daafe3b4186f6b6457e090600090a35050565b60006103a9826040518060400160405280602081526020017f5361666545524332303a206c6f772d6c6576656c2063616c6c206661696c6564815250856001600160a01b03166104269092919063ffffffff16565b8051909150156102fd57808060200190518101906103c791906105c5565b6102fd5760405162461bcd60e51b815260206004820152602a60248201527f5361666545524332303a204552433230206f7065726174696f6e20646964206e6044820152691bdd081cdd58d8d9595960b21b60648201526084016100e8565b6060610435848460008561043f565b90505b9392505050565b6060824710156104a05760405162461bcd60e51b815260206004820152602660248201527f416464726573733a20696e73756666696369656e742062616c616e636520666f6044820152651c8818d85b1b60d21b60648201526084016100e8565b6001600160a01b0385163b6104f75760405162461bcd60e51b815260206004820152601d60248201527f416464726573733a2063616c6c20746f206e6f6e2d636f6e747261637400000060448201526064016100e8565b600080866001600160a01b031685876040516105139190610615565b60006040518083038185875af1925050503d8060008114610550576040519150601f19603f3d011682016040523d82523d6000602084013e610555565b606091505b5091509150610565828286610570565b979650505050505050565b6060831561057f575081610438565b82511561058f5782518084602001fd5b8160405162461bcd60e51b81526004016100e89190610631565b6000602082840312156105ba578081fd5b8135610438816106c9565b6000602082840312156105d6578081fd5b81518015158114610438578182fd5b6000602082840312156105f6578081fd5b5035919050565b60006020828403121561060e578081fd5b5051919050565b60008251610627818460208701610699565b9190910192915050565b6000602082528251806020840152610650816040850160208701610699565b601f01601f19169190910160400192915050565b6020808252818101527f4f776e61626c653a2063616c6c6572206973206e6f7420746865206f776e6572604082015260600190565b60005b838110156106b457818101518382015260200161069c565b838111156106c3576000848401525b50505050565b6001600160a01b038116811461017f57600080fdfea2646970667358221220a8e708ea542e0912d5e93b3b702b69f8d65718e9257baeb9a337051667d778c564736f6c63430008020033",
  "linkReferences": {},
  "deployedLinkReferences": {}
}