{
  "_format": "hh-sol-artifact-1",
  "contractName": "TokensRecoverableUpg",
  "sourceName": "contracts/TokensRecoverableUpg.sol",
  "abi": [
    {
      "anonymous": false,
      "inputs": [
        {
          "indexed": false,
          "internalType": "uint8",
          "name": "version",
          "type": "uint8"
        }
      ],
      "name": "Initialized",
      "type": "event"
    },
    {
      "anonymous": false,
      "inputs": [
        {
          "indexed": true,
          "internalType": "address",
          "name": "previousOwner",
          "type": "address"
        },
        {
          "indexed": true,
          "internalType": "address",
          "name": "newOwner",
          "type": "address"
        }
      ],
      "name": "OwnershipTransferred",
      "type": "event"
    },
    {
      "inputs": [],
      "name": "owner",
      "outputs": [
        {
          "internalType": "address",
          "name": "",
          "type": "address"
        }
      ],
      "stateMutability": "view",
      "type": "function"
    },
    {
      "inputs": [
        {
          "internalType": "contract IERC1155Upgradeable",
          "name": "token",
          "type": "address"
        },
        {
          "internalType": "uint256",
          "name": "tokenId",
          "type": "uint256"
        },
        {
          "internalType": "uint256",
          "name": "amount",
          "type": "uint256"
        }
      ],
      "name": "recoverERC1155",
      "outputs": [],
      "stateMutability": "nonpayable",
      "type": "function"
    },
    {
      "inputs": [
        {
          "internalType": "contract IERC721Upgradeable",
          "name": "token",
          "type": "address"
        },
        {
          "internalType": "uint256",
          "name": "tokenId",
          "type": "uint256"
        }
      ],
      "name": "recoverERC721",
      "outputs": [],
      "stateMutability": "nonpayable",
      "type": "function"
    },
    {
      "inputs": [
        {
          "internalType": "uint256",
          "name": "amount",
          "type": "uint256"
        }
      ],
      "name": "recoverETH",
      "outputs": [],
      "stateMutability": "nonpayable",
      "type": "function"
    },
    {
      "inputs": [
        {
          "internalType": "contract IERC20Upgradeable",
          "name": "token",
          "type": "address"
        }
      ],
      "name": "recoverTokens",
      "outputs": [],
      "stateMutability": "nonpayable",
      "type": "function"
    },
    {
      "inputs": [],
      "name": "renounceOwnership",
      "outputs": [],
      "stateMutability": "nonpayable",
      "type": "function"
    },
    {
      "inputs": [
        {
          "internalType": "address",
          "name": "newOwner",
          "type": "address"
        }
      ],
      "name": "transferOwnership",
      "outputs": [],
      "stateMutability": "nonpayable",
      "type": "function"
    }
  ],
  "bytecode": "0x608060405234801561001057600080fd5b50610908806100206000396000f3fe608060405234801561001057600080fd5b506004361061007d5760003560e01c80638da5cb5b1161005b5780638da5cb5b146100b2578063cbaa1d9b146100d1578063d3335553146100e4578063f2fde38b146100f75761007d565b806316114acd14610082578063715018a614610097578063819d4cc61461009f575b600080fd5b61009561009036600461073e565b61010a565b005b6100956101ce565b6100956100ad3660046107ae565b610204565b603354604080516001600160a01b039092168252519081900360200190f35b6100956100df36600461077a565b610298565b6100956100f23660046107d9565b61034d565b61009561010536600461073e565b6103a8565b6033546001600160a01b0316331461013d5760405162461bcd60e51b815260040161013490610858565b60405180910390fd5b6040516370a0823160e01b81523060048201526101cb9033906001600160a01b038416906370a082319060240160206040518083038186803b15801561018257600080fd5b505afa158015610196573d6000803e3d6000fd5b505050506040513d601f19601f820116820180604052508101906101ba91906107f1565b6001600160a01b0384169190610440565b50565b6033546001600160a01b031633146101f85760405162461bcd60e51b815260040161013490610858565b6102026000610497565b565b6033546001600160a01b0316331461022e5760405162461bcd60e51b815260040161013490610858565b604051632142170760e11b8152306004820152336024820152604481018290526001600160a01b038316906342842e0e90606401600060405180830381600087803b15801561027c57600080fd5b505af1158015610290573d6000803e3d6000fd5b505050505050565b6033546001600160a01b031633146102c25760405162461bcd60e51b815260040161013490610858565b604051637921219560e11b8152306004820152336024820152604481018390526064810182905260a06084820152600260a482015261060f60f31b60c48201526001600160a01b0384169063f242432a9060e401600060405180830381600087803b15801561033057600080fd5b505af1158015610344573d6000803e3d6000fd5b50505050505050565b6033546001600160a01b031633146103775760405162461bcd60e51b815260040161013490610858565b604051339082156108fc029083906000818181858888f193505050501580156103a4573d6000803e3d6000fd5b5050565b6033546001600160a01b031633146103d25760405162461bcd60e51b815260040161013490610858565b6001600160a01b0381166104375760405162461bcd60e51b815260206004820152602660248201527f4f776e61626c653a206e6577206f776e657220697320746865207a65726f206160448201526564647265737360d01b6064820152608401610134565b6101cb81610497565b604080516001600160a01b038416602482015260448082018490528251808303909101815260649091019091526020810180516001600160e01b031663a9059cbb60e01b1790526104929084906104e9565b505050565b603380546001600160a01b038381166001600160a01b0319831681179093556040519116919082907f8be0079c531659141344cd1fd0a4f28419497f9722a3daafe3b4186f6b6457e090600090a35050565b600061053e826040518060400160405280602081526020017f5361666545524332303a206c6f772d6c6576656c2063616c6c206661696c6564815250856001600160a01b03166105bb9092919063ffffffff16565b805190915015610492578080602001905181019061055c919061075a565b6104925760405162461bcd60e51b815260206004820152602a60248201527f5361666545524332303a204552433230206f7065726174696f6e20646964206e6044820152691bdd081cdd58d8d9595960b21b6064820152608401610134565b60606105ca84846000856105d4565b90505b9392505050565b6060824710156106355760405162461bcd60e51b815260206004820152602660248201527f416464726573733a20696e73756666696369656e742062616c616e636520666f6044820152651c8818d85b1b60d21b6064820152608401610134565b6001600160a01b0385163b61068c5760405162461bcd60e51b815260206004820152601d60248201527f416464726573733a2063616c6c20746f206e6f6e2d636f6e74726163740000006044820152606401610134565b600080866001600160a01b031685876040516106a89190610809565b60006040518083038185875af1925050503d80600081146106e5576040519150601f19603f3d011682016040523d82523d6000602084013e6106ea565b606091505b50915091506106fa828286610705565b979650505050505050565b606083156107145750816105cd565b8251156107245782518084602001fd5b8160405162461bcd60e51b81526004016101349190610825565b60006020828403121561074f578081fd5b81356105cd816108bd565b60006020828403121561076b578081fd5b815180151581146105cd578182fd5b60008060006060848603121561078e578182fd5b8335610799816108bd565b95602085013595506040909401359392505050565b600080604083850312156107c0578182fd5b82356107cb816108bd565b946020939093013593505050565b6000602082840312156107ea578081fd5b5035919050565b600060208284031215610802578081fd5b5051919050565b6000825161081b81846020870161088d565b9190910192915050565b600060208252825180602084015261084481604085016020870161088d565b601f01601f19169190910160400192915050565b6020808252818101527f4f776e61626c653a2063616c6c6572206973206e6f7420746865206f776e6572604082015260600190565b60005b838110156108a8578181015183820152602001610890565b838111156108b7576000848401525b50505050565b6001600160a01b03811681146101cb57600080fdfea26469706673582212206cbc7db450860503f9a240bb492e888c5c34e33fcbd27d302a5157521e3729d264736f6c63430008020033",
  "linkReferences": {},
  "deployedLinkReferences": {}
}