{
  "_format": "hh-sol-artifact-1",
  "contractName": "MFTERC20Upg",
  "sourceName": "contracts/MFTERC20Upg.sol",
  "abi": [
    {
      "anonymous": false,
      "inputs": [
        {
          "indexed": true,
          "internalType": "address",
          "name": "owner",
          "type": "address"
        },
        {
          "indexed": true,
          "internalType": "address",
          "name": "spender",
          "type": "address"
        },
        {
          "indexed": false,
          "internalType": "uint256",
          "name": "value",
          "type": "uint256"
        }
      ],
      "name": "Approval",
      "type": "event"
    },
    {
      "anonymous": false,
      "inputs": [
        {
          "indexed": false,
          "internalType": "uint8",
          "name": "version",
          "type": "uint8"
        }
      ],
      "name": "Initialized",
      "type": "event"
    },
    {
      "anonymous": false,
      "inputs": [
        {
          "indexed": true,
          "internalType": "address",
          "name": "previousOwner",
          "type": "address"
        },
        {
          "indexed": true,
          "internalType": "address",
          "name": "newOwner",
          "type": "address"
        }
      ],
      "name": "OwnershipTransferred",
      "type": "event"
    },
    {
      "anonymous": false,
      "inputs": [
        {
          "indexed": false,
          "internalType": "address",
          "name": "account",
          "type": "address"
        }
      ],
      "name": "Paused",
      "type": "event"
    },
    {
      "anonymous": false,
      "inputs": [
        {
          "indexed": false,
          "internalType": "uint256",
          "name": "id",
          "type": "uint256"
        }
      ],
      "name": "Snapshot",
      "type": "event"
    },
    {
      "anonymous": false,
      "inputs": [
        {
          "indexed": true,
          "internalType": "address",
          "name": "from",
          "type": "address"
        },
        {
          "indexed": true,
          "internalType": "address",
          "name": "to",
          "type": "address"
        },
        {
          "indexed": false,
          "internalType": "uint256",
          "name": "value",
          "type": "uint256"
        }
      ],
      "name": "Transfer",
      "type": "event"
    },
    {
      "anonymous": false,
      "inputs": [
        {
          "indexed": false,
          "internalType": "address",
          "name": "account",
          "type": "address"
        }
      ],
      "name": "Unpaused",
      "type": "event"
    },
    {
      "inputs": [
        {
          "internalType": "address",
          "name": "owner",
          "type": "address"
        },
        {
          "internalType": "address",
          "name": "spender",
          "type": "address"
        }
      ],
      "name": "allowance",
      "outputs": [
        {
          "internalType": "uint256",
          "name": "",
          "type": "uint256"
        }
      ],
      "stateMutability": "view",
      "type": "function"
    },
    {
      "inputs": [
        {
          "internalType": "address",
          "name": "spender",
          "type": "address"
        },
        {
          "internalType": "uint256",
          "name": "amount",
          "type": "uint256"
        }
      ],
      "name": "approve",
      "outputs": [
        {
          "internalType": "bool",
          "name": "",
          "type": "bool"
        }
      ],
      "stateMutability": "nonpayable",
      "type": "function"
    },
    {
      "inputs": [
        {
          "internalType": "address",
          "name": "account",
          "type": "address"
        }
      ],
      "name": "balanceOf",
      "outputs": [
        {
          "internalType": "uint256",
          "name": "",
          "type": "uint256"
        }
      ],
      "stateMutability": "view",
      "type": "function"
    },
    {
      "inputs": [
        {
          "internalType": "address",
          "name": "account",
          "type": "address"
        },
        {
          "internalType": "uint256",
          "name": "snapshotId",
          "type": "uint256"
        }
      ],
      "name": "balanceOfAt",
      "outputs": [
        {
          "internalType": "uint256",
          "name": "",
          "type": "uint256"
        }
      ],
      "stateMutability": "view",
      "type": "function"
    },
    {
      "inputs": [
        {
          "internalType": "uint256",
          "name": "amount",
          "type": "uint256"
        }
      ],
      "name": "burn",
      "outputs": [],
      "stateMutability": "nonpayable",
      "type": "function"
    },
    {
      "inputs": [
        {
          "internalType": "address",
          "name": "account",
          "type": "address"
        },
        {
          "internalType": "uint256",
          "name": "amount",
          "type": "uint256"
        }
      ],
      "name": "burnFrom",
      "outputs": [],
      "stateMutability": "nonpayable",
      "type": "function"
    },
    {
      "inputs": [],
      "name": "decimals",
      "outputs": [
        {
          "internalType": "uint8",
          "name": "",
          "type": "uint8"
        }
      ],
      "stateMutability": "view",
      "type": "function"
    },
    {
      "inputs": [
        {
          "internalType": "address",
          "name": "spender",
          "type": "address"
        },
        {
          "internalType": "uint256",
          "name": "subtractedValue",
          "type": "uint256"
        }
      ],
      "name": "decreaseAllowance",
      "outputs": [
        {
          "internalType": "bool",
          "name": "",
          "type": "bool"
        }
      ],
      "stateMutability": "nonpayable",
      "type": "function"
    },
    {
      "inputs": [
        {
          "internalType": "address",
          "name": "spender",
          "type": "address"
        },
        {
          "internalType": "uint256",
          "name": "addedValue",
          "type": "uint256"
        }
      ],
      "name": "increaseAllowance",
      "outputs": [
        {
          "internalType": "bool",
          "name": "",
          "type": "bool"
        }
      ],
      "stateMutability": "nonpayable",
      "type": "function"
    },
    {
      "inputs": [],
      "name": "initialize",
      "outputs": [],
      "stateMutability": "nonpayable",
      "type": "function"
    },
    {
      "inputs": [],
      "name": "name",
      "outputs": [
        {
          "internalType": "string",
          "name": "",
          "type": "string"
        }
      ],
      "stateMutability": "view",
      "type": "function"
    },
    {
      "inputs": [],
      "name": "owner",
      "outputs": [
        {
          "internalType": "address",
          "name": "",
          "type": "address"
        }
      ],
      "stateMutability": "view",
      "type": "function"
    },
    {
      "inputs": [],
      "name": "pause",
      "outputs": [],
      "stateMutability": "nonpayable",
      "type": "function"
    },
    {
      "inputs": [],
      "name": "paused",
      "outputs": [
        {
          "internalType": "bool",
          "name": "",
          "type": "bool"
        }
      ],
      "stateMutability": "view",
      "type": "function"
    },
    {
      "inputs": [
        {
          "internalType": "contract IERC1155Upgradeable",
          "name": "token",
          "type": "address"
        },
        {
          "internalType": "uint256",
          "name": "tokenId",
          "type": "uint256"
        },
        {
          "internalType": "uint256",
          "name": "amount",
          "type": "uint256"
        }
      ],
      "name": "recoverERC1155",
      "outputs": [],
      "stateMutability": "nonpayable",
      "type": "function"
    },
    {
      "inputs": [
        {
          "internalType": "contract IERC721Upgradeable",
          "name": "token",
          "type": "address"
        },
        {
          "internalType": "uint256",
          "name": "tokenId",
          "type": "uint256"
        }
      ],
      "name": "recoverERC721",
      "outputs": [],
      "stateMutability": "nonpayable",
      "type": "function"
    },
    {
      "inputs": [
        {
          "internalType": "uint256",
          "name": "amount",
          "type": "uint256"
        }
      ],
      "name": "recoverETH",
      "outputs": [],
      "stateMutability": "nonpayable",
      "type": "function"
    },
    {
      "inputs": [
        {
          "internalType": "contract IERC20Upgradeable",
          "name": "token",
          "type": "address"
        }
      ],
      "name": "recoverTokens",
      "outputs": [],
      "stateMutability": "nonpayable",
      "type": "function"
    },
    {
      "inputs": [],
      "name": "renounceOwnership",
      "outputs": [],
      "stateMutability": "nonpayable",
      "type": "function"
    },
    {
      "inputs": [],
      "name": "snapshot",
      "outputs": [],
      "stateMutability": "nonpayable",
      "type": "function"
    },
    {
      "inputs": [],
      "name": "symbol",
      "outputs": [
        {
          "internalType": "string",
          "name": "",
          "type": "string"
        }
      ],
      "stateMutability": "view",
      "type": "function"
    },
    {
      "inputs": [],
      "name": "totalSupply",
      "outputs": [
        {
          "internalType": "uint256",
          "name": "",
          "type": "uint256"
        }
      ],
      "stateMutability": "view",
      "type": "function"
    },
    {
      "inputs": [
        {
          "internalType": "uint256",
          "name": "snapshotId",
          "type": "uint256"
        }
      ],
      "name": "totalSupplyAt",
      "outputs": [
        {
          "internalType": "uint256",
          "name": "",
          "type": "uint256"
        }
      ],
      "stateMutability": "view",
      "type": "function"
    },
    {
      "inputs": [
        {
          "internalType": "address",
          "name": "to",
          "type": "address"
        },
        {
          "internalType": "uint256",
          "name": "amount",
          "type": "uint256"
        }
      ],
      "name": "transfer",
      "outputs": [
        {
          "internalType": "bool",
          "name": "",
          "type": "bool"
        }
      ],
      "stateMutability": "nonpayable",
      "type": "function"
    },
    {
      "inputs": [
        {
          "internalType": "address",
          "name": "from",
          "type": "address"
        },
        {
          "internalType": "address",
          "name": "to",
          "type": "address"
        },
        {
          "internalType": "uint256",
          "name": "amount",
          "type": "uint256"
        }
      ],
      "name": "transferFrom",
      "outputs": [
        {
          "internalType": "bool",
          "name": "",
          "type": "bool"
        }
      ],
      "stateMutability": "nonpayable",
      "type": "function"
    },
    {
      "inputs": [
        {
          "internalType": "address",
          "name": "newOwner",
          "type": "address"
        }
      ],
      "name": "transferOwnership",
      "outputs": [],
      "stateMutability": "nonpayable",
      "type": "function"
    },
    {
      "inputs": [],
      "name": "unpause",
      "outputs": [],
      "stateMutability": "nonpayable",
      "type": "function"
    }
  ],
  "bytecode": "0x608060405234801561001057600080fd5b50611d44806100206000396000f3fe608060405234801561001057600080fd5b50600436106101a95760003560e01c806379cc6790116100f9578063981b24d011610097578063cbaa1d9b11610071578063cbaa1d9b14610339578063d33355531461034c578063dd62ed3e1461035f578063f2fde38b14610372576101a9565b8063981b24d014610300578063a457c2d714610313578063a9059cbb14610326576101a9565b80638456cb59116100d35780638456cb59146102cd5780638da5cb5b146102d557806395d89b41146102f05780639711715a146102f8576101a9565b806379cc67901461029f5780638129fc1c146102b2578063819d4cc6146102ba576101a9565b806339509351116101665780634ee2cd7e116101405780634ee2cd7e146102665780635c975abb1461027957806370a0823114610284578063715018a614610297576101a9565b806339509351146102385780633f4ba83a1461024b57806342966c6814610253576101a9565b806306fdde03146101ae578063095ea7b3146101cc57806316114acd146101ef57806318160ddd1461020457806323b872dd14610216578063313ce56714610229575b600080fd5b6101b6610385565b6040516101c39190611b2c565b60405180910390f35b6101df6101da366004611a61565b610417565b60405190151581526020016101c3565b6102026101fd3660046119cd565b610431565b005b6035545b6040519081526020016101c3565b6101df610224366004611a21565b6104f5565b604051601281526020016101c3565b6101df610246366004611a61565b61051b565b61020261053d565b610202610261366004611ae0565b610571565b610208610274366004611a61565b61057b565b60fb5460ff166101df565b6102086102923660046119cd565b6105c4565b6102026105e3565b6102026102ad366004611a61565b610617565b610202610630565b6102026102c8366004611a61565b610703565b610202610797565b60c9546040516001600160a01b0390911681526020016101c3565b6101b66107c9565b6102026107d8565b61020861030e366004611ae0565b61080a565b6101df610321366004611a61565b610835565b6101df610334366004611a61565b6108bb565b610202610347366004611aac565b6108c9565b61020261035a366004611ae0565b61097e565b61020861036d3660046119e9565b6109d5565b6102026103803660046119cd565b610a00565b60606036805461039490611ca8565b80601f01602080910402602001604051908101604052809291908181526020018280546103c090611ca8565b801561040d5780601f106103e25761010080835404028352916020019161040d565b820191906000526020600020905b8154815290600101906020018083116103f057829003601f168201915b5050505050905090565b600033610425818585610a98565b60019150505b92915050565b60c9546001600160a01b031633146104645760405162461bcd60e51b815260040161045b90611bad565b60405180910390fd5b6040516370a0823160e01b81523060048201526104f29033906001600160a01b038416906370a082319060240160206040518083038186803b1580156104a957600080fd5b505afa1580156104bd573d6000803e3d6000fd5b505050506040513d601f19601f820116820180604052508101906104e19190611af8565b6001600160a01b0384169190610bbc565b50565b600033610503858285610c13565b61050e858585610c8d565b60019150505b9392505050565b60003361042581858561052e83836109d5565b6105389190611c2d565b610a98565b60c9546001600160a01b031633146105675760405162461bcd60e51b815260040161045b90611bad565b61056f610e66565b565b6104f23382610ef9565b6001600160a01b0382166000908152609760205260408120819081906105a2908590611053565b91509150816105b9576105b4856105c4565b6105bb565b805b95945050505050565b6001600160a01b0381166000908152603360205260409020545b919050565b60c9546001600160a01b0316331461060d5760405162461bcd60e51b815260040161045b90611bad565b61056f6000611158565b610622823383610c13565b61062c8282610ef9565b5050565b600061063c60016111aa565b90508015610654576000805461ff0019166101001790555b61069e6040518060400160405280600d81526020016c4d727765622046696e616e636560981b8152506040518060400160405280600381526020016213519560ea1b81525061122f565b6106a661127d565b6106bb336a52b7d2dcc80cd2e40000006112ad565b80156104f2576000805461ff0019169055604051600181527f7f26b83ff96e1f2b6a682f133852f6798a09c465da95921460cefb38474024989060200160405180910390a150565b60c9546001600160a01b0316331461072d5760405162461bcd60e51b815260040161045b90611bad565b604051632142170760e11b8152306004820152336024820152604481018290526001600160a01b038316906342842e0e90606401600060405180830381600087803b15801561077b57600080fd5b505af115801561078f573d6000803e3d6000fd5b505050505050565b60c9546001600160a01b031633146107c15760405162461bcd60e51b815260040161045b90611bad565b61056f611399565b60606037805461039490611ca8565b60c9546001600160a01b031633146108025760405162461bcd60e51b815260040161045b90611bad565b6104f2611414565b600080600061081a846098611053565b915091508161082b5760355461082d565b805b949350505050565b6000338161084382866109d5565b9050838110156108a35760405162461bcd60e51b815260206004820152602560248201527f45524332303a2064656372656173656420616c6c6f77616e63652062656c6f77604482015264207a65726f60d81b606482015260840161045b565b6108b08286868403610a98565b506001949350505050565b600033610425818585610c8d565b60c9546001600160a01b031633146108f35760405162461bcd60e51b815260040161045b90611bad565b604051637921219560e11b8152306004820152336024820152604481018390526064810182905260a06084820152600260a482015261060f60f31b60c48201526001600160a01b0384169063f242432a9060e401600060405180830381600087803b15801561096157600080fd5b505af1158015610975573d6000803e3d6000fd5b50505050505050565b60c9546001600160a01b031633146109a85760405162461bcd60e51b815260040161045b90611bad565b604051339082156108fc029083906000818181858888f1935050505015801561062c573d6000803e3d6000fd5b6001600160a01b03918216600090815260346020908152604080832093909416825291909152205490565b60c9546001600160a01b03163314610a2a5760405162461bcd60e51b815260040161045b90611bad565b6001600160a01b038116610a8f5760405162461bcd60e51b815260206004820152602660248201527f4f776e61626c653a206e6577206f776e657220697320746865207a65726f206160448201526564647265737360d01b606482015260840161045b565b6104f281611158565b6001600160a01b038316610afa5760405162461bcd60e51b8152602060048201526024808201527f45524332303a20617070726f76652066726f6d20746865207a65726f206164646044820152637265737360e01b606482015260840161045b565b6001600160a01b038216610b5b5760405162461bcd60e51b815260206004820152602260248201527f45524332303a20617070726f766520746f20746865207a65726f206164647265604482015261737360f01b606482015260840161045b565b6001600160a01b0383811660008181526034602090815260408083209487168084529482529182902085905590518481527f8c5be1e5ebec7d5bd14f71427d1e84f3dd0314c0f7b2291e5b200ac8c7c3b925910160405180910390a3505050565b604080516001600160a01b038416602482015260448082018490528251808303909101815260649091019091526020810180516001600160e01b031663a9059cbb60e01b179052610c0e90849061146e565b505050565b6000610c1f84846109d5565b90506000198114610c875781811015610c7a5760405162461bcd60e51b815260206004820152601d60248201527f45524332303a20696e73756666696369656e7420616c6c6f77616e6365000000604482015260640161045b565b610c878484848403610a98565b50505050565b6001600160a01b038316610cf15760405162461bcd60e51b815260206004820152602560248201527f45524332303a207472616e736665722066726f6d20746865207a65726f206164604482015264647265737360d81b606482015260840161045b565b6001600160a01b038216610d535760405162461bcd60e51b815260206004820152602360248201527f45524332303a207472616e7366657220746f20746865207a65726f206164647260448201526265737360e81b606482015260840161045b565b610d5e838383611540565b6001600160a01b03831660009081526033602052604090205481811015610dd65760405162461bcd60e51b815260206004820152602660248201527f45524332303a207472616e7366657220616d6f756e7420657863656564732062604482015265616c616e636560d01b606482015260840161045b565b6001600160a01b03808516600090815260336020526040808220858503905591851681529081208054849290610e0d908490611c2d565b92505081905550826001600160a01b0316846001600160a01b03167fddf252ad1be2c89b69c2b068fc378daa952ba7f163c4a11628f55a4df523b3ef84604051610e5991815260200190565b60405180910390a3610c87565b60fb5460ff16610eaf5760405162461bcd60e51b815260206004820152601460248201527314185d5cd8589b194e881b9bdd081c185d5cd95960621b604482015260640161045b565b60fb805460ff191690557f5db9ee0a495bf2e6ff9c91a7834c1ba4fdd244a5e8aa4e537bd38aeae4b073aa335b6040516001600160a01b03909116815260200160405180910390a1565b6001600160a01b038216610f595760405162461bcd60e51b815260206004820152602160248201527f45524332303a206275726e2066726f6d20746865207a65726f206164647265736044820152607360f81b606482015260840161045b565b610f6582600083611540565b6001600160a01b03821660009081526033602052604090205481811015610fd95760405162461bcd60e51b815260206004820152602260248201527f45524332303a206275726e20616d6f756e7420657863656564732062616c616e604482015261636560f01b606482015260840161045b565b6001600160a01b0383166000908152603360205260408120838303905560358054849290611008908490611c65565b90915550506040518281526000906001600160a01b038516907fddf252ad1be2c89b69c2b068fc378daa952ba7f163c4a11628f55a4df523b3ef9060200160405180910390a3610c0e565b6000806000841161109f5760405162461bcd60e51b815260206004820152601660248201527504552433230536e617073686f743a20696420697320360541b604482015260640161045b565b6110a7611591565b8411156110f65760405162461bcd60e51b815260206004820152601d60248201527f4552433230536e617073686f743a206e6f6e6578697374656e74206964000000604482015260640161045b565b600061110284866115a1565b845490915081141561111b576000809250925050611151565b600184600101828154811061114057634e487b7160e01b600052603260045260246000fd5b906000526020600020015492509250505b9250929050565b60c980546001600160a01b038381166001600160a01b0319831681179093556040519116919082907f8be0079c531659141344cd1fd0a4f28419497f9722a3daafe3b4186f6b6457e090600090a35050565b60008054610100900460ff16156111f1578160ff1660011480156111cd5750303b155b6111e95760405162461bcd60e51b815260040161045b90611b5f565b5060006105de565b60005460ff8084169116106112185760405162461bcd60e51b815260040161045b90611b5f565b506000805460ff191660ff831617905560016105de565b600054610100900460ff166112565760405162461bcd60e51b815260040161045b90611be2565b8151611269906036906020850190611934565b508051610c0e906037906020840190611934565b600054610100900460ff166112a45760405162461bcd60e51b815260040161045b90611be2565b61056f33611158565b6001600160a01b0382166113035760405162461bcd60e51b815260206004820152601f60248201527f45524332303a206d696e7420746f20746865207a65726f206164647265737300604482015260640161045b565b61130f60008383611540565b80603560008282546113219190611c2d565b90915550506001600160a01b0382166000908152603360205260408120805483929061134e908490611c2d565b90915550506040518181526001600160a01b038316906000907fddf252ad1be2c89b69c2b068fc378daa952ba7f163c4a11628f55a4df523b3ef9060200160405180910390a361062c565b60fb5460ff16156113df5760405162461bcd60e51b815260206004820152601060248201526f14185d5cd8589b194e881c185d5cd95960821b604482015260640161045b565b60fb805460ff191660011790557f62e78cea01bee320cd4e420270b5ea74000d11b0c9f74754ebdbfc544b05a258610edc3390565b6000611424609a80546001019055565b600061142e611591565b90507f8030e83b04d87bef53480e26263266d6ca66863aa8506aca6f2559d18aa1cb678160405161146191815260200190565b60405180910390a1905090565b60006114c3826040518060400160405280602081526020017f5361666545524332303a206c6f772d6c6576656c2063616c6c206661696c6564815250856001600160a01b03166116809092919063ffffffff16565b805190915015610c0e57808060200190518101906114e19190611a8c565b610c0e5760405162461bcd60e51b815260206004820152602a60248201527f5361666545524332303a204552433230206f7065726174696f6e20646964206e6044820152691bdd081cdd58d8d9595960b21b606482015260840161045b565b60fb5460ff16156115865760405162461bcd60e51b815260206004820152601060248201526f14185d5cd8589b194e881c185d5cd95960821b604482015260640161045b565b610c0e83838361168f565b600061159c609a5490565b905090565b81546000906115b25750600061042b565b82546000905b8082101561161c5760006115cc83836116dc565b9050848682815481106115ef57634e487b7160e01b600052603260045260246000fd5b9060005260206000200154111561160857809150611616565b611613816001611c2d565b92505b506115b8565b60008211801561165f57508385611634600185611c65565b8154811061165257634e487b7160e01b600052603260045260246000fd5b9060005260206000200154145b156116785761166f600183611c65565b9250505061042b565b50905061042b565b606061082d84846000856116f7565b6001600160a01b0383166116b3576116a682611828565b6116ae611852565b610c0e565b6001600160a01b0382166116ca576116a683611828565b6116d383611828565b610c0e82611828565b60006116eb6002848418611c45565b61051490848416611c2d565b6060824710156117585760405162461bcd60e51b815260206004820152602660248201527f416464726573733a20696e73756666696369656e742062616c616e636520666f6044820152651c8818d85b1b60d21b606482015260840161045b565b6001600160a01b0385163b6117af5760405162461bcd60e51b815260206004820152601d60248201527f416464726573733a2063616c6c20746f206e6f6e2d636f6e7472616374000000604482015260640161045b565b600080866001600160a01b031685876040516117cb9190611b10565b60006040518083038185875af1925050503d8060008114611808576040519150601f19603f3d011682016040523d82523d6000602084013e61180d565b606091505b509150915061181d828286611860565b979650505050505050565b6001600160a01b03811660009081526097602052604090206104f29061184d836105c4565b611899565b61056f609861184d60355490565b6060831561186f575081610514565b82511561187f5782518084602001fd5b8160405162461bcd60e51b815260040161045b9190611b2c565b60006118a3611591565b9050806118af846118e3565b1015610c0e578254600180820185556000858152602080822090930193909355938401805494850181558252902090910155565b80546000906118f4575060006105de565b8154829061190490600190611c65565b8154811061192257634e487b7160e01b600052603260045260246000fd5b906000526020600020015490506105de565b82805461194090611ca8565b90600052602060002090601f01602090048101928261196257600085556119a8565b82601f1061197b57805160ff19168380011785556119a8565b828001600101855582156119a8579182015b828111156119a857825182559160200191906001019061198d565b506119b49291506119b8565b5090565b5b808211156119b457600081556001016119b9565b6000602082840312156119de578081fd5b813561051481611cf9565b600080604083850312156119fb578081fd5b8235611a0681611cf9565b91506020830135611a1681611cf9565b809150509250929050565b600080600060608486031215611a35578081fd5b8335611a4081611cf9565b92506020840135611a5081611cf9565b929592945050506040919091013590565b60008060408385031215611a73578182fd5b8235611a7e81611cf9565b946020939093013593505050565b600060208284031215611a9d578081fd5b81518015158114610514578182fd5b600080600060608486031215611ac0578283fd5b8335611acb81611cf9565b95602085013595506040909401359392505050565b600060208284031215611af1578081fd5b5035919050565b600060208284031215611b09578081fd5b5051919050565b60008251611b22818460208701611c7c565b9190910192915050565b6000602082528251806020840152611b4b816040850160208701611c7c565b601f01601f19169190910160400192915050565b6020808252602e908201527f496e697469616c697a61626c653a20636f6e747261637420697320616c72656160408201526d191e481a5b9a5d1a585b1a5e995960921b606082015260800190565b6020808252818101527f4f776e61626c653a2063616c6c6572206973206e6f7420746865206f776e6572604082015260600190565b6020808252602b908201527f496e697469616c697a61626c653a20636f6e7472616374206973206e6f74206960408201526a6e697469616c697a696e6760a81b606082015260800190565b60008219821115611c4057611c40611ce3565b500190565b600082611c6057634e487b7160e01b81526012600452602481fd5b500490565b600082821015611c7757611c77611ce3565b500390565b60005b83811015611c97578181015183820152602001611c7f565b83811115610c875750506000910152565b600281046001821680611cbc57607f821691505b60208210811415611cdd57634e487b7160e01b600052602260045260246000fd5b50919050565b634e487b7160e01b600052601160045260246000fd5b6001600160a01b03811681146104f257600080fdfea2646970667358221220ad52477403b9ef8a25646dedde2fe5083cbf6a6a7de65b11bca6c3e5d5b0e8a164736f6c63430008020033",
  "linkReferences": {},
  "deployedLinkReferences": {}
}