{
  "_format": "hh-sol-artifact-1",
  "contractName": "MFTERC20Upg",
  "sourceName": "contracts/MFTERC20Upg.sol",
  "abi": [
    {
      "anonymous": false,
      "inputs": [
        {
          "indexed": true,
          "internalType": "address",
          "name": "owner",
          "type": "address"
        },
        {
          "indexed": true,
          "internalType": "address",
          "name": "spender",
          "type": "address"
        },
        {
          "indexed": false,
          "internalType": "uint256",
          "name": "value",
          "type": "uint256"
        }
      ],
      "name": "Approval",
      "type": "event"
    },
    {
      "anonymous": false,
      "inputs": [
        {
          "indexed": false,
          "internalType": "uint8",
          "name": "version",
          "type": "uint8"
        }
      ],
      "name": "Initialized",
      "type": "event"
    },
    {
      "anonymous": false,
      "inputs": [
        {
          "indexed": true,
          "internalType": "address",
          "name": "previousOwner",
          "type": "address"
        },
        {
          "indexed": true,
          "internalType": "address",
          "name": "newOwner",
          "type": "address"
        }
      ],
      "name": "OwnershipTransferred",
      "type": "event"
    },
    {
      "anonymous": false,
      "inputs": [
        {
          "indexed": false,
          "internalType": "address",
          "name": "account",
          "type": "address"
        }
      ],
      "name": "Paused",
      "type": "event"
    },
    {
      "anonymous": false,
      "inputs": [
        {
          "indexed": false,
          "internalType": "uint256",
          "name": "id",
          "type": "uint256"
        }
      ],
      "name": "Snapshot",
      "type": "event"
    },
    {
      "anonymous": false,
      "inputs": [
        {
          "indexed": true,
          "internalType": "address",
          "name": "from",
          "type": "address"
        },
        {
          "indexed": true,
          "internalType": "address",
          "name": "to",
          "type": "address"
        },
        {
          "indexed": false,
          "internalType": "uint256",
          "name": "value",
          "type": "uint256"
        }
      ],
      "name": "Transfer",
      "type": "event"
    },
    {
      "anonymous": false,
      "inputs": [
        {
          "indexed": false,
          "internalType": "address",
          "name": "account",
          "type": "address"
        }
      ],
      "name": "Unpaused",
      "type": "event"
    },
    {
      "inputs": [
        {
          "internalType": "address",
          "name": "owner",
          "type": "address"
        },
        {
          "internalType": "address",
          "name": "spender",
          "type": "address"
        }
      ],
      "name": "allowance",
      "outputs": [
        {
          "internalType": "uint256",
          "name": "",
          "type": "uint256"
        }
      ],
      "stateMutability": "view",
      "type": "function"
    },
    {
      "inputs": [
        {
          "internalType": "address",
          "name": "spender",
          "type": "address"
        },
        {
          "internalType": "uint256",
          "name": "amount",
          "type": "uint256"
        }
      ],
      "name": "approve",
      "outputs": [
        {
          "internalType": "bool",
          "name": "",
          "type": "bool"
        }
      ],
      "stateMutability": "nonpayable",
      "type": "function"
    },
    {
      "inputs": [
        {
          "internalType": "address",
          "name": "account",
          "type": "address"
        }
      ],
      "name": "balanceOf",
      "outputs": [
        {
          "internalType": "uint256",
          "name": "",
          "type": "uint256"
        }
      ],
      "stateMutability": "view",
      "type": "function"
    },
    {
      "inputs": [
        {
          "internalType": "address",
          "name": "account",
          "type": "address"
        },
        {
          "internalType": "uint256",
          "name": "snapshotId",
          "type": "uint256"
        }
      ],
      "name": "balanceOfAt",
      "outputs": [
        {
          "internalType": "uint256",
          "name": "",
          "type": "uint256"
        }
      ],
      "stateMutability": "view",
      "type": "function"
    },
    {
      "inputs": [
        {
          "internalType": "uint256",
          "name": "amount",
          "type": "uint256"
        }
      ],
      "name": "burn",
      "outputs": [],
      "stateMutability": "nonpayable",
      "type": "function"
    },
    {
      "inputs": [
        {
          "internalType": "address",
          "name": "account",
          "type": "address"
        },
        {
          "internalType": "uint256",
          "name": "amount",
          "type": "uint256"
        }
      ],
      "name": "burnFrom",
      "outputs": [],
      "stateMutability": "nonpayable",
      "type": "function"
    },
    {
      "inputs": [],
      "name": "decimals",
      "outputs": [
        {
          "internalType": "uint8",
          "name": "",
          "type": "uint8"
        }
      ],
      "stateMutability": "view",
      "type": "function"
    },
    {
      "inputs": [
        {
          "internalType": "address",
          "name": "spender",
          "type": "address"
        },
        {
          "internalType": "uint256",
          "name": "subtractedValue",
          "type": "uint256"
        }
      ],
      "name": "decreaseAllowance",
      "outputs": [
        {
          "internalType": "bool",
          "name": "",
          "type": "bool"
        }
      ],
      "stateMutability": "nonpayable",
      "type": "function"
    },
    {
      "inputs": [
        {
          "internalType": "address",
          "name": "spender",
          "type": "address"
        },
        {
          "internalType": "uint256",
          "name": "addedValue",
          "type": "uint256"
        }
      ],
      "name": "increaseAllowance",
      "outputs": [
        {
          "internalType": "bool",
          "name": "",
          "type": "bool"
        }
      ],
      "stateMutability": "nonpayable",
      "type": "function"
    },
    {
      "inputs": [],
      "name": "initialize",
      "outputs": [],
      "stateMutability": "nonpayable",
      "type": "function"
    },
    {
      "inputs": [],
      "name": "name",
      "outputs": [
        {
          "internalType": "string",
          "name": "",
          "type": "string"
        }
      ],
      "stateMutability": "view",
      "type": "function"
    },
    {
      "inputs": [],
      "name": "owner",
      "outputs": [
        {
          "internalType": "address",
          "name": "",
          "type": "address"
        }
      ],
      "stateMutability": "view",
      "type": "function"
    },
    {
      "inputs": [],
      "name": "pause",
      "outputs": [],
      "stateMutability": "nonpayable",
      "type": "function"
    },
    {
      "inputs": [],
      "name": "paused",
      "outputs": [
        {
          "internalType": "bool",
          "name": "",
          "type": "bool"
        }
      ],
      "stateMutability": "view",
      "type": "function"
    },
    {
      "inputs": [
        {
          "internalType": "contract IERC1155Upgradeable",
          "name": "token",
          "type": "address"
        },
        {
          "internalType": "uint256",
          "name": "tokenId",
          "type": "uint256"
        },
        {
          "internalType": "uint256",
          "name": "amount",
          "type": "uint256"
        }
      ],
      "name": "recoverERC1155",
      "outputs": [],
      "stateMutability": "nonpayable",
      "type": "function"
    },
    {
      "inputs": [
        {
          "internalType": "contract IERC721Upgradeable",
          "name": "token",
          "type": "address"
        },
        {
          "internalType": "uint256",
          "name": "tokenId",
          "type": "uint256"
        }
      ],
      "name": "recoverERC721",
      "outputs": [],
      "stateMutability": "nonpayable",
      "type": "function"
    },
    {
      "inputs": [
        {
          "internalType": "uint256",
          "name": "amount",
          "type": "uint256"
        }
      ],
      "name": "recoverETH",
      "outputs": [],
      "stateMutability": "nonpayable",
      "type": "function"
    },
    {
      "inputs": [
        {
          "internalType": "contract IERC20Upgradeable",
          "name": "token",
          "type": "address"
        }
      ],
      "name": "recoverTokens",
      "outputs": [],
      "stateMutability": "nonpayable",
      "type": "function"
    },
    {
      "inputs": [],
      "name": "renounceOwnership",
      "outputs": [],
      "stateMutability": "nonpayable",
      "type": "function"
    },
    {
      "inputs": [],
      "name": "snapshot",
      "outputs": [],
      "stateMutability": "nonpayable",
      "type": "function"
    },
    {
      "inputs": [],
      "name": "symbol",
      "outputs": [
        {
          "internalType": "string",
          "name": "",
          "type": "string"
        }
      ],
      "stateMutability": "view",
      "type": "function"
    },
    {
      "inputs": [],
      "name": "totalSupply",
      "outputs": [
        {
          "internalType": "uint256",
          "name": "",
          "type": "uint256"
        }
      ],
      "stateMutability": "view",
      "type": "function"
    },
    {
      "inputs": [
        {
          "internalType": "uint256",
          "name": "snapshotId",
          "type": "uint256"
        }
      ],
      "name": "totalSupplyAt",
      "outputs": [
        {
          "internalType": "uint256",
          "name": "",
          "type": "uint256"
        }
      ],
      "stateMutability": "view",
      "type": "function"
    },
    {
      "inputs": [
        {
          "internalType": "address",
          "name": "to",
          "type": "address"
        },
        {
          "internalType": "uint256",
          "name": "amount",
          "type": "uint256"
        }
      ],
      "name": "transfer",
      "outputs": [
        {
          "internalType": "bool",
          "name": "",
          "type": "bool"
        }
      ],
      "stateMutability": "nonpayable",
      "type": "function"
    },
    {
      "inputs": [
        {
          "internalType": "address",
          "name": "from",
          "type": "address"
        },
        {
          "internalType": "address",
          "name": "to",
          "type": "address"
        },
        {
          "internalType": "uint256",
          "name": "amount",
          "type": "uint256"
        }
      ],
      "name": "transferFrom",
      "outputs": [
        {
          "internalType": "bool",
          "name": "",
          "type": "bool"
        }
      ],
      "stateMutability": "nonpayable",
      "type": "function"
    },
    {
      "inputs": [
        {
          "internalType": "address",
          "name": "newOwner",
          "type": "address"
        }
      ],
      "name": "transferOwnership",
      "outputs": [],
      "stateMutability": "nonpayable",
      "type": "function"
    },
    {
      "inputs": [],
      "name": "unpause",
      "outputs": [],
      "stateMutability": "nonpayable",
      "type": "function"
    }
  ],
  "bytecode": "0x608060405234801561001057600080fd5b50611d9d806100206000396000f3fe608060405234801561001057600080fd5b50600436106101a95760003560e01c806379cc6790116100f9578063981b24d011610097578063cbaa1d9b11610071578063cbaa1d9b14610339578063d33355531461034c578063dd62ed3e1461035f578063f2fde38b14610372576101a9565b8063981b24d014610300578063a457c2d714610313578063a9059cbb14610326576101a9565b80638456cb59116100d35780638456cb59146102cd5780638da5cb5b146102d557806395d89b41146102f05780639711715a146102f8576101a9565b806379cc67901461029f5780638129fc1c146102b2578063819d4cc6146102ba576101a9565b806339509351116101665780634ee2cd7e116101405780634ee2cd7e146102665780635c975abb1461027957806370a0823114610284578063715018a614610297576101a9565b806339509351146102385780633f4ba83a1461024b57806342966c6814610253576101a9565b806306fdde03146101ae578063095ea7b3146101cc57806316114acd146101ef57806318160ddd1461020457806323b872dd14610216578063313ce56714610229575b600080fd5b6101b6610385565b6040516101c39190611b85565b60405180910390f35b6101df6101da366004611aba565b610417565b60405190151581526020016101c3565b6102026101fd366004611a26565b610431565b005b6035545b6040519081526020016101c3565b6101df610224366004611a7a565b61054e565b604051601281526020016101c3565b6101df610246366004611aba565b610574565b610202610596565b610202610261366004611b39565b6105ca565b610208610274366004611aba565b6105d4565b60fb5460ff166101df565b610208610292366004611a26565b61061d565b61020261063c565b6102026102ad366004611aba565b610670565b610202610689565b6102026102c8366004611aba565b61075c565b6102026107f0565b60c9546040516001600160a01b0390911681526020016101c3565b6101b6610822565b610202610831565b61020861030e366004611b39565b610863565b6101df610321366004611aba565b61088e565b6101df610334366004611aba565b610914565b610202610347366004611b05565b610922565b61020261035a366004611b39565b6109d7565b61020861036d366004611a42565b610a2e565b610202610380366004611a26565b610a59565b60606036805461039490611d01565b80601f01602080910402602001604051908101604052809291908181526020018280546103c090611d01565b801561040d5780601f106103e25761010080835404028352916020019161040d565b820191906000526020600020905b8154815290600101906020018083116103f057829003601f168201915b5050505050905090565b600033610425818585610af1565b60019150505b92915050565b60c9546001600160a01b031633146104645760405162461bcd60e51b815260040161045b90611c06565b60405180910390fd5b306001600160a01b03821614156104bd5760405162461bcd60e51b815260206004820152601960248201527f43616e6e6f74207265636f766572207468697320746f6b656e00000000000000604482015260640161045b565b6040516370a0823160e01b815230600482015261054b9033906001600160a01b038416906370a082319060240160206040518083038186803b15801561050257600080fd5b505afa158015610516573d6000803e3d6000fd5b505050506040513d601f19601f8201168201806040525081019061053a9190611b51565b6001600160a01b0384169190610c15565b50565b60003361055c858285610c6c565b610567858585610ce6565b60019150505b9392505050565b6000336104258185856105878383610a2e565b6105919190611c86565b610af1565b60c9546001600160a01b031633146105c05760405162461bcd60e51b815260040161045b90611c06565b6105c8610ebf565b565b61054b3382610f52565b6001600160a01b0382166000908152609760205260408120819081906105fb9085906110ac565b91509150816106125761060d8561061d565b610614565b805b95945050505050565b6001600160a01b0381166000908152603360205260409020545b919050565b60c9546001600160a01b031633146106665760405162461bcd60e51b815260040161045b90611c06565b6105c860006111b1565b61067b823383610c6c565b6106858282610f52565b5050565b60006106956001611203565b905080156106ad576000805461ff0019166101001790555b6106f76040518060400160405280600d81526020016c4d727765622046696e616e636560981b8152506040518060400160405280600381526020016213519560ea1b815250611288565b6106ff6112d6565b610714336a52b7d2dcc80cd2e4000000611306565b801561054b576000805461ff0019169055604051600181527f7f26b83ff96e1f2b6a682f133852f6798a09c465da95921460cefb38474024989060200160405180910390a150565b60c9546001600160a01b031633146107865760405162461bcd60e51b815260040161045b90611c06565b604051632142170760e11b8152306004820152336024820152604481018290526001600160a01b038316906342842e0e90606401600060405180830381600087803b1580156107d457600080fd5b505af11580156107e8573d6000803e3d6000fd5b505050505050565b60c9546001600160a01b0316331461081a5760405162461bcd60e51b815260040161045b90611c06565b6105c86113f2565b60606037805461039490611d01565b60c9546001600160a01b0316331461085b5760405162461bcd60e51b815260040161045b90611c06565b61054b61146d565b60008060006108738460986110ac565b915091508161088457603554610886565b805b949350505050565b6000338161089c8286610a2e565b9050838110156108fc5760405162461bcd60e51b815260206004820152602560248201527f45524332303a2064656372656173656420616c6c6f77616e63652062656c6f77604482015264207a65726f60d81b606482015260840161045b565b6109098286868403610af1565b506001949350505050565b600033610425818585610ce6565b60c9546001600160a01b0316331461094c5760405162461bcd60e51b815260040161045b90611c06565b604051637921219560e11b8152306004820152336024820152604481018390526064810182905260a06084820152600260a482015261060f60f31b60c48201526001600160a01b0384169063f242432a9060e401600060405180830381600087803b1580156109ba57600080fd5b505af11580156109ce573d6000803e3d6000fd5b50505050505050565b60c9546001600160a01b03163314610a015760405162461bcd60e51b815260040161045b90611c06565b604051339082156108fc029083906000818181858888f19350505050158015610685573d6000803e3d6000fd5b6001600160a01b03918216600090815260346020908152604080832093909416825291909152205490565b60c9546001600160a01b03163314610a835760405162461bcd60e51b815260040161045b90611c06565b6001600160a01b038116610ae85760405162461bcd60e51b815260206004820152602660248201527f4f776e61626c653a206e6577206f776e657220697320746865207a65726f206160448201526564647265737360d01b606482015260840161045b565b61054b816111b1565b6001600160a01b038316610b535760405162461bcd60e51b8152602060048201526024808201527f45524332303a20617070726f76652066726f6d20746865207a65726f206164646044820152637265737360e01b606482015260840161045b565b6001600160a01b038216610bb45760405162461bcd60e51b815260206004820152602260248201527f45524332303a20617070726f766520746f20746865207a65726f206164647265604482015261737360f01b606482015260840161045b565b6001600160a01b0383811660008181526034602090815260408083209487168084529482529182902085905590518481527f8c5be1e5ebec7d5bd14f71427d1e84f3dd0314c0f7b2291e5b200ac8c7c3b925910160405180910390a3505050565b604080516001600160a01b038416602482015260448082018490528251808303909101815260649091019091526020810180516001600160e01b031663a9059cbb60e01b179052610c679084906114c7565b505050565b6000610c788484610a2e565b90506000198114610ce05781811015610cd35760405162461bcd60e51b815260206004820152601d60248201527f45524332303a20696e73756666696369656e7420616c6c6f77616e6365000000604482015260640161045b565b610ce08484848403610af1565b50505050565b6001600160a01b038316610d4a5760405162461bcd60e51b815260206004820152602560248201527f45524332303a207472616e736665722066726f6d20746865207a65726f206164604482015264647265737360d81b606482015260840161045b565b6001600160a01b038216610dac5760405162461bcd60e51b815260206004820152602360248201527f45524332303a207472616e7366657220746f20746865207a65726f206164647260448201526265737360e81b606482015260840161045b565b610db7838383611599565b6001600160a01b03831660009081526033602052604090205481811015610e2f5760405162461bcd60e51b815260206004820152602660248201527f45524332303a207472616e7366657220616d6f756e7420657863656564732062604482015265616c616e636560d01b606482015260840161045b565b6001600160a01b03808516600090815260336020526040808220858503905591851681529081208054849290610e66908490611c86565b92505081905550826001600160a01b0316846001600160a01b03167fddf252ad1be2c89b69c2b068fc378daa952ba7f163c4a11628f55a4df523b3ef84604051610eb291815260200190565b60405180910390a3610ce0565b60fb5460ff16610f085760405162461bcd60e51b815260206004820152601460248201527314185d5cd8589b194e881b9bdd081c185d5cd95960621b604482015260640161045b565b60fb805460ff191690557f5db9ee0a495bf2e6ff9c91a7834c1ba4fdd244a5e8aa4e537bd38aeae4b073aa335b6040516001600160a01b03909116815260200160405180910390a1565b6001600160a01b038216610fb25760405162461bcd60e51b815260206004820152602160248201527f45524332303a206275726e2066726f6d20746865207a65726f206164647265736044820152607360f81b606482015260840161045b565b610fbe82600083611599565b6001600160a01b038216600090815260336020526040902054818110156110325760405162461bcd60e51b815260206004820152602260248201527f45524332303a206275726e20616d6f756e7420657863656564732062616c616e604482015261636560f01b606482015260840161045b565b6001600160a01b0383166000908152603360205260408120838303905560358054849290611061908490611cbe565b90915550506040518281526000906001600160a01b038516907fddf252ad1be2c89b69c2b068fc378daa952ba7f163c4a11628f55a4df523b3ef9060200160405180910390a3610c67565b600080600084116110f85760405162461bcd60e51b815260206004820152601660248201527504552433230536e617073686f743a20696420697320360541b604482015260640161045b565b6111006115ea565b84111561114f5760405162461bcd60e51b815260206004820152601d60248201527f4552433230536e617073686f743a206e6f6e6578697374656e74206964000000604482015260640161045b565b600061115b84866115fa565b84549091508114156111745760008092509250506111aa565b600184600101828154811061119957634e487b7160e01b600052603260045260246000fd5b906000526020600020015492509250505b9250929050565b60c980546001600160a01b038381166001600160a01b0319831681179093556040519116919082907f8be0079c531659141344cd1fd0a4f28419497f9722a3daafe3b4186f6b6457e090600090a35050565b60008054610100900460ff161561124a578160ff1660011480156112265750303b155b6112425760405162461bcd60e51b815260040161045b90611bb8565b506000610637565b60005460ff8084169116106112715760405162461bcd60e51b815260040161045b90611bb8565b506000805460ff191660ff83161790556001610637565b600054610100900460ff166112af5760405162461bcd60e51b815260040161045b90611c3b565b81516112c290603690602085019061198d565b508051610c6790603790602084019061198d565b600054610100900460ff166112fd5760405162461bcd60e51b815260040161045b90611c3b565b6105c8336111b1565b6001600160a01b03821661135c5760405162461bcd60e51b815260206004820152601f60248201527f45524332303a206d696e7420746f20746865207a65726f206164647265737300604482015260640161045b565b61136860008383611599565b806035600082825461137a9190611c86565b90915550506001600160a01b038216600090815260336020526040812080548392906113a7908490611c86565b90915550506040518181526001600160a01b038316906000907fddf252ad1be2c89b69c2b068fc378daa952ba7f163c4a11628f55a4df523b3ef9060200160405180910390a3610685565b60fb5460ff16156114385760405162461bcd60e51b815260206004820152601060248201526f14185d5cd8589b194e881c185d5cd95960821b604482015260640161045b565b60fb805460ff191660011790557f62e78cea01bee320cd4e420270b5ea74000d11b0c9f74754ebdbfc544b05a258610f353390565b600061147d609a80546001019055565b60006114876115ea565b90507f8030e83b04d87bef53480e26263266d6ca66863aa8506aca6f2559d18aa1cb67816040516114ba91815260200190565b60405180910390a1905090565b600061151c826040518060400160405280602081526020017f5361666545524332303a206c6f772d6c6576656c2063616c6c206661696c6564815250856001600160a01b03166116d99092919063ffffffff16565b805190915015610c67578080602001905181019061153a9190611ae5565b610c675760405162461bcd60e51b815260206004820152602a60248201527f5361666545524332303a204552433230206f7065726174696f6e20646964206e6044820152691bdd081cdd58d8d9595960b21b606482015260840161045b565b60fb5460ff16156115df5760405162461bcd60e51b815260206004820152601060248201526f14185d5cd8589b194e881c185d5cd95960821b604482015260640161045b565b610c678383836116e8565b60006115f5609a5490565b905090565b815460009061160b5750600061042b565b82546000905b808210156116755760006116258383611735565b90508486828154811061164857634e487b7160e01b600052603260045260246000fd5b906000526020600020015411156116615780915061166f565b61166c816001611c86565b92505b50611611565b6000821180156116b85750838561168d600185611cbe565b815481106116ab57634e487b7160e01b600052603260045260246000fd5b9060005260206000200154145b156116d1576116c8600183611cbe565b9250505061042b565b50905061042b565b60606108868484600085611750565b6001600160a01b03831661170c576116ff82611881565b6117076118ab565b610c67565b6001600160a01b038216611723576116ff83611881565b61172c83611881565b610c6782611881565b60006117446002848418611c9e565b61056d90848416611c86565b6060824710156117b15760405162461bcd60e51b815260206004820152602660248201527f416464726573733a20696e73756666696369656e742062616c616e636520666f6044820152651c8818d85b1b60d21b606482015260840161045b565b6001600160a01b0385163b6118085760405162461bcd60e51b815260206004820152601d60248201527f416464726573733a2063616c6c20746f206e6f6e2d636f6e7472616374000000604482015260640161045b565b600080866001600160a01b031685876040516118249190611b69565b60006040518083038185875af1925050503d8060008114611861576040519150601f19603f3d011682016040523d82523d6000602084013e611866565b606091505b50915091506118768282866118b9565b979650505050505050565b6001600160a01b038116600090815260976020526040902061054b906118a68361061d565b6118f2565b6105c860986118a660355490565b606083156118c857508161056d565b8251156118d85782518084602001fd5b8160405162461bcd60e51b815260040161045b9190611b85565b60006118fc6115ea565b9050806119088461193c565b1015610c67578254600180820185556000858152602080822090930193909355938401805494850181558252902090910155565b805460009061194d57506000610637565b8154829061195d90600190611cbe565b8154811061197b57634e487b7160e01b600052603260045260246000fd5b90600052602060002001549050610637565b82805461199990611d01565b90600052602060002090601f0160209004810192826119bb5760008555611a01565b82601f106119d457805160ff1916838001178555611a01565b82800160010185558215611a01579182015b82811115611a015782518255916020019190600101906119e6565b50611a0d929150611a11565b5090565b5b80821115611a0d5760008155600101611a12565b600060208284031215611a37578081fd5b813561056d81611d52565b60008060408385031215611a54578081fd5b8235611a5f81611d52565b91506020830135611a6f81611d52565b809150509250929050565b600080600060608486031215611a8e578081fd5b8335611a9981611d52565b92506020840135611aa981611d52565b929592945050506040919091013590565b60008060408385031215611acc578182fd5b8235611ad781611d52565b946020939093013593505050565b600060208284031215611af6578081fd5b8151801515811461056d578182fd5b600080600060608486031215611b19578283fd5b8335611b2481611d52565b95602085013595506040909401359392505050565b600060208284031215611b4a578081fd5b5035919050565b600060208284031215611b62578081fd5b5051919050565b60008251611b7b818460208701611cd5565b9190910192915050565b6000602082528251806020840152611ba4816040850160208701611cd5565b601f01601f19169190910160400192915050565b6020808252602e908201527f496e697469616c697a61626c653a20636f6e747261637420697320616c72656160408201526d191e481a5b9a5d1a585b1a5e995960921b606082015260800190565b6020808252818101527f4f776e61626c653a2063616c6c6572206973206e6f7420746865206f776e6572604082015260600190565b6020808252602b908201527f496e697469616c697a61626c653a20636f6e7472616374206973206e6f74206960408201526a6e697469616c697a696e6760a81b606082015260800190565b60008219821115611c9957611c99611d3c565b500190565b600082611cb957634e487b7160e01b81526012600452602481fd5b500490565b600082821015611cd057611cd0611d3c565b500390565b60005b83811015611cf0578181015183820152602001611cd8565b83811115610ce05750506000910152565b600281046001821680611d1557607f821691505b60208210811415611d3657634e487b7160e01b600052602260045260246000fd5b50919050565b634e487b7160e01b600052601160045260246000fd5b6001600160a01b038116811461054b57600080fdfea2646970667358221220963c63ce894b749b7166deae60b1abb2ad96a8534920482310a0a30c821ccda764736f6c63430008020033",
  "linkReferences": {},
  "deployedLinkReferences": {}
}