{
  "_format": "hh-sol-artifact-1",
  "contractName": "MFTERC20Upg",
  "sourceName": "contracts/MFTERC20Upg.sol",
  "abi": [
    {
      "anonymous": false,
      "inputs": [
        {
          "indexed": true,
          "internalType": "address",
          "name": "owner",
          "type": "address"
        },
        {
          "indexed": true,
          "internalType": "address",
          "name": "spender",
          "type": "address"
        },
        {
          "indexed": false,
          "internalType": "uint256",
          "name": "value",
          "type": "uint256"
        }
      ],
      "name": "Approval",
      "type": "event"
    },
    {
      "anonymous": false,
      "inputs": [
        {
          "indexed": false,
          "internalType": "uint8",
          "name": "version",
          "type": "uint8"
        }
      ],
      "name": "Initialized",
      "type": "event"
    },
    {
      "anonymous": false,
      "inputs": [
        {
          "indexed": true,
          "internalType": "address",
          "name": "previousOwner",
          "type": "address"
        },
        {
          "indexed": true,
          "internalType": "address",
          "name": "newOwner",
          "type": "address"
        }
      ],
      "name": "OwnershipTransferred",
      "type": "event"
    },
    {
      "anonymous": false,
      "inputs": [
        {
          "indexed": false,
          "internalType": "address",
          "name": "account",
          "type": "address"
        }
      ],
      "name": "Paused",
      "type": "event"
    },
    {
      "anonymous": false,
      "inputs": [
        {
          "indexed": false,
          "internalType": "uint256",
          "name": "id",
          "type": "uint256"
        }
      ],
      "name": "Snapshot",
      "type": "event"
    },
    {
      "anonymous": false,
      "inputs": [
        {
          "indexed": true,
          "internalType": "address",
          "name": "from",
          "type": "address"
        },
        {
          "indexed": true,
          "internalType": "address",
          "name": "to",
          "type": "address"
        },
        {
          "indexed": false,
          "internalType": "uint256",
          "name": "value",
          "type": "uint256"
        }
      ],
      "name": "Transfer",
      "type": "event"
    },
    {
      "anonymous": false,
      "inputs": [
        {
          "indexed": false,
          "internalType": "address",
          "name": "account",
          "type": "address"
        }
      ],
      "name": "Unpaused",
      "type": "event"
    },
    {
      "inputs": [
        {
          "internalType": "address",
          "name": "owner",
          "type": "address"
        },
        {
          "internalType": "address",
          "name": "spender",
          "type": "address"
        }
      ],
      "name": "allowance",
      "outputs": [
        {
          "internalType": "uint256",
          "name": "",
          "type": "uint256"
        }
      ],
      "stateMutability": "view",
      "type": "function"
    },
    {
      "inputs": [
        {
          "internalType": "address",
          "name": "spender",
          "type": "address"
        },
        {
          "internalType": "uint256",
          "name": "amount",
          "type": "uint256"
        }
      ],
      "name": "approve",
      "outputs": [
        {
          "internalType": "bool",
          "name": "",
          "type": "bool"
        }
      ],
      "stateMutability": "nonpayable",
      "type": "function"
    },
    {
      "inputs": [
        {
          "internalType": "address",
          "name": "account",
          "type": "address"
        }
      ],
      "name": "balanceOf",
      "outputs": [
        {
          "internalType": "uint256",
          "name": "",
          "type": "uint256"
        }
      ],
      "stateMutability": "view",
      "type": "function"
    },
    {
      "inputs": [
        {
          "internalType": "address",
          "name": "account",
          "type": "address"
        },
        {
          "internalType": "uint256",
          "name": "snapshotId",
          "type": "uint256"
        }
      ],
      "name": "balanceOfAt",
      "outputs": [
        {
          "internalType": "uint256",
          "name": "",
          "type": "uint256"
        }
      ],
      "stateMutability": "view",
      "type": "function"
    },
    {
      "inputs": [
        {
          "internalType": "uint256",
          "name": "amount",
          "type": "uint256"
        }
      ],
      "name": "burn",
      "outputs": [],
      "stateMutability": "nonpayable",
      "type": "function"
    },
    {
      "inputs": [
        {
          "internalType": "address",
          "name": "account",
          "type": "address"
        },
        {
          "internalType": "uint256",
          "name": "amount",
          "type": "uint256"
        }
      ],
      "name": "burnFrom",
      "outputs": [],
      "stateMutability": "nonpayable",
      "type": "function"
    },
    {
      "inputs": [],
      "name": "decimals",
      "outputs": [
        {
          "internalType": "uint8",
          "name": "",
          "type": "uint8"
        }
      ],
      "stateMutability": "view",
      "type": "function"
    },
    {
      "inputs": [
        {
          "internalType": "address",
          "name": "spender",
          "type": "address"
        },
        {
          "internalType": "uint256",
          "name": "subtractedValue",
          "type": "uint256"
        }
      ],
      "name": "decreaseAllowance",
      "outputs": [
        {
          "internalType": "bool",
          "name": "",
          "type": "bool"
        }
      ],
      "stateMutability": "nonpayable",
      "type": "function"
    },
    {
      "inputs": [
        {
          "internalType": "address",
          "name": "spender",
          "type": "address"
        },
        {
          "internalType": "uint256",
          "name": "addedValue",
          "type": "uint256"
        }
      ],
      "name": "increaseAllowance",
      "outputs": [
        {
          "internalType": "bool",
          "name": "",
          "type": "bool"
        }
      ],
      "stateMutability": "nonpayable",
      "type": "function"
    },
    {
      "inputs": [],
      "name": "initialize",
      "outputs": [],
      "stateMutability": "nonpayable",
      "type": "function"
    },
    {
      "inputs": [],
      "name": "name",
      "outputs": [
        {
          "internalType": "string",
          "name": "",
          "type": "string"
        }
      ],
      "stateMutability": "view",
      "type": "function"
    },
    {
      "inputs": [],
      "name": "owner",
      "outputs": [
        {
          "internalType": "address",
          "name": "",
          "type": "address"
        }
      ],
      "stateMutability": "view",
      "type": "function"
    },
    {
      "inputs": [],
      "name": "pause",
      "outputs": [],
      "stateMutability": "nonpayable",
      "type": "function"
    },
    {
      "inputs": [],
      "name": "paused",
      "outputs": [
        {
          "internalType": "bool",
          "name": "",
          "type": "bool"
        }
      ],
      "stateMutability": "view",
      "type": "function"
    },
    {
      "inputs": [
        {
          "internalType": "uint256",
          "name": "amount",
          "type": "uint256"
        }
      ],
      "name": "recoverBNB",
      "outputs": [],
      "stateMutability": "nonpayable",
      "type": "function"
    },
    {
      "inputs": [
        {
          "internalType": "contract IERC20Upgradeable",
          "name": "token",
          "type": "address"
        }
      ],
      "name": "recoverTokens",
      "outputs": [],
      "stateMutability": "nonpayable",
      "type": "function"
    },
    {
      "inputs": [],
      "name": "renounceOwnership",
      "outputs": [],
      "stateMutability": "nonpayable",
      "type": "function"
    },
    {
      "inputs": [],
      "name": "snapshot",
      "outputs": [],
      "stateMutability": "nonpayable",
      "type": "function"
    },
    {
      "inputs": [],
      "name": "symbol",
      "outputs": [
        {
          "internalType": "string",
          "name": "",
          "type": "string"
        }
      ],
      "stateMutability": "view",
      "type": "function"
    },
    {
      "inputs": [],
      "name": "totalSupply",
      "outputs": [
        {
          "internalType": "uint256",
          "name": "",
          "type": "uint256"
        }
      ],
      "stateMutability": "view",
      "type": "function"
    },
    {
      "inputs": [
        {
          "internalType": "uint256",
          "name": "snapshotId",
          "type": "uint256"
        }
      ],
      "name": "totalSupplyAt",
      "outputs": [
        {
          "internalType": "uint256",
          "name": "",
          "type": "uint256"
        }
      ],
      "stateMutability": "view",
      "type": "function"
    },
    {
      "inputs": [
        {
          "internalType": "address",
          "name": "to",
          "type": "address"
        },
        {
          "internalType": "uint256",
          "name": "amount",
          "type": "uint256"
        }
      ],
      "name": "transfer",
      "outputs": [
        {
          "internalType": "bool",
          "name": "",
          "type": "bool"
        }
      ],
      "stateMutability": "nonpayable",
      "type": "function"
    },
    {
      "inputs": [
        {
          "internalType": "address",
          "name": "from",
          "type": "address"
        },
        {
          "internalType": "address",
          "name": "to",
          "type": "address"
        },
        {
          "internalType": "uint256",
          "name": "amount",
          "type": "uint256"
        }
      ],
      "name": "transferFrom",
      "outputs": [
        {
          "internalType": "bool",
          "name": "",
          "type": "bool"
        }
      ],
      "stateMutability": "nonpayable",
      "type": "function"
    },
    {
      "inputs": [
        {
          "internalType": "address",
          "name": "newOwner",
          "type": "address"
        }
      ],
      "name": "transferOwnership",
      "outputs": [],
      "stateMutability": "nonpayable",
      "type": "function"
    },
    {
      "inputs": [],
      "name": "unpause",
      "outputs": [],
      "stateMutability": "nonpayable",
      "type": "function"
    }
  ],
  "bytecode": "0x608060405234801561001057600080fd5b50611b6b806100206000396000f3fe608060405234801561001057600080fd5b50600436106101735760003560e01c8063715018a6116100de5780639711715a11610097578063a9059cbb11610071578063a9059cbb146102dd578063dd62ed3e146102f0578063f2fde38b14610303578063f603939b1461031657610173565b80639711715a146102af578063981b24d0146102b7578063a457c2d7146102ca57610173565b8063715018a61461026157806379cc6790146102695780638129fc1c1461027c5780638456cb59146102845780638da5cb5b1461028c57806395d89b41146102a757610173565b8063395093511161013057806339509351146102025780633f4ba83a1461021557806342966c681461021d5780634ee2cd7e146102305780635c975abb1461024357806370a082311461024e57610173565b806306fdde0314610178578063095ea7b31461019657806316114acd146101b957806318160ddd146101ce57806323b872dd146101e0578063313ce567146101f3575b600080fd5b610180610329565b60405161018d9190611953565b60405180910390f35b6101a96101a43660046118bc565b6103bb565b604051901515815260200161018d565b6101cc6101c7366004611828565b6103d5565b005b6035545b60405190815260200161018d565b6101a96101ee36600461187c565b610499565b6040516012815260200161018d565b6101a96102103660046118bc565b6104bf565b6101cc6104e1565b6101cc61022b366004611907565b610515565b6101d261023e3660046118bc565b61051f565b60fb5460ff166101a9565b6101d261025c366004611828565b610568565b6101cc610587565b6101cc6102773660046118bc565b6105bb565b6101cc6105d4565b6101cc6106a7565b60c9546040516001600160a01b03909116815260200161018d565b6101806106d9565b6101cc6106e8565b6101d26102c5366004611907565b61071a565b6101a96102d83660046118bc565b610745565b6101a96102eb3660046118bc565b6107cb565b6101d26102fe366004611844565b6107d9565b6101cc610311366004611828565b610804565b6101cc610324366004611907565b61089c565b60606036805461033890611acf565b80601f016020809104026020016040519081016040528092919081815260200182805461036490611acf565b80156103b15780601f10610386576101008083540402835291602001916103b1565b820191906000526020600020905b81548152906001019060200180831161039457829003601f168201915b5050505050905090565b6000336103c98185856108f3565b60019150505b92915050565b60c9546001600160a01b031633146104085760405162461bcd60e51b81526004016103ff906119d4565b60405180910390fd5b6040516370a0823160e01b81523060048201526104969033906001600160a01b038416906370a082319060240160206040518083038186803b15801561044d57600080fd5b505afa158015610461573d6000803e3d6000fd5b505050506040513d601f19601f82011682018060405250810190610485919061191f565b6001600160a01b0384169190610a17565b50565b6000336104a7858285610a6e565b6104b2858585610ae8565b60019150505b9392505050565b6000336103c98185856104d283836107d9565b6104dc9190611a54565b6108f3565b60c9546001600160a01b0316331461050b5760405162461bcd60e51b81526004016103ff906119d4565b610513610cc1565b565b6104963382610d54565b6001600160a01b038216600090815260976020526040812081908190610546908590610eae565b915091508161055d5761055885610568565b61055f565b805b95945050505050565b6001600160a01b0381166000908152603360205260409020545b919050565b60c9546001600160a01b031633146105b15760405162461bcd60e51b81526004016103ff906119d4565b6105136000610fb3565b6105c6823383610a6e565b6105d08282610d54565b5050565b60006105e06001611005565b905080156105f8576000805461ff0019166101001790555b6106426040518060400160405280600d81526020016c4d727765622046696e616e636560981b8152506040518060400160405280600381526020016213519560ea1b81525061108a565b61064a6110d8565b61065f336a52b7d2dcc80cd2e4000000611108565b8015610496576000805461ff0019169055604051600181527f7f26b83ff96e1f2b6a682f133852f6798a09c465da95921460cefb38474024989060200160405180910390a150565b60c9546001600160a01b031633146106d15760405162461bcd60e51b81526004016103ff906119d4565b6105136111f4565b60606037805461033890611acf565b60c9546001600160a01b031633146107125760405162461bcd60e51b81526004016103ff906119d4565b61049661126f565b600080600061072a846098610eae565b915091508161073b5760355461073d565b805b949350505050565b6000338161075382866107d9565b9050838110156107b35760405162461bcd60e51b815260206004820152602560248201527f45524332303a2064656372656173656420616c6c6f77616e63652062656c6f77604482015264207a65726f60d81b60648201526084016103ff565b6107c082868684036108f3565b506001949350505050565b6000336103c9818585610ae8565b6001600160a01b03918216600090815260346020908152604080832093909416825291909152205490565b60c9546001600160a01b0316331461082e5760405162461bcd60e51b81526004016103ff906119d4565b6001600160a01b0381166108935760405162461bcd60e51b815260206004820152602660248201527f4f776e61626c653a206e6577206f776e657220697320746865207a65726f206160448201526564647265737360d01b60648201526084016103ff565b61049681610fb3565b60c9546001600160a01b031633146108c65760405162461bcd60e51b81526004016103ff906119d4565b604051339082156108fc029083906000818181858888f193505050501580156105d0573d6000803e3d6000fd5b6001600160a01b0383166109555760405162461bcd60e51b8152602060048201526024808201527f45524332303a20617070726f76652066726f6d20746865207a65726f206164646044820152637265737360e01b60648201526084016103ff565b6001600160a01b0382166109b65760405162461bcd60e51b815260206004820152602260248201527f45524332303a20617070726f766520746f20746865207a65726f206164647265604482015261737360f01b60648201526084016103ff565b6001600160a01b0383811660008181526034602090815260408083209487168084529482529182902085905590518481527f8c5be1e5ebec7d5bd14f71427d1e84f3dd0314c0f7b2291e5b200ac8c7c3b925910160405180910390a3505050565b604080516001600160a01b038416602482015260448082018490528251808303909101815260649091019091526020810180516001600160e01b031663a9059cbb60e01b179052610a699084906112c9565b505050565b6000610a7a84846107d9565b90506000198114610ae25781811015610ad55760405162461bcd60e51b815260206004820152601d60248201527f45524332303a20696e73756666696369656e7420616c6c6f77616e636500000060448201526064016103ff565b610ae284848484036108f3565b50505050565b6001600160a01b038316610b4c5760405162461bcd60e51b815260206004820152602560248201527f45524332303a207472616e736665722066726f6d20746865207a65726f206164604482015264647265737360d81b60648201526084016103ff565b6001600160a01b038216610bae5760405162461bcd60e51b815260206004820152602360248201527f45524332303a207472616e7366657220746f20746865207a65726f206164647260448201526265737360e81b60648201526084016103ff565b610bb983838361139b565b6001600160a01b03831660009081526033602052604090205481811015610c315760405162461bcd60e51b815260206004820152602660248201527f45524332303a207472616e7366657220616d6f756e7420657863656564732062604482015265616c616e636560d01b60648201526084016103ff565b6001600160a01b03808516600090815260336020526040808220858503905591851681529081208054849290610c68908490611a54565b92505081905550826001600160a01b0316846001600160a01b03167fddf252ad1be2c89b69c2b068fc378daa952ba7f163c4a11628f55a4df523b3ef84604051610cb491815260200190565b60405180910390a3610ae2565b60fb5460ff16610d0a5760405162461bcd60e51b815260206004820152601460248201527314185d5cd8589b194e881b9bdd081c185d5cd95960621b60448201526064016103ff565b60fb805460ff191690557f5db9ee0a495bf2e6ff9c91a7834c1ba4fdd244a5e8aa4e537bd38aeae4b073aa335b6040516001600160a01b03909116815260200160405180910390a1565b6001600160a01b038216610db45760405162461bcd60e51b815260206004820152602160248201527f45524332303a206275726e2066726f6d20746865207a65726f206164647265736044820152607360f81b60648201526084016103ff565b610dc08260008361139b565b6001600160a01b03821660009081526033602052604090205481811015610e345760405162461bcd60e51b815260206004820152602260248201527f45524332303a206275726e20616d6f756e7420657863656564732062616c616e604482015261636560f01b60648201526084016103ff565b6001600160a01b0383166000908152603360205260408120838303905560358054849290610e63908490611a8c565b90915550506040518281526000906001600160a01b038516907fddf252ad1be2c89b69c2b068fc378daa952ba7f163c4a11628f55a4df523b3ef9060200160405180910390a3610a69565b60008060008411610efa5760405162461bcd60e51b815260206004820152601660248201527504552433230536e617073686f743a20696420697320360541b60448201526064016103ff565b610f026113ec565b841115610f515760405162461bcd60e51b815260206004820152601d60248201527f4552433230536e617073686f743a206e6f6e6578697374656e7420696400000060448201526064016103ff565b6000610f5d84866113fc565b8454909150811415610f76576000809250925050610fac565b6001846001018281548110610f9b57634e487b7160e01b600052603260045260246000fd5b906000526020600020015492509250505b9250929050565b60c980546001600160a01b038381166001600160a01b0319831681179093556040519116919082907f8be0079c531659141344cd1fd0a4f28419497f9722a3daafe3b4186f6b6457e090600090a35050565b60008054610100900460ff161561104c578160ff1660011480156110285750303b155b6110445760405162461bcd60e51b81526004016103ff90611986565b506000610582565b60005460ff8084169116106110735760405162461bcd60e51b81526004016103ff90611986565b506000805460ff191660ff83161790556001610582565b600054610100900460ff166110b15760405162461bcd60e51b81526004016103ff90611a09565b81516110c490603690602085019061178f565b508051610a6990603790602084019061178f565b600054610100900460ff166110ff5760405162461bcd60e51b81526004016103ff90611a09565b61051333610fb3565b6001600160a01b03821661115e5760405162461bcd60e51b815260206004820152601f60248201527f45524332303a206d696e7420746f20746865207a65726f20616464726573730060448201526064016103ff565b61116a6000838361139b565b806035600082825461117c9190611a54565b90915550506001600160a01b038216600090815260336020526040812080548392906111a9908490611a54565b90915550506040518181526001600160a01b038316906000907fddf252ad1be2c89b69c2b068fc378daa952ba7f163c4a11628f55a4df523b3ef9060200160405180910390a36105d0565b60fb5460ff161561123a5760405162461bcd60e51b815260206004820152601060248201526f14185d5cd8589b194e881c185d5cd95960821b60448201526064016103ff565b60fb805460ff191660011790557f62e78cea01bee320cd4e420270b5ea74000d11b0c9f74754ebdbfc544b05a258610d373390565b600061127f609a80546001019055565b60006112896113ec565b90507f8030e83b04d87bef53480e26263266d6ca66863aa8506aca6f2559d18aa1cb67816040516112bc91815260200190565b60405180910390a1905090565b600061131e826040518060400160405280602081526020017f5361666545524332303a206c6f772d6c6576656c2063616c6c206661696c6564815250856001600160a01b03166114db9092919063ffffffff16565b805190915015610a69578080602001905181019061133c91906118e7565b610a695760405162461bcd60e51b815260206004820152602a60248201527f5361666545524332303a204552433230206f7065726174696f6e20646964206e6044820152691bdd081cdd58d8d9595960b21b60648201526084016103ff565b60fb5460ff16156113e15760405162461bcd60e51b815260206004820152601060248201526f14185d5cd8589b194e881c185d5cd95960821b60448201526064016103ff565b610a698383836114ea565b60006113f7609a5490565b905090565b815460009061140d575060006103cf565b82546000905b808210156114775760006114278383611537565b90508486828154811061144a57634e487b7160e01b600052603260045260246000fd5b9060005260206000200154111561146357809150611471565b61146e816001611a54565b92505b50611413565b6000821180156114ba5750838561148f600185611a8c565b815481106114ad57634e487b7160e01b600052603260045260246000fd5b9060005260206000200154145b156114d3576114ca600183611a8c565b925050506103cf565b5090506103cf565b606061073d8484600085611552565b6001600160a01b03831661150e5761150182611683565b6115096116ad565b610a69565b6001600160a01b0382166115255761150183611683565b61152e83611683565b610a6982611683565b60006115466002848418611a6c565b6104b890848416611a54565b6060824710156115b35760405162461bcd60e51b815260206004820152602660248201527f416464726573733a20696e73756666696369656e742062616c616e636520666f6044820152651c8818d85b1b60d21b60648201526084016103ff565b6001600160a01b0385163b61160a5760405162461bcd60e51b815260206004820152601d60248201527f416464726573733a2063616c6c20746f206e6f6e2d636f6e747261637400000060448201526064016103ff565b600080866001600160a01b031685876040516116269190611937565b60006040518083038185875af1925050503d8060008114611663576040519150601f19603f3d011682016040523d82523d6000602084013e611668565b606091505b50915091506116788282866116bb565b979650505050505050565b6001600160a01b0381166000908152609760205260409020610496906116a883610568565b6116f4565b61051360986116a860355490565b606083156116ca5750816104b8565b8251156116da5782518084602001fd5b8160405162461bcd60e51b81526004016103ff9190611953565b60006116fe6113ec565b90508061170a8461173e565b1015610a69578254600180820185556000858152602080822090930193909355938401805494850181558252902090910155565b805460009061174f57506000610582565b8154829061175f90600190611a8c565b8154811061177d57634e487b7160e01b600052603260045260246000fd5b90600052602060002001549050610582565b82805461179b90611acf565b90600052602060002090601f0160209004810192826117bd5760008555611803565b82601f106117d657805160ff1916838001178555611803565b82800160010185558215611803579182015b828111156118035782518255916020019190600101906117e8565b5061180f929150611813565b5090565b5b8082111561180f5760008155600101611814565b600060208284031215611839578081fd5b81356104b881611b20565b60008060408385031215611856578081fd5b823561186181611b20565b9150602083013561187181611b20565b809150509250929050565b600080600060608486031215611890578081fd5b833561189b81611b20565b925060208401356118ab81611b20565b929592945050506040919091013590565b600080604083850312156118ce578182fd5b82356118d981611b20565b946020939093013593505050565b6000602082840312156118f8578081fd5b815180151581146104b8578182fd5b600060208284031215611918578081fd5b5035919050565b600060208284031215611930578081fd5b5051919050565b60008251611949818460208701611aa3565b9190910192915050565b6000602082528251806020840152611972816040850160208701611aa3565b601f01601f19169190910160400192915050565b6020808252602e908201527f496e697469616c697a61626c653a20636f6e747261637420697320616c72656160408201526d191e481a5b9a5d1a585b1a5e995960921b606082015260800190565b6020808252818101527f4f776e61626c653a2063616c6c6572206973206e6f7420746865206f776e6572604082015260600190565b6020808252602b908201527f496e697469616c697a61626c653a20636f6e7472616374206973206e6f74206960408201526a6e697469616c697a696e6760a81b606082015260800190565b60008219821115611a6757611a67611b0a565b500190565b600082611a8757634e487b7160e01b81526012600452602481fd5b500490565b600082821015611a9e57611a9e611b0a565b500390565b60005b83811015611abe578181015183820152602001611aa6565b83811115610ae25750506000910152565b600281046001821680611ae357607f821691505b60208210811415611b0457634e487b7160e01b600052602260045260246000fd5b50919050565b634e487b7160e01b600052601160045260246000fd5b6001600160a01b038116811461049657600080fdfea2646970667358221220f47e64db8122fb225d6b887d549a0ae94398926e8d49f941bf55da768076bddf64736f6c63430008020033",
  "linkReferences": {},
  "deployedLinkReferences": {}
}