{
  "_format": "hh-sol-artifact-1",
  "contractName": "MFTERC20Pausable",
  "sourceName": "contracts/MFTERC20Pausable.sol",
  "abi": [
    {
      "inputs": [],
      "stateMutability": "nonpayable",
      "type": "constructor"
    },
    {
      "anonymous": false,
      "inputs": [
        {
          "indexed": true,
          "internalType": "address",
          "name": "owner",
          "type": "address"
        },
        {
          "indexed": true,
          "internalType": "address",
          "name": "spender",
          "type": "address"
        },
        {
          "indexed": false,
          "internalType": "uint256",
          "name": "value",
          "type": "uint256"
        }
      ],
      "name": "Approval",
      "type": "event"
    },
    {
      "anonymous": false,
      "inputs": [
        {
          "indexed": true,
          "internalType": "address",
          "name": "previousOwner",
          "type": "address"
        },
        {
          "indexed": true,
          "internalType": "address",
          "name": "newOwner",
          "type": "address"
        }
      ],
      "name": "OwnershipTransferred",
      "type": "event"
    },
    {
      "anonymous": false,
      "inputs": [
        {
          "indexed": false,
          "internalType": "address",
          "name": "account",
          "type": "address"
        }
      ],
      "name": "Paused",
      "type": "event"
    },
    {
      "anonymous": false,
      "inputs": [
        {
          "indexed": false,
          "internalType": "uint256",
          "name": "id",
          "type": "uint256"
        }
      ],
      "name": "Snapshot",
      "type": "event"
    },
    {
      "anonymous": false,
      "inputs": [
        {
          "indexed": true,
          "internalType": "address",
          "name": "from",
          "type": "address"
        },
        {
          "indexed": true,
          "internalType": "address",
          "name": "to",
          "type": "address"
        },
        {
          "indexed": false,
          "internalType": "uint256",
          "name": "value",
          "type": "uint256"
        }
      ],
      "name": "Transfer",
      "type": "event"
    },
    {
      "anonymous": false,
      "inputs": [
        {
          "indexed": false,
          "internalType": "address",
          "name": "account",
          "type": "address"
        }
      ],
      "name": "Unpaused",
      "type": "event"
    },
    {
      "inputs": [
        {
          "internalType": "address",
          "name": "owner",
          "type": "address"
        },
        {
          "internalType": "address",
          "name": "spender",
          "type": "address"
        }
      ],
      "name": "allowance",
      "outputs": [
        {
          "internalType": "uint256",
          "name": "",
          "type": "uint256"
        }
      ],
      "stateMutability": "view",
      "type": "function"
    },
    {
      "inputs": [
        {
          "internalType": "address",
          "name": "spender",
          "type": "address"
        },
        {
          "internalType": "uint256",
          "name": "amount",
          "type": "uint256"
        }
      ],
      "name": "approve",
      "outputs": [
        {
          "internalType": "bool",
          "name": "",
          "type": "bool"
        }
      ],
      "stateMutability": "nonpayable",
      "type": "function"
    },
    {
      "inputs": [
        {
          "internalType": "address",
          "name": "account",
          "type": "address"
        }
      ],
      "name": "balanceOf",
      "outputs": [
        {
          "internalType": "uint256",
          "name": "",
          "type": "uint256"
        }
      ],
      "stateMutability": "view",
      "type": "function"
    },
    {
      "inputs": [
        {
          "internalType": "address",
          "name": "account",
          "type": "address"
        },
        {
          "internalType": "uint256",
          "name": "snapshotId",
          "type": "uint256"
        }
      ],
      "name": "balanceOfAt",
      "outputs": [
        {
          "internalType": "uint256",
          "name": "",
          "type": "uint256"
        }
      ],
      "stateMutability": "view",
      "type": "function"
    },
    {
      "inputs": [
        {
          "internalType": "uint256",
          "name": "amount",
          "type": "uint256"
        }
      ],
      "name": "burn",
      "outputs": [],
      "stateMutability": "nonpayable",
      "type": "function"
    },
    {
      "inputs": [
        {
          "internalType": "address",
          "name": "account",
          "type": "address"
        },
        {
          "internalType": "uint256",
          "name": "amount",
          "type": "uint256"
        }
      ],
      "name": "burnFrom",
      "outputs": [],
      "stateMutability": "nonpayable",
      "type": "function"
    },
    {
      "inputs": [],
      "name": "decimals",
      "outputs": [
        {
          "internalType": "uint8",
          "name": "",
          "type": "uint8"
        }
      ],
      "stateMutability": "view",
      "type": "function"
    },
    {
      "inputs": [
        {
          "internalType": "address",
          "name": "spender",
          "type": "address"
        },
        {
          "internalType": "uint256",
          "name": "subtractedValue",
          "type": "uint256"
        }
      ],
      "name": "decreaseAllowance",
      "outputs": [
        {
          "internalType": "bool",
          "name": "",
          "type": "bool"
        }
      ],
      "stateMutability": "nonpayable",
      "type": "function"
    },
    {
      "inputs": [
        {
          "internalType": "address",
          "name": "spender",
          "type": "address"
        },
        {
          "internalType": "uint256",
          "name": "addedValue",
          "type": "uint256"
        }
      ],
      "name": "increaseAllowance",
      "outputs": [
        {
          "internalType": "bool",
          "name": "",
          "type": "bool"
        }
      ],
      "stateMutability": "nonpayable",
      "type": "function"
    },
    {
      "inputs": [],
      "name": "name",
      "outputs": [
        {
          "internalType": "string",
          "name": "",
          "type": "string"
        }
      ],
      "stateMutability": "view",
      "type": "function"
    },
    {
      "inputs": [],
      "name": "owner",
      "outputs": [
        {
          "internalType": "address",
          "name": "",
          "type": "address"
        }
      ],
      "stateMutability": "view",
      "type": "function"
    },
    {
      "inputs": [],
      "name": "pause",
      "outputs": [],
      "stateMutability": "nonpayable",
      "type": "function"
    },
    {
      "inputs": [],
      "name": "paused",
      "outputs": [
        {
          "internalType": "bool",
          "name": "",
          "type": "bool"
        }
      ],
      "stateMutability": "view",
      "type": "function"
    },
    {
      "inputs": [
        {
          "internalType": "uint256",
          "name": "amount",
          "type": "uint256"
        }
      ],
      "name": "recoverBNB",
      "outputs": [],
      "stateMutability": "nonpayable",
      "type": "function"
    },
    {
      "inputs": [
        {
          "internalType": "contract IERC20",
          "name": "token",
          "type": "address"
        }
      ],
      "name": "recoverTokens",
      "outputs": [],
      "stateMutability": "nonpayable",
      "type": "function"
    },
    {
      "inputs": [],
      "name": "renounceOwnership",
      "outputs": [],
      "stateMutability": "nonpayable",
      "type": "function"
    },
    {
      "inputs": [],
      "name": "snapshot",
      "outputs": [],
      "stateMutability": "nonpayable",
      "type": "function"
    },
    {
      "inputs": [],
      "name": "symbol",
      "outputs": [
        {
          "internalType": "string",
          "name": "",
          "type": "string"
        }
      ],
      "stateMutability": "view",
      "type": "function"
    },
    {
      "inputs": [],
      "name": "totalSupply",
      "outputs": [
        {
          "internalType": "uint256",
          "name": "",
          "type": "uint256"
        }
      ],
      "stateMutability": "view",
      "type": "function"
    },
    {
      "inputs": [
        {
          "internalType": "uint256",
          "name": "snapshotId",
          "type": "uint256"
        }
      ],
      "name": "totalSupplyAt",
      "outputs": [
        {
          "internalType": "uint256",
          "name": "",
          "type": "uint256"
        }
      ],
      "stateMutability": "view",
      "type": "function"
    },
    {
      "inputs": [
        {
          "internalType": "address",
          "name": "to",
          "type": "address"
        },
        {
          "internalType": "uint256",
          "name": "amount",
          "type": "uint256"
        }
      ],
      "name": "transfer",
      "outputs": [
        {
          "internalType": "bool",
          "name": "",
          "type": "bool"
        }
      ],
      "stateMutability": "nonpayable",
      "type": "function"
    },
    {
      "inputs": [
        {
          "internalType": "address",
          "name": "from",
          "type": "address"
        },
        {
          "internalType": "address",
          "name": "to",
          "type": "address"
        },
        {
          "internalType": "uint256",
          "name": "amount",
          "type": "uint256"
        }
      ],
      "name": "transferFrom",
      "outputs": [
        {
          "internalType": "bool",
          "name": "",
          "type": "bool"
        }
      ],
      "stateMutability": "nonpayable",
      "type": "function"
    },
    {
      "inputs": [
        {
          "internalType": "address",
          "name": "newOwner",
          "type": "address"
        }
      ],
      "name": "transferOwnership",
      "outputs": [],
      "stateMutability": "nonpayable",
      "type": "function"
    },
    {
      "inputs": [],
      "name": "unpause",
      "outputs": [],
      "stateMutability": "nonpayable",
      "type": "function"
    }
  ],
  "bytecode": "0x60806040523480156200001157600080fd5b506040518060400160405280600d81526020016c4d727765622046696e616e636560981b8152506040518060400160405280600381526020016213519560ea1b81525081600390805190602001906200006c92919062000420565b5080516200008290600490602084019062000420565b5050506200009f62000099620000c960201b60201c565b620000cd565b6009805460ff60a01b19169055620000c3336a52b7d2dcc80cd2e40000006200011f565b6200054e565b3390565b600980546001600160a01b038381166001600160a01b0319831681179093556040519116919082907f8be0079c531659141344cd1fd0a4f28419497f9722a3daafe3b4186f6b6457e090600090a35050565b6001600160a01b0382166200017b5760405162461bcd60e51b815260206004820152601f60248201527f45524332303a206d696e7420746f20746865207a65726f20616464726573730060448201526064015b60405180910390fd5b620001896000838362000216565b80600260008282546200019d9190620004c6565b90915550506001600160a01b03821660009081526020819052604081208054839290620001cc908490620004c6565b90915550506040518181526001600160a01b038316906000907fddf252ad1be2c89b69c2b068fc378daa952ba7f163c4a11628f55a4df523b3ef9060200160405180910390a35050565b6200022a600954600160a01b900460ff1690565b156200026c5760405162461bcd60e51b815260206004820152601060248201526f14185d5cd8589b194e881c185d5cd95960821b604482015260640162000172565b620002848383836200028960201b620008051760201c565b505050565b620002a18383836200028460201b620008521760201c565b6001600160a01b038316620002cb57620002bb82620002f6565b620002c562000327565b62000284565b6001600160a01b038216620002e557620002bb83620002f6565b620002f083620002f6565b62000284825b6001600160a01b038116600090815260056020526040902062000324906200031e8362000339565b62000358565b50565b6200033760066200031e60025490565b565b6001600160a01b0381166000908152602081905260409020545b919050565b600062000364620003a7565b9050806200037284620003c5565b101562000284578254600180820185556000858152602080822090930193909355938401805494850181558252902090910155565b6000620003c060086200041c60201b620008571760201c565b905090565b8054600090620003d85750600062000353565b81548290620003ea90600190620004e1565b815481106200040957634e487b7160e01b600052603260045260246000fd5b9060005260206000200154905062000353565b5490565b8280546200042e90620004fb565b90600052602060002090601f0160209004810192826200045257600085556200049d565b82601f106200046d57805160ff19168380011785556200049d565b828001600101855582156200049d579182015b828111156200049d57825182559160200191906001019062000480565b50620004ab929150620004af565b5090565b5b80821115620004ab5760008155600101620004b0565b60008219821115620004dc57620004dc62000538565b500190565b600082821015620004f657620004f662000538565b500390565b6002810460018216806200051057607f821691505b602082108114156200053257634e487b7160e01b600052602260045260246000fd5b50919050565b634e487b7160e01b600052601160045260246000fd5b611790806200055e6000396000f3fe608060405234801561001057600080fd5b50600436106101585760003560e01c8063715018a6116100c3578063981b24d01161007c578063981b24d01461029c578063a457c2d7146102af578063a9059cbb146102c2578063dd62ed3e146102d5578063f2fde38b146102e8578063f603939b146102fb57610158565b8063715018a61461024e57806379cc6790146102565780638456cb59146102695780638da5cb5b1461027157806395d89b411461028c5780639711715a1461029457610158565b8063395093511161011557806339509351146101e75780633f4ba83a146101fa57806342966c68146102025780634ee2cd7e146102155780635c975abb1461022857806370a082311461023b57610158565b806306fdde031461015d578063095ea7b31461017b57806316114acd1461019e57806318160ddd146101b357806323b872dd146101c5578063313ce567146101d8575b600080fd5b61016561030e565b6040516101729190611611565b60405180910390f35b61018e61018936600461157a565b6103a0565b6040519015158152602001610172565b6101b16101ac3660046114e6565b6103ba565b005b6002545b604051908152602001610172565b61018e6101d336600461153a565b61047e565b60405160128152602001610172565b61018e6101f536600461157a565b6104a4565b6101b16104c6565b6101b16102103660046115c5565b6104fa565b6101b761022336600461157a565b610504565b61018e600954600160a01b900460ff1690565b6101b76102493660046114e6565b61054d565b6101b161056c565b6101b161026436600461157a565b6105a0565b6101b16105b9565b6009546040516001600160a01b039091168152602001610172565b6101656105eb565b6101b16105fa565b6101b76102aa3660046115c5565b61062c565b61018e6102bd36600461157a565b610657565b61018e6102d036600461157a565b6106dd565b6101b76102e3366004611502565b6106eb565b6101b16102f63660046114e6565b610716565b6101b16103093660046115c5565b6107ae565b60606003805461031d906116f4565b80601f0160208091040260200160405190810160405280929190818152602001828054610349906116f4565b80156103965780601f1061036b57610100808354040283529160200191610396565b820191906000526020600020905b81548152906001019060200180831161037957829003601f168201915b5050505050905090565b6000336103ae81858561085b565b60019150505b92915050565b6009546001600160a01b031633146103ed5760405162461bcd60e51b81526004016103e490611644565b60405180910390fd5b6040516370a0823160e01b815230600482015261047b9033906001600160a01b038416906370a082319060240160206040518083038186803b15801561043257600080fd5b505afa158015610446573d6000803e3d6000fd5b505050506040513d601f19601f8201168201806040525081019061046a91906115dd565b6001600160a01b038416919061097f565b50565b60003361048c8582856109d1565b610497858585610a4b565b60019150505b9392505050565b6000336103ae8185856104b783836106eb565b6104c19190611679565b61085b565b6009546001600160a01b031633146104f05760405162461bcd60e51b81526004016103e490611644565b6104f8610c24565b565b61047b3382610cc7565b6001600160a01b03821660009081526005602052604081208190819061052b908590610e21565b91509150816105425761053d8561054d565b610544565b805b95945050505050565b6001600160a01b0381166000908152602081905260409020545b919050565b6009546001600160a01b031633146105965760405162461bcd60e51b81526004016103e490611644565b6104f86000610f26565b6105ab8233836109d1565b6105b58282610cc7565b5050565b6009546001600160a01b031633146105e35760405162461bcd60e51b81526004016103e490611644565b6104f8610f78565b60606004805461031d906116f4565b6009546001600160a01b031633146106245760405162461bcd60e51b81526004016103e490611644565b61047b611006565b600080600061063c846006610e21565b915091508161064d5760025461064f565b805b949350505050565b6000338161066582866106eb565b9050838110156106c55760405162461bcd60e51b815260206004820152602560248201527f45524332303a2064656372656173656420616c6c6f77616e63652062656c6f77604482015264207a65726f60d81b60648201526084016103e4565b6106d2828686840361085b565b506001949350505050565b6000336103ae818585610a4b565b6001600160a01b03918216600090815260016020908152604080832093909416825291909152205490565b6009546001600160a01b031633146107405760405162461bcd60e51b81526004016103e490611644565b6001600160a01b0381166107a55760405162461bcd60e51b815260206004820152602660248201527f4f776e61626c653a206e6577206f776e657220697320746865207a65726f206160448201526564647265737360d01b60648201526084016103e4565b61047b81610f26565b6009546001600160a01b031633146107d85760405162461bcd60e51b81526004016103e490611644565b604051339082156108fc029083906000818181858888f193505050501580156105b5573d6000803e3d6000fd5b6001600160a01b0383166108295761081c82611060565b61082461108a565b610852565b6001600160a01b0382166108405761081c83611060565b61084983611060565b61085282611060565b505050565b5490565b6001600160a01b0383166108bd5760405162461bcd60e51b8152602060048201526024808201527f45524332303a20617070726f76652066726f6d20746865207a65726f206164646044820152637265737360e01b60648201526084016103e4565b6001600160a01b03821661091e5760405162461bcd60e51b815260206004820152602260248201527f45524332303a20617070726f766520746f20746865207a65726f206164647265604482015261737360f01b60648201526084016103e4565b6001600160a01b0383811660008181526001602090815260408083209487168084529482529182902085905590518481527f8c5be1e5ebec7d5bd14f71427d1e84f3dd0314c0f7b2291e5b200ac8c7c3b925910160405180910390a3505050565b604080516001600160a01b038416602482015260448082018490528251808303909101815260649091019091526020810180516001600160e01b031663a9059cbb60e01b179052610852908490611098565b60006109dd84846106eb565b90506000198114610a455781811015610a385760405162461bcd60e51b815260206004820152601d60248201527f45524332303a20696e73756666696369656e7420616c6c6f77616e636500000060448201526064016103e4565b610a45848484840361085b565b50505050565b6001600160a01b038316610aaf5760405162461bcd60e51b815260206004820152602560248201527f45524332303a207472616e736665722066726f6d20746865207a65726f206164604482015264647265737360d81b60648201526084016103e4565b6001600160a01b038216610b115760405162461bcd60e51b815260206004820152602360248201527f45524332303a207472616e7366657220746f20746865207a65726f206164647260448201526265737360e81b60648201526084016103e4565b610b1c83838361116a565b6001600160a01b03831660009081526020819052604090205481811015610b945760405162461bcd60e51b815260206004820152602660248201527f45524332303a207472616e7366657220616d6f756e7420657863656564732062604482015265616c616e636560d01b60648201526084016103e4565b6001600160a01b03808516600090815260208190526040808220858503905591851681529081208054849290610bcb908490611679565b92505081905550826001600160a01b0316846001600160a01b03167fddf252ad1be2c89b69c2b068fc378daa952ba7f163c4a11628f55a4df523b3ef84604051610c1791815260200190565b60405180910390a3610a45565b610c37600954600160a01b900460ff1690565b610c7a5760405162461bcd60e51b815260206004820152601460248201527314185d5cd8589b194e881b9bdd081c185d5cd95960621b60448201526064016103e4565b6009805460ff60a01b191690557f5db9ee0a495bf2e6ff9c91a7834c1ba4fdd244a5e8aa4e537bd38aeae4b073aa335b6040516001600160a01b03909116815260200160405180910390a1565b6001600160a01b038216610d275760405162461bcd60e51b815260206004820152602160248201527f45524332303a206275726e2066726f6d20746865207a65726f206164647265736044820152607360f81b60648201526084016103e4565b610d338260008361116a565b6001600160a01b03821660009081526020819052604090205481811015610da75760405162461bcd60e51b815260206004820152602260248201527f45524332303a206275726e20616d6f756e7420657863656564732062616c616e604482015261636560f01b60648201526084016103e4565b6001600160a01b0383166000908152602081905260408120838303905560028054849290610dd69084906116b1565b90915550506040518281526000906001600160a01b038516907fddf252ad1be2c89b69c2b068fc378daa952ba7f163c4a11628f55a4df523b3ef9060200160405180910390a3610852565b60008060008411610e6d5760405162461bcd60e51b815260206004820152601660248201527504552433230536e617073686f743a20696420697320360541b60448201526064016103e4565b610e756111c8565b841115610ec45760405162461bcd60e51b815260206004820152601d60248201527f4552433230536e617073686f743a206e6f6e6578697374656e7420696400000060448201526064016103e4565b6000610ed084866111d8565b8454909150811415610ee9576000809250925050610f1f565b6001846001018281548110610f0e57634e487b7160e01b600052603260045260246000fd5b906000526020600020015492509250505b9250929050565b600980546001600160a01b038381166001600160a01b0319831681179093556040519116919082907f8be0079c531659141344cd1fd0a4f28419497f9722a3daafe3b4186f6b6457e090600090a35050565b610f8b600954600160a01b900460ff1690565b15610fcb5760405162461bcd60e51b815260206004820152601060248201526f14185d5cd8589b194e881c185d5cd95960821b60448201526064016103e4565b6009805460ff60a01b1916600160a01b1790557f62e78cea01bee320cd4e420270b5ea74000d11b0c9f74754ebdbfc544b05a258610caa3390565b6000611016600880546001019055565b60006110206111c8565b90507f8030e83b04d87bef53480e26263266d6ca66863aa8506aca6f2559d18aa1cb678160405161105391815260200190565b60405180910390a1905090565b6001600160a01b038116600090815260056020526040902061047b906110858361054d565b6112b7565b6104f8600661108560025490565b60006110ed826040518060400160405280602081526020017f5361666545524332303a206c6f772d6c6576656c2063616c6c206661696c6564815250856001600160a01b03166113019092919063ffffffff16565b805190915015610852578080602001905181019061110b91906115a5565b6108525760405162461bcd60e51b815260206004820152602a60248201527f5361666545524332303a204552433230206f7065726174696f6e20646964206e6044820152691bdd081cdd58d8d9595960b21b60648201526084016103e4565b61117d600954600160a01b900460ff1690565b156111bd5760405162461bcd60e51b815260206004820152601060248201526f14185d5cd8589b194e881c185d5cd95960821b60448201526064016103e4565b610852838383610805565b60006111d360085490565b905090565b81546000906111e9575060006103b4565b82546000905b808210156112535760006112038383611310565b90508486828154811061122657634e487b7160e01b600052603260045260246000fd5b9060005260206000200154111561123f5780915061124d565b61124a816001611679565b92505b506111ef565b6000821180156112965750838561126b6001856116b1565b8154811061128957634e487b7160e01b600052603260045260246000fd5b9060005260206000200154145b156112af576112a66001836116b1565b925050506103b4565b5090506103b4565b60006112c16111c8565b9050806112cd8461132b565b1015610852578254600180820185556000858152602080822090930193909355938401805494850181558252902090910155565b606061064f848460008561137c565b600061131f6002848418611691565b61049d90848416611679565b805460009061133c57506000610567565b8154829061134c906001906116b1565b8154811061136a57634e487b7160e01b600052603260045260246000fd5b90600052602060002001549050610567565b6060824710156113dd5760405162461bcd60e51b815260206004820152602660248201527f416464726573733a20696e73756666696369656e742062616c616e636520666f6044820152651c8818d85b1b60d21b60648201526084016103e4565b6001600160a01b0385163b6114345760405162461bcd60e51b815260206004820152601d60248201527f416464726573733a2063616c6c20746f206e6f6e2d636f6e747261637400000060448201526064016103e4565b600080866001600160a01b0316858760405161145091906115f5565b60006040518083038185875af1925050503d806000811461148d576040519150601f19603f3d011682016040523d82523d6000602084013e611492565b606091505b50915091506114a28282866114ad565b979650505050505050565b606083156114bc57508161049d565b8251156114cc5782518084602001fd5b8160405162461bcd60e51b81526004016103e49190611611565b6000602082840312156114f7578081fd5b813561049d81611745565b60008060408385031215611514578081fd5b823561151f81611745565b9150602083013561152f81611745565b809150509250929050565b60008060006060848603121561154e578081fd5b833561155981611745565b9250602084013561156981611745565b929592945050506040919091013590565b6000806040838503121561158c578182fd5b823561159781611745565b946020939093013593505050565b6000602082840312156115b6578081fd5b8151801515811461049d578182fd5b6000602082840312156115d6578081fd5b5035919050565b6000602082840312156115ee578081fd5b5051919050565b600082516116078184602087016116c8565b9190910192915050565b60006020825282518060208401526116308160408501602087016116c8565b601f01601f19169190910160400192915050565b6020808252818101527f4f776e61626c653a2063616c6c6572206973206e6f7420746865206f776e6572604082015260600190565b6000821982111561168c5761168c61172f565b500190565b6000826116ac57634e487b7160e01b81526012600452602481fd5b500490565b6000828210156116c3576116c361172f565b500390565b60005b838110156116e35781810151838201526020016116cb565b83811115610a455750506000910152565b60028104600182168061170857607f821691505b6020821081141561172957634e487b7160e01b600052602260045260246000fd5b50919050565b634e487b7160e01b600052601160045260246000fd5b6001600160a01b038116811461047b57600080fdfea26469706673582212207b38c9a00e8907ec1f3aeba840d3c9acd1a899de3971b8838a66054a7dfe07b964736f6c63430008020033",
  "linkReferences": {},
  "deployedLinkReferences": {}
}