{
  "_format": "hh-sol-artifact-1",
  "contractName": "MFTERC20",
  "sourceName": "contracts/MFTERC20.sol",
  "abi": [
    {
      "inputs": [],
      "stateMutability": "nonpayable",
      "type": "constructor"
    },
    {
      "anonymous": false,
      "inputs": [
        {
          "indexed": true,
          "internalType": "address",
          "name": "owner",
          "type": "address"
        },
        {
          "indexed": true,
          "internalType": "address",
          "name": "spender",
          "type": "address"
        },
        {
          "indexed": false,
          "internalType": "uint256",
          "name": "value",
          "type": "uint256"
        }
      ],
      "name": "Approval",
      "type": "event"
    },
    {
      "anonymous": false,
      "inputs": [
        {
          "indexed": false,
          "internalType": "address",
          "name": "oldOwner",
          "type": "address"
        },
        {
          "indexed": false,
          "internalType": "address",
          "name": "newOwner",
          "type": "address"
        }
      ],
      "name": "OwnerChanged",
      "type": "event"
    },
    {
      "anonymous": false,
      "inputs": [
        {
          "indexed": false,
          "internalType": "address",
          "name": "newOwner",
          "type": "address"
        }
      ],
      "name": "OwnerNominated",
      "type": "event"
    },
    {
      "anonymous": false,
      "inputs": [
        {
          "indexed": false,
          "internalType": "uint256",
          "name": "id",
          "type": "uint256"
        }
      ],
      "name": "Snapshot",
      "type": "event"
    },
    {
      "anonymous": false,
      "inputs": [
        {
          "indexed": true,
          "internalType": "address",
          "name": "from",
          "type": "address"
        },
        {
          "indexed": true,
          "internalType": "address",
          "name": "to",
          "type": "address"
        },
        {
          "indexed": false,
          "internalType": "uint256",
          "name": "value",
          "type": "uint256"
        }
      ],
      "name": "Transfer",
      "type": "event"
    },
    {
      "inputs": [],
      "name": "acceptOwnership",
      "outputs": [],
      "stateMutability": "nonpayable",
      "type": "function"
    },
    {
      "inputs": [
        {
          "internalType": "address",
          "name": "owner",
          "type": "address"
        },
        {
          "internalType": "address",
          "name": "spender",
          "type": "address"
        }
      ],
      "name": "allowance",
      "outputs": [
        {
          "internalType": "uint256",
          "name": "",
          "type": "uint256"
        }
      ],
      "stateMutability": "view",
      "type": "function"
    },
    {
      "inputs": [
        {
          "internalType": "address",
          "name": "spender",
          "type": "address"
        },
        {
          "internalType": "uint256",
          "name": "amount",
          "type": "uint256"
        }
      ],
      "name": "approve",
      "outputs": [
        {
          "internalType": "bool",
          "name": "",
          "type": "bool"
        }
      ],
      "stateMutability": "nonpayable",
      "type": "function"
    },
    {
      "inputs": [
        {
          "internalType": "address",
          "name": "account",
          "type": "address"
        }
      ],
      "name": "balanceOf",
      "outputs": [
        {
          "internalType": "uint256",
          "name": "",
          "type": "uint256"
        }
      ],
      "stateMutability": "view",
      "type": "function"
    },
    {
      "inputs": [
        {
          "internalType": "address",
          "name": "account",
          "type": "address"
        },
        {
          "internalType": "uint256",
          "name": "snapshotId",
          "type": "uint256"
        }
      ],
      "name": "balanceOfAt",
      "outputs": [
        {
          "internalType": "uint256",
          "name": "",
          "type": "uint256"
        }
      ],
      "stateMutability": "view",
      "type": "function"
    },
    {
      "inputs": [
        {
          "internalType": "uint256",
          "name": "amount",
          "type": "uint256"
        }
      ],
      "name": "burn",
      "outputs": [],
      "stateMutability": "nonpayable",
      "type": "function"
    },
    {
      "inputs": [
        {
          "internalType": "address",
          "name": "account",
          "type": "address"
        },
        {
          "internalType": "uint256",
          "name": "amount",
          "type": "uint256"
        }
      ],
      "name": "burnFrom",
      "outputs": [],
      "stateMutability": "nonpayable",
      "type": "function"
    },
    {
      "inputs": [],
      "name": "decimals",
      "outputs": [
        {
          "internalType": "uint8",
          "name": "",
          "type": "uint8"
        }
      ],
      "stateMutability": "view",
      "type": "function"
    },
    {
      "inputs": [
        {
          "internalType": "address",
          "name": "spender",
          "type": "address"
        },
        {
          "internalType": "uint256",
          "name": "subtractedValue",
          "type": "uint256"
        }
      ],
      "name": "decreaseAllowance",
      "outputs": [
        {
          "internalType": "bool",
          "name": "",
          "type": "bool"
        }
      ],
      "stateMutability": "nonpayable",
      "type": "function"
    },
    {
      "inputs": [
        {
          "internalType": "address",
          "name": "spender",
          "type": "address"
        },
        {
          "internalType": "uint256",
          "name": "addedValue",
          "type": "uint256"
        }
      ],
      "name": "increaseAllowance",
      "outputs": [
        {
          "internalType": "bool",
          "name": "",
          "type": "bool"
        }
      ],
      "stateMutability": "nonpayable",
      "type": "function"
    },
    {
      "inputs": [],
      "name": "name",
      "outputs": [
        {
          "internalType": "string",
          "name": "",
          "type": "string"
        }
      ],
      "stateMutability": "view",
      "type": "function"
    },
    {
      "inputs": [
        {
          "internalType": "address",
          "name": "_owner",
          "type": "address"
        }
      ],
      "name": "nominateNewOwner",
      "outputs": [],
      "stateMutability": "nonpayable",
      "type": "function"
    },
    {
      "inputs": [],
      "name": "nominatedOwner",
      "outputs": [
        {
          "internalType": "address",
          "name": "",
          "type": "address"
        }
      ],
      "stateMutability": "view",
      "type": "function"
    },
    {
      "inputs": [],
      "name": "owner",
      "outputs": [
        {
          "internalType": "address",
          "name": "",
          "type": "address"
        }
      ],
      "stateMutability": "view",
      "type": "function"
    },
    {
      "inputs": [
        {
          "internalType": "uint256",
          "name": "amount",
          "type": "uint256"
        }
      ],
      "name": "recoverBNB",
      "outputs": [],
      "stateMutability": "nonpayable",
      "type": "function"
    },
    {
      "inputs": [
        {
          "internalType": "contract IERC20",
          "name": "token",
          "type": "address"
        }
      ],
      "name": "recoverTokens",
      "outputs": [],
      "stateMutability": "nonpayable",
      "type": "function"
    },
    {
      "inputs": [],
      "name": "snapshot",
      "outputs": [],
      "stateMutability": "nonpayable",
      "type": "function"
    },
    {
      "inputs": [],
      "name": "symbol",
      "outputs": [
        {
          "internalType": "string",
          "name": "",
          "type": "string"
        }
      ],
      "stateMutability": "view",
      "type": "function"
    },
    {
      "inputs": [],
      "name": "totalSupply",
      "outputs": [
        {
          "internalType": "uint256",
          "name": "",
          "type": "uint256"
        }
      ],
      "stateMutability": "view",
      "type": "function"
    },
    {
      "inputs": [
        {
          "internalType": "uint256",
          "name": "snapshotId",
          "type": "uint256"
        }
      ],
      "name": "totalSupplyAt",
      "outputs": [
        {
          "internalType": "uint256",
          "name": "",
          "type": "uint256"
        }
      ],
      "stateMutability": "view",
      "type": "function"
    },
    {
      "inputs": [
        {
          "internalType": "address",
          "name": "to",
          "type": "address"
        },
        {
          "internalType": "uint256",
          "name": "amount",
          "type": "uint256"
        }
      ],
      "name": "transfer",
      "outputs": [
        {
          "internalType": "bool",
          "name": "",
          "type": "bool"
        }
      ],
      "stateMutability": "nonpayable",
      "type": "function"
    },
    {
      "inputs": [
        {
          "internalType": "address",
          "name": "from",
          "type": "address"
        },
        {
          "internalType": "address",
          "name": "to",
          "type": "address"
        },
        {
          "internalType": "uint256",
          "name": "amount",
          "type": "uint256"
        }
      ],
      "name": "transferFrom",
      "outputs": [
        {
          "internalType": "bool",
          "name": "",
          "type": "bool"
        }
      ],
      "stateMutability": "nonpayable",
      "type": "function"
    }
  ],
  "bytecode": "0x60806040523480156200001157600080fd5b50604080518082018252600d81526c4d727765622046696e616e636560981b60208083019182528351808501909452600380855262414d4160e81b91850191909152825173397b73151d8ee4d4b66741e49744ed1bdab95fe994926200007892916200041f565b5080516200008e9060049060208401906200041f565b5050506001600160a01b038116620000ed5760405162461bcd60e51b815260206004820152601960248201527f4f776e657220616464726573732063616e6e6f7420626520300000000000000060448201526064015b60405180910390fd5b600980546001600160a01b0319166001600160a01b038316908117909155604080516000815260208101929092527fb532073b38c83145e3e5135377a08bf9aab55bc0fd7c1179cd4fb995d2a5159c910160405180910390a1506200017273397b73151d8ee4d4b66741e49744ed1bdab95fe96a52b7d2dcc80cd2e400000062000178565b6200054d565b6001600160a01b038216620001d05760405162461bcd60e51b815260206004820152601f60248201527f45524332303a206d696e7420746f20746865207a65726f2061646472657373006044820152606401620000e4565b620001de600083836200026b565b8060026000828254620001f29190620004c5565b90915550506001600160a01b0382166000908152602081905260408120805483929062000221908490620004c5565b90915550506040518181526001600160a01b038316906000907fddf252ad1be2c89b69c2b068fc378daa952ba7f163c4a11628f55a4df523b3ef9060200160405180910390a35050565b620002838383836200028860201b620007991760201c565b505050565b620002a08383836200028360201b620007e61760201c565b6001600160a01b038316620002ca57620002ba82620002f5565b620002c462000326565b62000283565b6001600160a01b038216620002e457620002ba83620002f5565b620002ef83620002f5565b62000283825b6001600160a01b038116600090815260056020526040902062000323906200031d8362000338565b62000357565b50565b6200033660066200031d60025490565b565b6001600160a01b0381166000908152602081905260409020545b919050565b600062000363620003a6565b9050806200037184620003c4565b101562000283578254600180820185556000858152602080822090930193909355938401805494850181558252902090910155565b6000620003bf60086200041b60201b620007eb1760201c565b905090565b8054600090620003d75750600062000352565b81548290620003e990600190620004e0565b815481106200040857634e487b7160e01b600052603260045260246000fd5b9060005260206000200154905062000352565b5490565b8280546200042d90620004fa565b90600052602060002090601f0160209004810192826200045157600085556200049c565b82601f106200046c57805160ff19168380011785556200049c565b828001600101855582156200049c579182015b828111156200049c5782518255916020019190600101906200047f565b50620004aa929150620004ae565b5090565b5b80821115620004aa5760008155600101620004af565b60008219821115620004db57620004db62000537565b500190565b600082821015620004f557620004f562000537565b500390565b6002810460018216806200050f57607f821691505b602082108114156200053157634e487b7160e01b600052602260045260246000fd5b50919050565b634e487b7160e01b600052601160045260246000fd5b61158d806200055d6000396000f3fe608060405234801561001057600080fd5b50600436106101425760003560e01c806370a08231116100b85780639711715a1161007c5780639711715a14610291578063981b24d014610299578063a457c2d7146102ac578063a9059cbb146102bf578063dd62ed3e146102d2578063f603939b146102e557610142565b806370a082311461024857806379ba50971461025b57806379cc6790146102635780638da5cb5b1461027657806395d89b411461028957610142565b806323b872dd1161010a57806323b872dd146101c2578063313ce567146101d557806339509351146101e457806342966c68146101f75780634ee2cd7e1461020a57806353a47bb71461021d57610142565b806306fdde0314610147578063095ea7b31461016557806316114acd146101885780631627540c1461019d57806318160ddd146101b0575b600080fd5b61014f6102f8565b60405161015c9190611443565b60405180910390f35b6101786101733660046113ac565b61038a565b604051901515815260200161015c565b61019b610196366004611318565b6103a4565b005b61019b6101ab366004611318565b61043d565b6002545b60405190815260200161015c565b6101786101d036600461136c565b610499565b6040516012815260200161015c565b6101786101f23660046113ac565b6104bf565b61019b6102053660046113f7565b6104e1565b6101b46102183660046113ac565b6104eb565b600a54610230906001600160a01b031681565b6040516001600160a01b03909116815260200161015c565b6101b4610256366004611318565b610534565b61019b610553565b61019b6102713660046113ac565b610642565b600954610230906001600160a01b031681565b61014f61065b565b61019b61066a565b6101b46102a73660046113f7565b61067a565b6101786102ba3660046113ac565b6106a5565b6101786102cd3660046113ac565b61072b565b6101b46102e0366004611334565b610739565b61019b6102f33660046113f7565b610764565b606060038054610307906114f1565b80601f0160208091040260200160405190810160405280929190818152602001828054610333906114f1565b80156103805780601f1061035557610100808354040283529160200191610380565b820191906000526020600020905b81548152906001019060200180831161036357829003601f168201915b5050505050905090565b6000336103988185856107ef565b60019150505b92915050565b6103ac610913565b6040516370a0823160e01b815230600482015261043a9033906001600160a01b038416906370a082319060240160206040518083038186803b1580156103f157600080fd5b505afa158015610405573d6000803e3d6000fd5b505050506040513d601f19601f82011682018060405250810190610429919061140f565b6001600160a01b0384169190610987565b50565b610445610913565b600a80546001600160a01b0319166001600160a01b0383169081179091556040519081527f906a1c6bd7e3091ea86693dd029a831c19049ce77f1dce2ce0bab1cacbabce229060200160405180910390a150565b6000336104a78582856109d9565b6104b2858585610a53565b60019150505b9392505050565b6000336103988185856104d28383610739565b6104dc9190611476565b6107ef565b61043a3382610c2c565b6001600160a01b038216600090815260056020526040812081908190610512908590610d86565b91509150816105295761052485610534565b61052b565b805b95945050505050565b6001600160a01b0381166000908152602081905260409020545b919050565b600a546001600160a01b031633146105d05760405162461bcd60e51b815260206004820152603560248201527f596f75206d757374206265206e6f6d696e61746564206265666f726520796f7560448201527402063616e20616363657074206f776e65727368697605c1b60648201526084015b60405180910390fd5b600954600a54604080516001600160a01b0393841681529290911660208301527fb532073b38c83145e3e5135377a08bf9aab55bc0fd7c1179cd4fb995d2a5159c910160405180910390a1600a8054600980546001600160a01b03199081166001600160a01b03841617909155169055565b61064d8233836109d9565b6106578282610c2c565b5050565b606060048054610307906114f1565b610672610913565b61043a610e8b565b600080600061068a846006610d86565b915091508161069b5760025461069d565b805b949350505050565b600033816106b38286610739565b9050838110156107135760405162461bcd60e51b815260206004820152602560248201527f45524332303a2064656372656173656420616c6c6f77616e63652062656c6f77604482015264207a65726f60d81b60648201526084016105c7565b61072082868684036107ef565b506001949350505050565b600033610398818585610a53565b6001600160a01b03918216600090815260016020908152604080832093909416825291909152205490565b61076c610913565b604051339082156108fc029083906000818181858888f19350505050158015610657573d6000803e3d6000fd5b6001600160a01b0383166107bd576107b082610ee5565b6107b8610f0f565b6107e6565b6001600160a01b0382166107d4576107b083610ee5565b6107dd83610ee5565b6107e682610ee5565b505050565b5490565b6001600160a01b0383166108515760405162461bcd60e51b8152602060048201526024808201527f45524332303a20617070726f76652066726f6d20746865207a65726f206164646044820152637265737360e01b60648201526084016105c7565b6001600160a01b0382166108b25760405162461bcd60e51b815260206004820152602260248201527f45524332303a20617070726f766520746f20746865207a65726f206164647265604482015261737360f01b60648201526084016105c7565b6001600160a01b0383811660008181526001602090815260408083209487168084529482529182902085905590518481527f8c5be1e5ebec7d5bd14f71427d1e84f3dd0314c0f7b2291e5b200ac8c7c3b925910160405180910390a3505050565b6009546001600160a01b031633146109855760405162461bcd60e51b815260206004820152602f60248201527f4f6e6c792074686520636f6e7472616374206f776e6572206d6179207065726660448201526e37b936903a3434b99030b1ba34b7b760891b60648201526084016105c7565b565b604080516001600160a01b038416602482015260448082018490528251808303909101815260649091019091526020810180516001600160e01b031663a9059cbb60e01b1790526107e6908490610f1d565b60006109e58484610739565b90506000198114610a4d5781811015610a405760405162461bcd60e51b815260206004820152601d60248201527f45524332303a20696e73756666696369656e7420616c6c6f77616e636500000060448201526064016105c7565b610a4d84848484036107ef565b50505050565b6001600160a01b038316610ab75760405162461bcd60e51b815260206004820152602560248201527f45524332303a207472616e736665722066726f6d20746865207a65726f206164604482015264647265737360d81b60648201526084016105c7565b6001600160a01b038216610b195760405162461bcd60e51b815260206004820152602360248201527f45524332303a207472616e7366657220746f20746865207a65726f206164647260448201526265737360e81b60648201526084016105c7565b610b24838383610fef565b6001600160a01b03831660009081526020819052604090205481811015610b9c5760405162461bcd60e51b815260206004820152602660248201527f45524332303a207472616e7366657220616d6f756e7420657863656564732062604482015265616c616e636560d01b60648201526084016105c7565b6001600160a01b03808516600090815260208190526040808220858503905591851681529081208054849290610bd3908490611476565b92505081905550826001600160a01b0316846001600160a01b03167fddf252ad1be2c89b69c2b068fc378daa952ba7f163c4a11628f55a4df523b3ef84604051610c1f91815260200190565b60405180910390a3610a4d565b6001600160a01b038216610c8c5760405162461bcd60e51b815260206004820152602160248201527f45524332303a206275726e2066726f6d20746865207a65726f206164647265736044820152607360f81b60648201526084016105c7565b610c9882600083610fef565b6001600160a01b03821660009081526020819052604090205481811015610d0c5760405162461bcd60e51b815260206004820152602260248201527f45524332303a206275726e20616d6f756e7420657863656564732062616c616e604482015261636560f01b60648201526084016105c7565b6001600160a01b0383166000908152602081905260408120838303905560028054849290610d3b9084906114ae565b90915550506040518281526000906001600160a01b038516907fddf252ad1be2c89b69c2b068fc378daa952ba7f163c4a11628f55a4df523b3ef9060200160405180910390a36107e6565b60008060008411610dd25760405162461bcd60e51b815260206004820152601660248201527504552433230536e617073686f743a20696420697320360541b60448201526064016105c7565b610dda610ffa565b841115610e295760405162461bcd60e51b815260206004820152601d60248201527f4552433230536e617073686f743a206e6f6e6578697374656e7420696400000060448201526064016105c7565b6000610e35848661100a565b8454909150811415610e4e576000809250925050610e84565b6001846001018281548110610e7357634e487b7160e01b600052603260045260246000fd5b906000526020600020015492509250505b9250929050565b6000610e9b600880546001019055565b6000610ea5610ffa565b90507f8030e83b04d87bef53480e26263266d6ca66863aa8506aca6f2559d18aa1cb6781604051610ed891815260200190565b60405180910390a1905090565b6001600160a01b038116600090815260056020526040902061043a90610f0a83610534565b6110e9565b6109856006610f0a60025490565b6000610f72826040518060400160405280602081526020017f5361666545524332303a206c6f772d6c6576656c2063616c6c206661696c6564815250856001600160a01b03166111339092919063ffffffff16565b8051909150156107e65780806020019051810190610f9091906113d7565b6107e65760405162461bcd60e51b815260206004820152602a60248201527f5361666545524332303a204552433230206f7065726174696f6e20646964206e6044820152691bdd081cdd58d8d9595960b21b60648201526084016105c7565b6107e6838383610799565b600061100560085490565b905090565b815460009061101b5750600061039e565b82546000905b808210156110855760006110358383611142565b90508486828154811061105857634e487b7160e01b600052603260045260246000fd5b906000526020600020015411156110715780915061107f565b61107c816001611476565b92505b50611021565b6000821180156110c85750838561109d6001856114ae565b815481106110bb57634e487b7160e01b600052603260045260246000fd5b9060005260206000200154145b156110e1576110d86001836114ae565b9250505061039e565b50905061039e565b60006110f3610ffa565b9050806110ff8461115d565b10156107e6578254600180820185556000858152602080822090930193909355938401805494850181558252902090910155565b606061069d84846000856111ae565b6000611151600284841861148e565b6104b890848416611476565b805460009061116e5750600061054e565b8154829061117e906001906114ae565b8154811061119c57634e487b7160e01b600052603260045260246000fd5b9060005260206000200154905061054e565b60608247101561120f5760405162461bcd60e51b815260206004820152602660248201527f416464726573733a20696e73756666696369656e742062616c616e636520666f6044820152651c8818d85b1b60d21b60648201526084016105c7565b6001600160a01b0385163b6112665760405162461bcd60e51b815260206004820152601d60248201527f416464726573733a2063616c6c20746f206e6f6e2d636f6e747261637400000060448201526064016105c7565b600080866001600160a01b031685876040516112829190611427565b60006040518083038185875af1925050503d80600081146112bf576040519150601f19603f3d011682016040523d82523d6000602084013e6112c4565b606091505b50915091506112d48282866112df565b979650505050505050565b606083156112ee5750816104b8565b8251156112fe5782518084602001fd5b8160405162461bcd60e51b81526004016105c79190611443565b600060208284031215611329578081fd5b81356104b881611542565b60008060408385031215611346578081fd5b823561135181611542565b9150602083013561136181611542565b809150509250929050565b600080600060608486031215611380578081fd5b833561138b81611542565b9250602084013561139b81611542565b929592945050506040919091013590565b600080604083850312156113be578182fd5b82356113c981611542565b946020939093013593505050565b6000602082840312156113e8578081fd5b815180151581146104b8578182fd5b600060208284031215611408578081fd5b5035919050565b600060208284031215611420578081fd5b5051919050565b600082516114398184602087016114c5565b9190910192915050565b60006020825282518060208401526114628160408501602087016114c5565b601f01601f19169190910160400192915050565b600082198211156114895761148961152c565b500190565b6000826114a957634e487b7160e01b81526012600452602481fd5b500490565b6000828210156114c0576114c061152c565b500390565b60005b838110156114e05781810151838201526020016114c8565b83811115610a4d5750506000910152565b60028104600182168061150557607f821691505b6020821081141561152657634e487b7160e01b600052602260045260246000fd5b50919050565b634e487b7160e01b600052601160045260246000fd5b6001600160a01b038116811461043a57600080fdfea26469706673582212204680f45342a59471baf749f8e518f7322ac8bc606b7733aa8e3b505f0bca356564736f6c63430008020033",
  "linkReferences": {},
  "deployedLinkReferences": {}
}