{
  "_format": "hh-sol-artifact-1",
  "contractName": "MFTERC20",
  "sourceName": "contracts/MFTERC20.sol",
  "abi": [
    {
      "inputs": [],
      "stateMutability": "nonpayable",
      "type": "constructor"
    },
    {
      "anonymous": false,
      "inputs": [
        {
          "indexed": true,
          "internalType": "address",
          "name": "owner",
          "type": "address"
        },
        {
          "indexed": true,
          "internalType": "address",
          "name": "spender",
          "type": "address"
        },
        {
          "indexed": false,
          "internalType": "uint256",
          "name": "value",
          "type": "uint256"
        }
      ],
      "name": "Approval",
      "type": "event"
    },
    {
      "anonymous": false,
      "inputs": [
        {
          "indexed": true,
          "internalType": "address",
          "name": "previousOwner",
          "type": "address"
        },
        {
          "indexed": true,
          "internalType": "address",
          "name": "newOwner",
          "type": "address"
        }
      ],
      "name": "OwnershipTransferred",
      "type": "event"
    },
    {
      "anonymous": false,
      "inputs": [
        {
          "indexed": false,
          "internalType": "uint256",
          "name": "id",
          "type": "uint256"
        }
      ],
      "name": "Snapshot",
      "type": "event"
    },
    {
      "anonymous": false,
      "inputs": [
        {
          "indexed": true,
          "internalType": "address",
          "name": "from",
          "type": "address"
        },
        {
          "indexed": true,
          "internalType": "address",
          "name": "to",
          "type": "address"
        },
        {
          "indexed": false,
          "internalType": "uint256",
          "name": "value",
          "type": "uint256"
        }
      ],
      "name": "Transfer",
      "type": "event"
    },
    {
      "inputs": [
        {
          "internalType": "address",
          "name": "owner",
          "type": "address"
        },
        {
          "internalType": "address",
          "name": "spender",
          "type": "address"
        }
      ],
      "name": "allowance",
      "outputs": [
        {
          "internalType": "uint256",
          "name": "",
          "type": "uint256"
        }
      ],
      "stateMutability": "view",
      "type": "function"
    },
    {
      "inputs": [
        {
          "internalType": "address",
          "name": "spender",
          "type": "address"
        },
        {
          "internalType": "uint256",
          "name": "amount",
          "type": "uint256"
        }
      ],
      "name": "approve",
      "outputs": [
        {
          "internalType": "bool",
          "name": "",
          "type": "bool"
        }
      ],
      "stateMutability": "nonpayable",
      "type": "function"
    },
    {
      "inputs": [
        {
          "internalType": "address",
          "name": "account",
          "type": "address"
        }
      ],
      "name": "balanceOf",
      "outputs": [
        {
          "internalType": "uint256",
          "name": "",
          "type": "uint256"
        }
      ],
      "stateMutability": "view",
      "type": "function"
    },
    {
      "inputs": [
        {
          "internalType": "address",
          "name": "account",
          "type": "address"
        },
        {
          "internalType": "uint256",
          "name": "snapshotId",
          "type": "uint256"
        }
      ],
      "name": "balanceOfAt",
      "outputs": [
        {
          "internalType": "uint256",
          "name": "",
          "type": "uint256"
        }
      ],
      "stateMutability": "view",
      "type": "function"
    },
    {
      "inputs": [
        {
          "internalType": "uint256",
          "name": "amount",
          "type": "uint256"
        }
      ],
      "name": "burn",
      "outputs": [],
      "stateMutability": "nonpayable",
      "type": "function"
    },
    {
      "inputs": [
        {
          "internalType": "address",
          "name": "account",
          "type": "address"
        },
        {
          "internalType": "uint256",
          "name": "amount",
          "type": "uint256"
        }
      ],
      "name": "burnFrom",
      "outputs": [],
      "stateMutability": "nonpayable",
      "type": "function"
    },
    {
      "inputs": [],
      "name": "decimals",
      "outputs": [
        {
          "internalType": "uint8",
          "name": "",
          "type": "uint8"
        }
      ],
      "stateMutability": "view",
      "type": "function"
    },
    {
      "inputs": [
        {
          "internalType": "address",
          "name": "spender",
          "type": "address"
        },
        {
          "internalType": "uint256",
          "name": "subtractedValue",
          "type": "uint256"
        }
      ],
      "name": "decreaseAllowance",
      "outputs": [
        {
          "internalType": "bool",
          "name": "",
          "type": "bool"
        }
      ],
      "stateMutability": "nonpayable",
      "type": "function"
    },
    {
      "inputs": [
        {
          "internalType": "address",
          "name": "spender",
          "type": "address"
        },
        {
          "internalType": "uint256",
          "name": "addedValue",
          "type": "uint256"
        }
      ],
      "name": "increaseAllowance",
      "outputs": [
        {
          "internalType": "bool",
          "name": "",
          "type": "bool"
        }
      ],
      "stateMutability": "nonpayable",
      "type": "function"
    },
    {
      "inputs": [],
      "name": "name",
      "outputs": [
        {
          "internalType": "string",
          "name": "",
          "type": "string"
        }
      ],
      "stateMutability": "view",
      "type": "function"
    },
    {
      "inputs": [],
      "name": "owner",
      "outputs": [
        {
          "internalType": "address",
          "name": "",
          "type": "address"
        }
      ],
      "stateMutability": "view",
      "type": "function"
    },
    {
      "inputs": [
        {
          "internalType": "uint256",
          "name": "amount",
          "type": "uint256"
        }
      ],
      "name": "recoverBNB",
      "outputs": [],
      "stateMutability": "nonpayable",
      "type": "function"
    },
    {
      "inputs": [
        {
          "internalType": "contract IERC20",
          "name": "token",
          "type": "address"
        }
      ],
      "name": "recoverTokens",
      "outputs": [],
      "stateMutability": "nonpayable",
      "type": "function"
    },
    {
      "inputs": [],
      "name": "renounceOwnership",
      "outputs": [],
      "stateMutability": "nonpayable",
      "type": "function"
    },
    {
      "inputs": [],
      "name": "snapshot",
      "outputs": [],
      "stateMutability": "nonpayable",
      "type": "function"
    },
    {
      "inputs": [],
      "name": "symbol",
      "outputs": [
        {
          "internalType": "string",
          "name": "",
          "type": "string"
        }
      ],
      "stateMutability": "view",
      "type": "function"
    },
    {
      "inputs": [],
      "name": "totalSupply",
      "outputs": [
        {
          "internalType": "uint256",
          "name": "",
          "type": "uint256"
        }
      ],
      "stateMutability": "view",
      "type": "function"
    },
    {
      "inputs": [
        {
          "internalType": "uint256",
          "name": "snapshotId",
          "type": "uint256"
        }
      ],
      "name": "totalSupplyAt",
      "outputs": [
        {
          "internalType": "uint256",
          "name": "",
          "type": "uint256"
        }
      ],
      "stateMutability": "view",
      "type": "function"
    },
    {
      "inputs": [
        {
          "internalType": "address",
          "name": "to",
          "type": "address"
        },
        {
          "internalType": "uint256",
          "name": "amount",
          "type": "uint256"
        }
      ],
      "name": "transfer",
      "outputs": [
        {
          "internalType": "bool",
          "name": "",
          "type": "bool"
        }
      ],
      "stateMutability": "nonpayable",
      "type": "function"
    },
    {
      "inputs": [
        {
          "internalType": "address",
          "name": "from",
          "type": "address"
        },
        {
          "internalType": "address",
          "name": "to",
          "type": "address"
        },
        {
          "internalType": "uint256",
          "name": "amount",
          "type": "uint256"
        }
      ],
      "name": "transferFrom",
      "outputs": [
        {
          "internalType": "bool",
          "name": "",
          "type": "bool"
        }
      ],
      "stateMutability": "nonpayable",
      "type": "function"
    },
    {
      "inputs": [
        {
          "internalType": "address",
          "name": "newOwner",
          "type": "address"
        }
      ],
      "name": "transferOwnership",
      "outputs": [],
      "stateMutability": "nonpayable",
      "type": "function"
    }
  ],
  "bytecode": "0x60806040523480156200001157600080fd5b506040518060400160405280600d81526020016c4d727765622046696e616e636560981b81525060405180604001604052806003815260200162414d4160e81b81525081600390805190602001906200006c929190620003bc565b50805162000082906004906020840190620003bc565b5050506200009f62000099620000bc60201b60201c565b620000c0565b620000b6336a52b7d2dcc80cd2e400000062000112565b620004ea565b3390565b600980546001600160a01b038381166001600160a01b0319831681179093556040519116919082907f8be0079c531659141344cd1fd0a4f28419497f9722a3daafe3b4186f6b6457e090600090a35050565b6001600160a01b0382166200016d5760405162461bcd60e51b815260206004820152601f60248201527f45524332303a206d696e7420746f20746865207a65726f206164647265737300604482015260640160405180910390fd5b6200017b6000838362000208565b80600260008282546200018f919062000462565b90915550506001600160a01b03821660009081526020819052604081208054839290620001be90849062000462565b90915550506040518181526001600160a01b038316906000907fddf252ad1be2c89b69c2b068fc378daa952ba7f163c4a11628f55a4df523b3ef9060200160405180910390a35050565b620002208383836200022560201b6200075d1760201c565b505050565b6200023d8383836200022060201b620007aa1760201c565b6001600160a01b0383166200026757620002578262000292565b62000261620002c3565b62000220565b6001600160a01b0382166200028157620002578362000292565b6200028c8362000292565b62000220825b6001600160a01b0381166000908152600560205260409020620002c090620002ba83620002d5565b620002f4565b50565b620002d36006620002ba60025490565b565b6001600160a01b0381166000908152602081905260409020545b919050565b60006200030062000343565b9050806200030e8462000361565b101562000220578254600180820185556000858152602080822090930193909355938401805494850181558252902090910155565b60006200035c6008620003b860201b620007af1760201c565b905090565b80546000906200037457506000620002ef565b8154829062000386906001906200047d565b81548110620003a557634e487b7160e01b600052603260045260246000fd5b90600052602060002001549050620002ef565b5490565b828054620003ca9062000497565b90600052602060002090601f016020900481019282620003ee576000855562000439565b82601f106200040957805160ff191683800117855562000439565b8280016001018555821562000439579182015b82811115620004395782518255916020019190600101906200041c565b50620004479291506200044b565b5090565b5b808211156200044757600081556001016200044c565b60008219821115620004785762000478620004d4565b500190565b600082821015620004925762000492620004d4565b500390565b600281046001821680620004ac57607f821691505b60208210811415620004ce57634e487b7160e01b600052602260045260246000fd5b50919050565b634e487b7160e01b600052601160045260246000fd5b61156480620004fa6000396000f3fe608060405234801561001057600080fd5b50600436106101375760003560e01c8063715018a6116100b8578063981b24d01161007c578063981b24d014610258578063a457c2d71461026b578063a9059cbb1461027e578063dd62ed3e14610291578063f2fde38b146102a4578063f603939b146102b757610137565b8063715018a61461021257806379cc67901461021a5780638da5cb5b1461022d57806395d89b41146102485780639711715a1461025057610137565b8063313ce567116100ff578063313ce567146101b757806339509351146101c657806342966c68146101d95780634ee2cd7e146101ec57806370a08231146101ff57610137565b806306fdde031461013c578063095ea7b31461015a57806316114acd1461017d57806318160ddd1461019257806323b872dd146101a4575b600080fd5b6101446102ca565b60405161015191906113e5565b60405180910390f35b61016d61016836600461134e565b61035c565b6040519015158152602001610151565b61019061018b3660046112ba565b610376565b005b6002545b604051908152602001610151565b61016d6101b236600461130e565b61043a565b60405160128152602001610151565b61016d6101d436600461134e565b610460565b6101906101e7366004611399565b610482565b6101966101fa36600461134e565b61048c565b61019661020d3660046112ba565b6104d5565b6101906104f4565b61019061022836600461134e565b61052a565b6009546040516001600160a01b039091168152602001610151565b610144610543565b610190610552565b610196610266366004611399565b610584565b61016d61027936600461134e565b6105af565b61016d61028c36600461134e565b610635565b61019661029f3660046112d6565b610643565b6101906102b23660046112ba565b61066e565b6101906102c5366004611399565b610706565b6060600380546102d9906114c8565b80601f0160208091040260200160405190810160405280929190818152602001828054610305906114c8565b80156103525780601f1061032757610100808354040283529160200191610352565b820191906000526020600020905b81548152906001019060200180831161033557829003601f168201915b5050505050905090565b60003361036a8185856107b3565b60019150505b92915050565b6009546001600160a01b031633146103a95760405162461bcd60e51b81526004016103a090611418565b60405180910390fd5b6040516370a0823160e01b81523060048201526104379033906001600160a01b038416906370a082319060240160206040518083038186803b1580156103ee57600080fd5b505afa158015610402573d6000803e3d6000fd5b505050506040513d601f19601f8201168201806040525081019061042691906113b1565b6001600160a01b03841691906108d7565b50565b600033610448858285610929565b6104538585856109a3565b60019150505b9392505050565b60003361036a8185856104738383610643565b61047d919061144d565b6107b3565b6104373382610b7c565b6001600160a01b0382166000908152600560205260408120819081906104b3908590610cd6565b91509150816104ca576104c5856104d5565b6104cc565b805b95945050505050565b6001600160a01b0381166000908152602081905260409020545b919050565b6009546001600160a01b0316331461051e5760405162461bcd60e51b81526004016103a090611418565b6105286000610ddb565b565b610535823383610929565b61053f8282610b7c565b5050565b6060600480546102d9906114c8565b6009546001600160a01b0316331461057c5760405162461bcd60e51b81526004016103a090611418565b610437610e2d565b6000806000610594846006610cd6565b91509150816105a5576002546105a7565b805b949350505050565b600033816105bd8286610643565b90508381101561061d5760405162461bcd60e51b815260206004820152602560248201527f45524332303a2064656372656173656420616c6c6f77616e63652062656c6f77604482015264207a65726f60d81b60648201526084016103a0565b61062a82868684036107b3565b506001949350505050565b60003361036a8185856109a3565b6001600160a01b03918216600090815260016020908152604080832093909416825291909152205490565b6009546001600160a01b031633146106985760405162461bcd60e51b81526004016103a090611418565b6001600160a01b0381166106fd5760405162461bcd60e51b815260206004820152602660248201527f4f776e61626c653a206e6577206f776e657220697320746865207a65726f206160448201526564647265737360d01b60648201526084016103a0565b61043781610ddb565b6009546001600160a01b031633146107305760405162461bcd60e51b81526004016103a090611418565b604051339082156108fc029083906000818181858888f1935050505015801561053f573d6000803e3d6000fd5b6001600160a01b0383166107815761077482610e87565b61077c610eb1565b6107aa565b6001600160a01b0382166107985761077483610e87565b6107a183610e87565b6107aa82610e87565b505050565b5490565b6001600160a01b0383166108155760405162461bcd60e51b8152602060048201526024808201527f45524332303a20617070726f76652066726f6d20746865207a65726f206164646044820152637265737360e01b60648201526084016103a0565b6001600160a01b0382166108765760405162461bcd60e51b815260206004820152602260248201527f45524332303a20617070726f766520746f20746865207a65726f206164647265604482015261737360f01b60648201526084016103a0565b6001600160a01b0383811660008181526001602090815260408083209487168084529482529182902085905590518481527f8c5be1e5ebec7d5bd14f71427d1e84f3dd0314c0f7b2291e5b200ac8c7c3b925910160405180910390a3505050565b604080516001600160a01b038416602482015260448082018490528251808303909101815260649091019091526020810180516001600160e01b031663a9059cbb60e01b1790526107aa908490610ebf565b60006109358484610643565b9050600019811461099d57818110156109905760405162461bcd60e51b815260206004820152601d60248201527f45524332303a20696e73756666696369656e7420616c6c6f77616e636500000060448201526064016103a0565b61099d84848484036107b3565b50505050565b6001600160a01b038316610a075760405162461bcd60e51b815260206004820152602560248201527f45524332303a207472616e736665722066726f6d20746865207a65726f206164604482015264647265737360d81b60648201526084016103a0565b6001600160a01b038216610a695760405162461bcd60e51b815260206004820152602360248201527f45524332303a207472616e7366657220746f20746865207a65726f206164647260448201526265737360e81b60648201526084016103a0565b610a74838383610f91565b6001600160a01b03831660009081526020819052604090205481811015610aec5760405162461bcd60e51b815260206004820152602660248201527f45524332303a207472616e7366657220616d6f756e7420657863656564732062604482015265616c616e636560d01b60648201526084016103a0565b6001600160a01b03808516600090815260208190526040808220858503905591851681529081208054849290610b2390849061144d565b92505081905550826001600160a01b0316846001600160a01b03167fddf252ad1be2c89b69c2b068fc378daa952ba7f163c4a11628f55a4df523b3ef84604051610b6f91815260200190565b60405180910390a361099d565b6001600160a01b038216610bdc5760405162461bcd60e51b815260206004820152602160248201527f45524332303a206275726e2066726f6d20746865207a65726f206164647265736044820152607360f81b60648201526084016103a0565b610be882600083610f91565b6001600160a01b03821660009081526020819052604090205481811015610c5c5760405162461bcd60e51b815260206004820152602260248201527f45524332303a206275726e20616d6f756e7420657863656564732062616c616e604482015261636560f01b60648201526084016103a0565b6001600160a01b0383166000908152602081905260408120838303905560028054849290610c8b908490611485565b90915550506040518281526000906001600160a01b038516907fddf252ad1be2c89b69c2b068fc378daa952ba7f163c4a11628f55a4df523b3ef9060200160405180910390a36107aa565b60008060008411610d225760405162461bcd60e51b815260206004820152601660248201527504552433230536e617073686f743a20696420697320360541b60448201526064016103a0565b610d2a610f9c565b841115610d795760405162461bcd60e51b815260206004820152601d60248201527f4552433230536e617073686f743a206e6f6e6578697374656e7420696400000060448201526064016103a0565b6000610d858486610fac565b8454909150811415610d9e576000809250925050610dd4565b6001846001018281548110610dc357634e487b7160e01b600052603260045260246000fd5b906000526020600020015492509250505b9250929050565b600980546001600160a01b038381166001600160a01b0319831681179093556040519116919082907f8be0079c531659141344cd1fd0a4f28419497f9722a3daafe3b4186f6b6457e090600090a35050565b6000610e3d600880546001019055565b6000610e47610f9c565b90507f8030e83b04d87bef53480e26263266d6ca66863aa8506aca6f2559d18aa1cb6781604051610e7a91815260200190565b60405180910390a1905090565b6001600160a01b038116600090815260056020526040902061043790610eac836104d5565b61108b565b6105286006610eac60025490565b6000610f14826040518060400160405280602081526020017f5361666545524332303a206c6f772d6c6576656c2063616c6c206661696c6564815250856001600160a01b03166110d59092919063ffffffff16565b8051909150156107aa5780806020019051810190610f329190611379565b6107aa5760405162461bcd60e51b815260206004820152602a60248201527f5361666545524332303a204552433230206f7065726174696f6e20646964206e6044820152691bdd081cdd58d8d9595960b21b60648201526084016103a0565b6107aa83838361075d565b6000610fa760085490565b905090565b8154600090610fbd57506000610370565b82546000905b80821015611027576000610fd783836110e4565b905084868281548110610ffa57634e487b7160e01b600052603260045260246000fd5b9060005260206000200154111561101357809150611021565b61101e81600161144d565b92505b50610fc3565b60008211801561106a5750838561103f600185611485565b8154811061105d57634e487b7160e01b600052603260045260246000fd5b9060005260206000200154145b156110835761107a600183611485565b92505050610370565b509050610370565b6000611095610f9c565b9050806110a1846110ff565b10156107aa578254600180820185556000858152602080822090930193909355938401805494850181558252902090910155565b60606105a78484600085611150565b60006110f36002848418611465565b6104599084841661144d565b8054600090611110575060006104ef565b8154829061112090600190611485565b8154811061113e57634e487b7160e01b600052603260045260246000fd5b906000526020600020015490506104ef565b6060824710156111b15760405162461bcd60e51b815260206004820152602660248201527f416464726573733a20696e73756666696369656e742062616c616e636520666f6044820152651c8818d85b1b60d21b60648201526084016103a0565b6001600160a01b0385163b6112085760405162461bcd60e51b815260206004820152601d60248201527f416464726573733a2063616c6c20746f206e6f6e2d636f6e747261637400000060448201526064016103a0565b600080866001600160a01b0316858760405161122491906113c9565b60006040518083038185875af1925050503d8060008114611261576040519150601f19603f3d011682016040523d82523d6000602084013e611266565b606091505b5091509150611276828286611281565b979650505050505050565b60608315611290575081610459565b8251156112a05782518084602001fd5b8160405162461bcd60e51b81526004016103a091906113e5565b6000602082840312156112cb578081fd5b813561045981611519565b600080604083850312156112e8578081fd5b82356112f381611519565b9150602083013561130381611519565b809150509250929050565b600080600060608486031215611322578081fd5b833561132d81611519565b9250602084013561133d81611519565b929592945050506040919091013590565b60008060408385031215611360578182fd5b823561136b81611519565b946020939093013593505050565b60006020828403121561138a578081fd5b81518015158114610459578182fd5b6000602082840312156113aa578081fd5b5035919050565b6000602082840312156113c2578081fd5b5051919050565b600082516113db81846020870161149c565b9190910192915050565b600060208252825180602084015261140481604085016020870161149c565b601f01601f19169190910160400192915050565b6020808252818101527f4f776e61626c653a2063616c6c6572206973206e6f7420746865206f776e6572604082015260600190565b6000821982111561146057611460611503565b500190565b60008261148057634e487b7160e01b81526012600452602481fd5b500490565b60008282101561149757611497611503565b500390565b60005b838110156114b757818101518382015260200161149f565b8381111561099d5750506000910152565b6002810460018216806114dc57607f821691505b602082108114156114fd57634e487b7160e01b600052602260045260246000fd5b50919050565b634e487b7160e01b600052601160045260246000fd5b6001600160a01b038116811461043757600080fdfea26469706673582212203d68598e20f703f781036c194a7a67b869c67887c0d3d251e7f957e753ed81a964736f6c63430008020033",
  "linkReferences": {},
  "deployedLinkReferences": {}
}