{
  "_format": "hh-sol-artifact-1",
  "contractName": "MFTERC20",
  "sourceName": "contracts/MFTERC20.sol",
  "abi": [
    {
      "inputs": [],
      "stateMutability": "nonpayable",
      "type": "constructor"
    },
    {
      "anonymous": false,
      "inputs": [
        {
          "indexed": true,
          "internalType": "address",
          "name": "owner",
          "type": "address"
        },
        {
          "indexed": true,
          "internalType": "address",
          "name": "spender",
          "type": "address"
        },
        {
          "indexed": false,
          "internalType": "uint256",
          "name": "value",
          "type": "uint256"
        }
      ],
      "name": "Approval",
      "type": "event"
    },
    {
      "anonymous": false,
      "inputs": [
        {
          "indexed": true,
          "internalType": "address",
          "name": "previousOwner",
          "type": "address"
        },
        {
          "indexed": true,
          "internalType": "address",
          "name": "newOwner",
          "type": "address"
        }
      ],
      "name": "OwnershipTransferred",
      "type": "event"
    },
    {
      "anonymous": false,
      "inputs": [
        {
          "indexed": false,
          "internalType": "address",
          "name": "account",
          "type": "address"
        }
      ],
      "name": "Paused",
      "type": "event"
    },
    {
      "anonymous": false,
      "inputs": [
        {
          "indexed": false,
          "internalType": "uint256",
          "name": "id",
          "type": "uint256"
        }
      ],
      "name": "Snapshot",
      "type": "event"
    },
    {
      "anonymous": false,
      "inputs": [
        {
          "indexed": true,
          "internalType": "address",
          "name": "from",
          "type": "address"
        },
        {
          "indexed": true,
          "internalType": "address",
          "name": "to",
          "type": "address"
        },
        {
          "indexed": false,
          "internalType": "uint256",
          "name": "value",
          "type": "uint256"
        }
      ],
      "name": "Transfer",
      "type": "event"
    },
    {
      "anonymous": false,
      "inputs": [
        {
          "indexed": false,
          "internalType": "address",
          "name": "account",
          "type": "address"
        }
      ],
      "name": "Unpaused",
      "type": "event"
    },
    {
      "inputs": [
        {
          "internalType": "address",
          "name": "owner",
          "type": "address"
        },
        {
          "internalType": "address",
          "name": "spender",
          "type": "address"
        }
      ],
      "name": "allowance",
      "outputs": [
        {
          "internalType": "uint256",
          "name": "",
          "type": "uint256"
        }
      ],
      "stateMutability": "view",
      "type": "function"
    },
    {
      "inputs": [
        {
          "internalType": "address",
          "name": "spender",
          "type": "address"
        },
        {
          "internalType": "uint256",
          "name": "amount",
          "type": "uint256"
        }
      ],
      "name": "approve",
      "outputs": [
        {
          "internalType": "bool",
          "name": "",
          "type": "bool"
        }
      ],
      "stateMutability": "nonpayable",
      "type": "function"
    },
    {
      "inputs": [
        {
          "internalType": "address",
          "name": "account",
          "type": "address"
        }
      ],
      "name": "balanceOf",
      "outputs": [
        {
          "internalType": "uint256",
          "name": "",
          "type": "uint256"
        }
      ],
      "stateMutability": "view",
      "type": "function"
    },
    {
      "inputs": [
        {
          "internalType": "address",
          "name": "account",
          "type": "address"
        },
        {
          "internalType": "uint256",
          "name": "snapshotId",
          "type": "uint256"
        }
      ],
      "name": "balanceOfAt",
      "outputs": [
        {
          "internalType": "uint256",
          "name": "",
          "type": "uint256"
        }
      ],
      "stateMutability": "view",
      "type": "function"
    },
    {
      "inputs": [
        {
          "internalType": "uint256",
          "name": "amount",
          "type": "uint256"
        }
      ],
      "name": "burn",
      "outputs": [],
      "stateMutability": "nonpayable",
      "type": "function"
    },
    {
      "inputs": [
        {
          "internalType": "address",
          "name": "account",
          "type": "address"
        },
        {
          "internalType": "uint256",
          "name": "amount",
          "type": "uint256"
        }
      ],
      "name": "burnFrom",
      "outputs": [],
      "stateMutability": "nonpayable",
      "type": "function"
    },
    {
      "inputs": [],
      "name": "decimals",
      "outputs": [
        {
          "internalType": "uint8",
          "name": "",
          "type": "uint8"
        }
      ],
      "stateMutability": "view",
      "type": "function"
    },
    {
      "inputs": [
        {
          "internalType": "address",
          "name": "spender",
          "type": "address"
        },
        {
          "internalType": "uint256",
          "name": "subtractedValue",
          "type": "uint256"
        }
      ],
      "name": "decreaseAllowance",
      "outputs": [
        {
          "internalType": "bool",
          "name": "",
          "type": "bool"
        }
      ],
      "stateMutability": "nonpayable",
      "type": "function"
    },
    {
      "inputs": [
        {
          "internalType": "address",
          "name": "spender",
          "type": "address"
        },
        {
          "internalType": "uint256",
          "name": "addedValue",
          "type": "uint256"
        }
      ],
      "name": "increaseAllowance",
      "outputs": [
        {
          "internalType": "bool",
          "name": "",
          "type": "bool"
        }
      ],
      "stateMutability": "nonpayable",
      "type": "function"
    },
    {
      "inputs": [],
      "name": "name",
      "outputs": [
        {
          "internalType": "string",
          "name": "",
          "type": "string"
        }
      ],
      "stateMutability": "view",
      "type": "function"
    },
    {
      "inputs": [],
      "name": "owner",
      "outputs": [
        {
          "internalType": "address",
          "name": "",
          "type": "address"
        }
      ],
      "stateMutability": "view",
      "type": "function"
    },
    {
      "inputs": [],
      "name": "pause",
      "outputs": [],
      "stateMutability": "nonpayable",
      "type": "function"
    },
    {
      "inputs": [],
      "name": "paused",
      "outputs": [
        {
          "internalType": "bool",
          "name": "",
          "type": "bool"
        }
      ],
      "stateMutability": "view",
      "type": "function"
    },
    {
      "inputs": [
        {
          "internalType": "contract IERC1155",
          "name": "token",
          "type": "address"
        },
        {
          "internalType": "uint256",
          "name": "tokenId",
          "type": "uint256"
        },
        {
          "internalType": "uint256",
          "name": "amount",
          "type": "uint256"
        }
      ],
      "name": "recoverERC1155",
      "outputs": [],
      "stateMutability": "nonpayable",
      "type": "function"
    },
    {
      "inputs": [
        {
          "internalType": "contract IERC721",
          "name": "token",
          "type": "address"
        },
        {
          "internalType": "uint256",
          "name": "tokenId",
          "type": "uint256"
        }
      ],
      "name": "recoverERC721",
      "outputs": [],
      "stateMutability": "nonpayable",
      "type": "function"
    },
    {
      "inputs": [
        {
          "internalType": "uint256",
          "name": "amount",
          "type": "uint256"
        }
      ],
      "name": "recoverETH",
      "outputs": [],
      "stateMutability": "nonpayable",
      "type": "function"
    },
    {
      "inputs": [
        {
          "internalType": "contract IERC20",
          "name": "token",
          "type": "address"
        }
      ],
      "name": "recoverTokens",
      "outputs": [],
      "stateMutability": "nonpayable",
      "type": "function"
    },
    {
      "inputs": [],
      "name": "renounceOwnership",
      "outputs": [],
      "stateMutability": "nonpayable",
      "type": "function"
    },
    {
      "inputs": [],
      "name": "snapshot",
      "outputs": [],
      "stateMutability": "nonpayable",
      "type": "function"
    },
    {
      "inputs": [],
      "name": "symbol",
      "outputs": [
        {
          "internalType": "string",
          "name": "",
          "type": "string"
        }
      ],
      "stateMutability": "view",
      "type": "function"
    },
    {
      "inputs": [],
      "name": "totalSupply",
      "outputs": [
        {
          "internalType": "uint256",
          "name": "",
          "type": "uint256"
        }
      ],
      "stateMutability": "view",
      "type": "function"
    },
    {
      "inputs": [
        {
          "internalType": "uint256",
          "name": "snapshotId",
          "type": "uint256"
        }
      ],
      "name": "totalSupplyAt",
      "outputs": [
        {
          "internalType": "uint256",
          "name": "",
          "type": "uint256"
        }
      ],
      "stateMutability": "view",
      "type": "function"
    },
    {
      "inputs": [
        {
          "internalType": "address",
          "name": "to",
          "type": "address"
        },
        {
          "internalType": "uint256",
          "name": "amount",
          "type": "uint256"
        }
      ],
      "name": "transfer",
      "outputs": [
        {
          "internalType": "bool",
          "name": "",
          "type": "bool"
        }
      ],
      "stateMutability": "nonpayable",
      "type": "function"
    },
    {
      "inputs": [
        {
          "internalType": "address",
          "name": "from",
          "type": "address"
        },
        {
          "internalType": "address",
          "name": "to",
          "type": "address"
        },
        {
          "internalType": "uint256",
          "name": "amount",
          "type": "uint256"
        }
      ],
      "name": "transferFrom",
      "outputs": [
        {
          "internalType": "bool",
          "name": "",
          "type": "bool"
        }
      ],
      "stateMutability": "nonpayable",
      "type": "function"
    },
    {
      "inputs": [
        {
          "internalType": "address",
          "name": "newOwner",
          "type": "address"
        }
      ],
      "name": "transferOwnership",
      "outputs": [],
      "stateMutability": "nonpayable",
      "type": "function"
    },
    {
      "inputs": [],
      "name": "unpause",
      "outputs": [],
      "stateMutability": "nonpayable",
      "type": "function"
    }
  ],
  "bytecode": "0x60806040523480156200001157600080fd5b506040518060400160405280600d81526020016c4d727765622046696e616e636560981b8152506040518060400160405280600381526020016213519560ea1b81525081600390805190602001906200006c92919062000420565b5080516200008290600490602084019062000420565b5050506200009f62000099620000c960201b60201c565b620000cd565b6009805460ff60a01b19169055620000c3336a52b7d2dcc80cd2e40000006200011f565b6200054e565b3390565b600980546001600160a01b038381166001600160a01b0319831681179093556040519116919082907f8be0079c531659141344cd1fd0a4f28419497f9722a3daafe3b4186f6b6457e090600090a35050565b6001600160a01b0382166200017b5760405162461bcd60e51b815260206004820152601f60248201527f45524332303a206d696e7420746f20746865207a65726f20616464726573730060448201526064015b60405180910390fd5b620001896000838362000216565b80600260008282546200019d9190620004c6565b90915550506001600160a01b03821660009081526020819052604081208054839290620001cc908490620004c6565b90915550506040518181526001600160a01b038316906000907fddf252ad1be2c89b69c2b068fc378daa952ba7f163c4a11628f55a4df523b3ef9060200160405180910390a35050565b6200022a600954600160a01b900460ff1690565b156200026c5760405162461bcd60e51b815260206004820152601060248201526f14185d5cd8589b194e881c185d5cd95960821b604482015260640162000172565b620002848383836200028960201b62000a031760201c565b505050565b620002a18383836200028460201b62000a501760201c565b6001600160a01b038316620002cb57620002bb82620002f6565b620002c562000327565b62000284565b6001600160a01b038216620002e557620002bb83620002f6565b620002f083620002f6565b62000284825b6001600160a01b038116600090815260056020526040902062000324906200031e8362000339565b62000358565b50565b6200033760066200031e60025490565b565b6001600160a01b0381166000908152602081905260409020545b919050565b600062000364620003a7565b9050806200037284620003c5565b101562000284578254600180820185556000858152602080822090930193909355938401805494850181558252902090910155565b6000620003c060086200041c60201b62000a551760201c565b905090565b8054600090620003d85750600062000353565b81548290620003ea90600190620004e1565b815481106200040957634e487b7160e01b600052603260045260246000fd5b9060005260206000200154905062000353565b5490565b8280546200042e90620004fb565b90600052602060002090601f0160209004810192826200045257600085556200049d565b82601f106200046d57805160ff19168380011785556200049d565b828001600101855582156200049d579182015b828111156200049d57825182559160200191906001019062000480565b50620004ab929150620004af565b5090565b5b80821115620004ab5760008155600101620004b0565b60008219821115620004dc57620004dc62000538565b500190565b600082821015620004f657620004f662000538565b500390565b6002810460018216806200051057607f821691505b602082108114156200053257634e487b7160e01b600052602260045260246000fd5b50919050565b634e487b7160e01b600052601160045260246000fd5b6119c2806200055e6000396000f3fe608060405234801561001057600080fd5b506004361061018e5760003560e01c806379cc6790116100de578063981b24d011610097578063cbaa1d9b11610071578063cbaa1d9b1461031e578063d333555314610331578063dd62ed3e14610344578063f2fde38b146103575761018e565b8063981b24d0146102e5578063a457c2d7146102f8578063a9059cbb1461030b5761018e565b806379cc67901461028c578063819d4cc61461029f5780638456cb59146102b25780638da5cb5b146102ba57806395d89b41146102d55780639711715a146102dd5761018e565b8063395093511161014b5780634ee2cd7e116101255780634ee2cd7e1461024b5780635c975abb1461025e57806370a0823114610271578063715018a6146102845761018e565b8063395093511461021d5780633f4ba83a1461023057806342966c68146102385761018e565b806306fdde0314610193578063095ea7b3146101b157806316114acd146101d457806318160ddd146101e957806323b872dd146101fb578063313ce5671461020e575b600080fd5b61019b61036a565b6040516101a89190611843565b60405180910390f35b6101c46101bf366004611778565b6103fc565b60405190151581526020016101a8565b6101e76101e23660046116e4565b610416565b005b6002545b6040519081526020016101a8565b6101c4610209366004611738565b610533565b604051601281526020016101a8565b6101c461022b366004611778565b610559565b6101e761057b565b6101e76102463660046117f7565b6105af565b6101ed610259366004611778565b6105b9565b6101c4600954600160a01b900460ff1690565b6101ed61027f3660046116e4565b610602565b6101e7610621565b6101e761029a366004611778565b610655565b6101e76102ad366004611778565b61066e565b6101e7610702565b6009546040516001600160a01b0390911681526020016101a8565b61019b610734565b6101e7610743565b6101ed6102f33660046117f7565b610775565b6101c4610306366004611778565b6107a0565b6101c4610319366004611778565b610826565b6101e761032c3660046117c3565b610834565b6101e761033f3660046117f7565b6108e9565b6101ed610352366004611700565b610940565b6101e76103653660046116e4565b61096b565b60606003805461037990611926565b80601f01602080910402602001604051908101604052809291908181526020018280546103a590611926565b80156103f25780601f106103c7576101008083540402835291602001916103f2565b820191906000526020600020905b8154815290600101906020018083116103d557829003601f168201915b5050505050905090565b60003361040a818585610a59565b60019150505b92915050565b6009546001600160a01b031633146104495760405162461bcd60e51b815260040161044090611876565b60405180910390fd5b306001600160a01b03821614156104a25760405162461bcd60e51b815260206004820152601960248201527f43616e6e6f74207265636f766572207468697320746f6b656e000000000000006044820152606401610440565b6040516370a0823160e01b81523060048201526105309033906001600160a01b038416906370a082319060240160206040518083038186803b1580156104e757600080fd5b505afa1580156104fb573d6000803e3d6000fd5b505050506040513d601f19601f8201168201806040525081019061051f919061180f565b6001600160a01b0384169190610b7d565b50565b600033610541858285610bcf565b61054c858585610c49565b60019150505b9392505050565b60003361040a81858561056c8383610940565b61057691906118ab565b610a59565b6009546001600160a01b031633146105a55760405162461bcd60e51b815260040161044090611876565b6105ad610e22565b565b6105303382610ec5565b6001600160a01b0382166000908152600560205260408120819081906105e090859061101f565b91509150816105f7576105f285610602565b6105f9565b805b95945050505050565b6001600160a01b0381166000908152602081905260409020545b919050565b6009546001600160a01b0316331461064b5760405162461bcd60e51b815260040161044090611876565b6105ad6000611124565b610660823383610bcf565b61066a8282610ec5565b5050565b6009546001600160a01b031633146106985760405162461bcd60e51b815260040161044090611876565b604051632142170760e11b8152306004820152336024820152604481018290526001600160a01b038316906342842e0e90606401600060405180830381600087803b1580156106e657600080fd5b505af11580156106fa573d6000803e3d6000fd5b505050505050565b6009546001600160a01b0316331461072c5760405162461bcd60e51b815260040161044090611876565b6105ad611176565b60606004805461037990611926565b6009546001600160a01b0316331461076d5760405162461bcd60e51b815260040161044090611876565b610530611204565b600080600061078584600661101f565b915091508161079657600254610798565b805b949350505050565b600033816107ae8286610940565b90508381101561080e5760405162461bcd60e51b815260206004820152602560248201527f45524332303a2064656372656173656420616c6c6f77616e63652062656c6f77604482015264207a65726f60d81b6064820152608401610440565b61081b8286868403610a59565b506001949350505050565b60003361040a818585610c49565b6009546001600160a01b0316331461085e5760405162461bcd60e51b815260040161044090611876565b604051637921219560e11b8152306004820152336024820152604481018390526064810182905260a06084820152600260a482015261060f60f31b60c48201526001600160a01b0384169063f242432a9060e401600060405180830381600087803b1580156108cc57600080fd5b505af11580156108e0573d6000803e3d6000fd5b50505050505050565b6009546001600160a01b031633146109135760405162461bcd60e51b815260040161044090611876565b604051339082156108fc029083906000818181858888f1935050505015801561066a573d6000803e3d6000fd5b6001600160a01b03918216600090815260016020908152604080832093909416825291909152205490565b6009546001600160a01b031633146109955760405162461bcd60e51b815260040161044090611876565b6001600160a01b0381166109fa5760405162461bcd60e51b815260206004820152602660248201527f4f776e61626c653a206e6577206f776e657220697320746865207a65726f206160448201526564647265737360d01b6064820152608401610440565b61053081611124565b6001600160a01b038316610a2757610a1a8261125e565b610a22611288565b610a50565b6001600160a01b038216610a3e57610a1a8361125e565b610a478361125e565b610a508261125e565b505050565b5490565b6001600160a01b038316610abb5760405162461bcd60e51b8152602060048201526024808201527f45524332303a20617070726f76652066726f6d20746865207a65726f206164646044820152637265737360e01b6064820152608401610440565b6001600160a01b038216610b1c5760405162461bcd60e51b815260206004820152602260248201527f45524332303a20617070726f766520746f20746865207a65726f206164647265604482015261737360f01b6064820152608401610440565b6001600160a01b0383811660008181526001602090815260408083209487168084529482529182902085905590518481527f8c5be1e5ebec7d5bd14f71427d1e84f3dd0314c0f7b2291e5b200ac8c7c3b925910160405180910390a3505050565b604080516001600160a01b038416602482015260448082018490528251808303909101815260649091019091526020810180516001600160e01b031663a9059cbb60e01b179052610a50908490611296565b6000610bdb8484610940565b90506000198114610c435781811015610c365760405162461bcd60e51b815260206004820152601d60248201527f45524332303a20696e73756666696369656e7420616c6c6f77616e63650000006044820152606401610440565b610c438484848403610a59565b50505050565b6001600160a01b038316610cad5760405162461bcd60e51b815260206004820152602560248201527f45524332303a207472616e736665722066726f6d20746865207a65726f206164604482015264647265737360d81b6064820152608401610440565b6001600160a01b038216610d0f5760405162461bcd60e51b815260206004820152602360248201527f45524332303a207472616e7366657220746f20746865207a65726f206164647260448201526265737360e81b6064820152608401610440565b610d1a838383611368565b6001600160a01b03831660009081526020819052604090205481811015610d925760405162461bcd60e51b815260206004820152602660248201527f45524332303a207472616e7366657220616d6f756e7420657863656564732062604482015265616c616e636560d01b6064820152608401610440565b6001600160a01b03808516600090815260208190526040808220858503905591851681529081208054849290610dc99084906118ab565b92505081905550826001600160a01b0316846001600160a01b03167fddf252ad1be2c89b69c2b068fc378daa952ba7f163c4a11628f55a4df523b3ef84604051610e1591815260200190565b60405180910390a3610c43565b610e35600954600160a01b900460ff1690565b610e785760405162461bcd60e51b815260206004820152601460248201527314185d5cd8589b194e881b9bdd081c185d5cd95960621b6044820152606401610440565b6009805460ff60a01b191690557f5db9ee0a495bf2e6ff9c91a7834c1ba4fdd244a5e8aa4e537bd38aeae4b073aa335b6040516001600160a01b03909116815260200160405180910390a1565b6001600160a01b038216610f255760405162461bcd60e51b815260206004820152602160248201527f45524332303a206275726e2066726f6d20746865207a65726f206164647265736044820152607360f81b6064820152608401610440565b610f3182600083611368565b6001600160a01b03821660009081526020819052604090205481811015610fa55760405162461bcd60e51b815260206004820152602260248201527f45524332303a206275726e20616d6f756e7420657863656564732062616c616e604482015261636560f01b6064820152608401610440565b6001600160a01b0383166000908152602081905260408120838303905560028054849290610fd49084906118e3565b90915550506040518281526000906001600160a01b038516907fddf252ad1be2c89b69c2b068fc378daa952ba7f163c4a11628f55a4df523b3ef9060200160405180910390a3610a50565b6000806000841161106b5760405162461bcd60e51b815260206004820152601660248201527504552433230536e617073686f743a20696420697320360541b6044820152606401610440565b6110736113c6565b8411156110c25760405162461bcd60e51b815260206004820152601d60248201527f4552433230536e617073686f743a206e6f6e6578697374656e742069640000006044820152606401610440565b60006110ce84866113d6565b84549091508114156110e757600080925092505061111d565b600184600101828154811061110c57634e487b7160e01b600052603260045260246000fd5b906000526020600020015492509250505b9250929050565b600980546001600160a01b038381166001600160a01b0319831681179093556040519116919082907f8be0079c531659141344cd1fd0a4f28419497f9722a3daafe3b4186f6b6457e090600090a35050565b611189600954600160a01b900460ff1690565b156111c95760405162461bcd60e51b815260206004820152601060248201526f14185d5cd8589b194e881c185d5cd95960821b6044820152606401610440565b6009805460ff60a01b1916600160a01b1790557f62e78cea01bee320cd4e420270b5ea74000d11b0c9f74754ebdbfc544b05a258610ea83390565b6000611214600880546001019055565b600061121e6113c6565b90507f8030e83b04d87bef53480e26263266d6ca66863aa8506aca6f2559d18aa1cb678160405161125191815260200190565b60405180910390a1905090565b6001600160a01b03811660009081526005602052604090206105309061128383610602565b6114b5565b6105ad600661128360025490565b60006112eb826040518060400160405280602081526020017f5361666545524332303a206c6f772d6c6576656c2063616c6c206661696c6564815250856001600160a01b03166114ff9092919063ffffffff16565b805190915015610a50578080602001905181019061130991906117a3565b610a505760405162461bcd60e51b815260206004820152602a60248201527f5361666545524332303a204552433230206f7065726174696f6e20646964206e6044820152691bdd081cdd58d8d9595960b21b6064820152608401610440565b61137b600954600160a01b900460ff1690565b156113bb5760405162461bcd60e51b815260206004820152601060248201526f14185d5cd8589b194e881c185d5cd95960821b6044820152606401610440565b610a50838383610a03565b60006113d160085490565b905090565b81546000906113e757506000610410565b82546000905b80821015611451576000611401838361150e565b90508486828154811061142457634e487b7160e01b600052603260045260246000fd5b9060005260206000200154111561143d5780915061144b565b6114488160016118ab565b92505b506113ed565b600082118015611494575083856114696001856118e3565b8154811061148757634e487b7160e01b600052603260045260246000fd5b9060005260206000200154145b156114ad576114a46001836118e3565b92505050610410565b509050610410565b60006114bf6113c6565b9050806114cb84611529565b1015610a50578254600180820185556000858152602080822090930193909355938401805494850181558252902090910155565b6060610798848460008561157a565b600061151d60028484186118c3565b610552908484166118ab565b805460009061153a5750600061061c565b8154829061154a906001906118e3565b8154811061156857634e487b7160e01b600052603260045260246000fd5b9060005260206000200154905061061c565b6060824710156115db5760405162461bcd60e51b815260206004820152602660248201527f416464726573733a20696e73756666696369656e742062616c616e636520666f6044820152651c8818d85b1b60d21b6064820152608401610440565b6001600160a01b0385163b6116325760405162461bcd60e51b815260206004820152601d60248201527f416464726573733a2063616c6c20746f206e6f6e2d636f6e74726163740000006044820152606401610440565b600080866001600160a01b0316858760405161164e9190611827565b60006040518083038185875af1925050503d806000811461168b576040519150601f19603f3d011682016040523d82523d6000602084013e611690565b606091505b50915091506116a08282866116ab565b979650505050505050565b606083156116ba575081610552565b8251156116ca5782518084602001fd5b8160405162461bcd60e51b81526004016104409190611843565b6000602082840312156116f5578081fd5b813561055281611977565b60008060408385031215611712578081fd5b823561171d81611977565b9150602083013561172d81611977565b809150509250929050565b60008060006060848603121561174c578081fd5b833561175781611977565b9250602084013561176781611977565b929592945050506040919091013590565b6000806040838503121561178a578182fd5b823561179581611977565b946020939093013593505050565b6000602082840312156117b4578081fd5b81518015158114610552578182fd5b6000806000606084860312156117d7578283fd5b83356117e281611977565b95602085013595506040909401359392505050565b600060208284031215611808578081fd5b5035919050565b600060208284031215611820578081fd5b5051919050565b600082516118398184602087016118fa565b9190910192915050565b60006020825282518060208401526118628160408501602087016118fa565b601f01601f19169190910160400192915050565b6020808252818101527f4f776e61626c653a2063616c6c6572206973206e6f7420746865206f776e6572604082015260600190565b600082198211156118be576118be611961565b500190565b6000826118de57634e487b7160e01b81526012600452602481fd5b500490565b6000828210156118f5576118f5611961565b500390565b60005b838110156119155781810151838201526020016118fd565b83811115610c435750506000910152565b60028104600182168061193a57607f821691505b6020821081141561195b57634e487b7160e01b600052602260045260246000fd5b50919050565b634e487b7160e01b600052601160045260246000fd5b6001600160a01b038116811461053057600080fdfea26469706673582212208c8d05033dcfb2a0d9cf316b01126483a9d4cf03a4d0bebc189eb997946039f064736f6c63430008020033",
  "linkReferences": {},
  "deployedLinkReferences": {}
}