{
  "_format": "hh-sol-artifact-1",
  "contractName": "MFTERC20",
  "sourceName": "contracts/MFTERC20.sol",
  "abi": [
    {
      "inputs": [],
      "stateMutability": "nonpayable",
      "type": "constructor"
    },
    {
      "anonymous": false,
      "inputs": [
        {
          "indexed": true,
          "internalType": "address",
          "name": "owner",
          "type": "address"
        },
        {
          "indexed": true,
          "internalType": "address",
          "name": "spender",
          "type": "address"
        },
        {
          "indexed": false,
          "internalType": "uint256",
          "name": "value",
          "type": "uint256"
        }
      ],
      "name": "Approval",
      "type": "event"
    },
    {
      "anonymous": false,
      "inputs": [
        {
          "indexed": true,
          "internalType": "address",
          "name": "previousOwner",
          "type": "address"
        },
        {
          "indexed": true,
          "internalType": "address",
          "name": "newOwner",
          "type": "address"
        }
      ],
      "name": "OwnershipTransferred",
      "type": "event"
    },
    {
      "anonymous": false,
      "inputs": [
        {
          "indexed": false,
          "internalType": "uint256",
          "name": "id",
          "type": "uint256"
        }
      ],
      "name": "Snapshot",
      "type": "event"
    },
    {
      "anonymous": false,
      "inputs": [
        {
          "indexed": true,
          "internalType": "address",
          "name": "from",
          "type": "address"
        },
        {
          "indexed": true,
          "internalType": "address",
          "name": "to",
          "type": "address"
        },
        {
          "indexed": false,
          "internalType": "uint256",
          "name": "value",
          "type": "uint256"
        }
      ],
      "name": "Transfer",
      "type": "event"
    },
    {
      "inputs": [
        {
          "internalType": "address",
          "name": "owner",
          "type": "address"
        },
        {
          "internalType": "address",
          "name": "spender",
          "type": "address"
        }
      ],
      "name": "allowance",
      "outputs": [
        {
          "internalType": "uint256",
          "name": "",
          "type": "uint256"
        }
      ],
      "stateMutability": "view",
      "type": "function"
    },
    {
      "inputs": [
        {
          "internalType": "address",
          "name": "spender",
          "type": "address"
        },
        {
          "internalType": "uint256",
          "name": "amount",
          "type": "uint256"
        }
      ],
      "name": "approve",
      "outputs": [
        {
          "internalType": "bool",
          "name": "",
          "type": "bool"
        }
      ],
      "stateMutability": "nonpayable",
      "type": "function"
    },
    {
      "inputs": [
        {
          "internalType": "address",
          "name": "account",
          "type": "address"
        }
      ],
      "name": "balanceOf",
      "outputs": [
        {
          "internalType": "uint256",
          "name": "",
          "type": "uint256"
        }
      ],
      "stateMutability": "view",
      "type": "function"
    },
    {
      "inputs": [
        {
          "internalType": "address",
          "name": "account",
          "type": "address"
        },
        {
          "internalType": "uint256",
          "name": "snapshotId",
          "type": "uint256"
        }
      ],
      "name": "balanceOfAt",
      "outputs": [
        {
          "internalType": "uint256",
          "name": "",
          "type": "uint256"
        }
      ],
      "stateMutability": "view",
      "type": "function"
    },
    {
      "inputs": [
        {
          "internalType": "uint256",
          "name": "amount",
          "type": "uint256"
        }
      ],
      "name": "burn",
      "outputs": [],
      "stateMutability": "nonpayable",
      "type": "function"
    },
    {
      "inputs": [
        {
          "internalType": "address",
          "name": "account",
          "type": "address"
        },
        {
          "internalType": "uint256",
          "name": "amount",
          "type": "uint256"
        }
      ],
      "name": "burnFrom",
      "outputs": [],
      "stateMutability": "nonpayable",
      "type": "function"
    },
    {
      "inputs": [],
      "name": "decimals",
      "outputs": [
        {
          "internalType": "uint8",
          "name": "",
          "type": "uint8"
        }
      ],
      "stateMutability": "view",
      "type": "function"
    },
    {
      "inputs": [
        {
          "internalType": "address",
          "name": "spender",
          "type": "address"
        },
        {
          "internalType": "uint256",
          "name": "subtractedValue",
          "type": "uint256"
        }
      ],
      "name": "decreaseAllowance",
      "outputs": [
        {
          "internalType": "bool",
          "name": "",
          "type": "bool"
        }
      ],
      "stateMutability": "nonpayable",
      "type": "function"
    },
    {
      "inputs": [
        {
          "internalType": "address",
          "name": "spender",
          "type": "address"
        },
        {
          "internalType": "uint256",
          "name": "addedValue",
          "type": "uint256"
        }
      ],
      "name": "increaseAllowance",
      "outputs": [
        {
          "internalType": "bool",
          "name": "",
          "type": "bool"
        }
      ],
      "stateMutability": "nonpayable",
      "type": "function"
    },
    {
      "inputs": [],
      "name": "name",
      "outputs": [
        {
          "internalType": "string",
          "name": "",
          "type": "string"
        }
      ],
      "stateMutability": "view",
      "type": "function"
    },
    {
      "inputs": [],
      "name": "owner",
      "outputs": [
        {
          "internalType": "address",
          "name": "",
          "type": "address"
        }
      ],
      "stateMutability": "view",
      "type": "function"
    },
    {
      "inputs": [
        {
          "internalType": "contract IERC1155",
          "name": "token",
          "type": "address"
        },
        {
          "internalType": "uint256",
          "name": "tokenId",
          "type": "uint256"
        },
        {
          "internalType": "uint256",
          "name": "amount",
          "type": "uint256"
        }
      ],
      "name": "recoverERC1155",
      "outputs": [],
      "stateMutability": "nonpayable",
      "type": "function"
    },
    {
      "inputs": [
        {
          "internalType": "contract IERC721",
          "name": "token",
          "type": "address"
        },
        {
          "internalType": "uint256",
          "name": "tokenId",
          "type": "uint256"
        }
      ],
      "name": "recoverERC721",
      "outputs": [],
      "stateMutability": "nonpayable",
      "type": "function"
    },
    {
      "inputs": [
        {
          "internalType": "uint256",
          "name": "amount",
          "type": "uint256"
        }
      ],
      "name": "recoverETH",
      "outputs": [],
      "stateMutability": "nonpayable",
      "type": "function"
    },
    {
      "inputs": [
        {
          "internalType": "contract IERC20",
          "name": "token",
          "type": "address"
        }
      ],
      "name": "recoverTokens",
      "outputs": [],
      "stateMutability": "nonpayable",
      "type": "function"
    },
    {
      "inputs": [],
      "name": "renounceOwnership",
      "outputs": [],
      "stateMutability": "nonpayable",
      "type": "function"
    },
    {
      "inputs": [],
      "name": "snapshot",
      "outputs": [],
      "stateMutability": "nonpayable",
      "type": "function"
    },
    {
      "inputs": [],
      "name": "symbol",
      "outputs": [
        {
          "internalType": "string",
          "name": "",
          "type": "string"
        }
      ],
      "stateMutability": "view",
      "type": "function"
    },
    {
      "inputs": [],
      "name": "totalSupply",
      "outputs": [
        {
          "internalType": "uint256",
          "name": "",
          "type": "uint256"
        }
      ],
      "stateMutability": "view",
      "type": "function"
    },
    {
      "inputs": [
        {
          "internalType": "uint256",
          "name": "snapshotId",
          "type": "uint256"
        }
      ],
      "name": "totalSupplyAt",
      "outputs": [
        {
          "internalType": "uint256",
          "name": "",
          "type": "uint256"
        }
      ],
      "stateMutability": "view",
      "type": "function"
    },
    {
      "inputs": [
        {
          "internalType": "address",
          "name": "to",
          "type": "address"
        },
        {
          "internalType": "uint256",
          "name": "amount",
          "type": "uint256"
        }
      ],
      "name": "transfer",
      "outputs": [
        {
          "internalType": "bool",
          "name": "",
          "type": "bool"
        }
      ],
      "stateMutability": "nonpayable",
      "type": "function"
    },
    {
      "inputs": [
        {
          "internalType": "address",
          "name": "from",
          "type": "address"
        },
        {
          "internalType": "address",
          "name": "to",
          "type": "address"
        },
        {
          "internalType": "uint256",
          "name": "amount",
          "type": "uint256"
        }
      ],
      "name": "transferFrom",
      "outputs": [
        {
          "internalType": "bool",
          "name": "",
          "type": "bool"
        }
      ],
      "stateMutability": "nonpayable",
      "type": "function"
    },
    {
      "inputs": [
        {
          "internalType": "address",
          "name": "newOwner",
          "type": "address"
        }
      ],
      "name": "transferOwnership",
      "outputs": [],
      "stateMutability": "nonpayable",
      "type": "function"
    }
  ],
  "bytecode": "0x60806040523480156200001157600080fd5b506040518060400160405280600d81526020016c4d727765622046696e616e636560981b81525060405180604001604052806003815260200162414d4160e81b81525081600390805190602001906200006c929190620003bc565b50805162000082906004906020840190620003bc565b5050506200009f62000099620000bc60201b60201c565b620000c0565b620000b6336a52b7d2dcc80cd2e400000062000112565b620004ea565b3390565b600980546001600160a01b038381166001600160a01b0319831681179093556040519116919082907f8be0079c531659141344cd1fd0a4f28419497f9722a3daafe3b4186f6b6457e090600090a35050565b6001600160a01b0382166200016d5760405162461bcd60e51b815260206004820152601f60248201527f45524332303a206d696e7420746f20746865207a65726f206164647265737300604482015260640160405180910390fd5b6200017b6000838362000208565b80600260008282546200018f919062000462565b90915550506001600160a01b03821660009081526020819052604081208054839290620001be90849062000462565b90915550506040518181526001600160a01b038316906000907fddf252ad1be2c89b69c2b068fc378daa952ba7f163c4a11628f55a4df523b3ef9060200160405180910390a35050565b620002208383836200022560201b620008e21760201c565b505050565b6200023d8383836200022060201b6200092f1760201c565b6001600160a01b0383166200026757620002578262000292565b62000261620002c3565b62000220565b6001600160a01b0382166200028157620002578362000292565b6200028c8362000292565b62000220825b6001600160a01b0381166000908152600560205260409020620002c090620002ba83620002d5565b620002f4565b50565b620002d36006620002ba60025490565b565b6001600160a01b0381166000908152602081905260409020545b919050565b60006200030062000343565b9050806200030e8462000361565b101562000220578254600180820185556000858152602080822090930193909355938401805494850181558252902090910155565b60006200035c6008620003b860201b620009341760201c565b905090565b80546000906200037457506000620002ef565b8154829062000386906001906200047d565b81548110620003a557634e487b7160e01b600052603260045260246000fd5b90600052602060002001549050620002ef565b5490565b828054620003ca9062000497565b90600052602060002090601f016020900481019282620003ee576000855562000439565b82601f106200040957805160ff191683800117855562000439565b8280016001018555821562000439579182015b82811115620004395782518255916020019190600101906200041c565b50620004479291506200044b565b5090565b5b808211156200044757600081556001016200044c565b60008219821115620004785762000478620004d4565b500190565b600082821015620004925762000492620004d4565b500390565b600281046001821680620004ac57607f821691505b60208210811415620004ce57634e487b7160e01b600052602260045260246000fd5b50919050565b634e487b7160e01b600052601160045260246000fd5b61171d80620004fa6000396000f3fe608060405234801561001057600080fd5b506004361061014d5760003560e01c806379cc6790116100c3578063a457c2d71161007c578063a457c2d714610294578063a9059cbb146102a7578063cbaa1d9b146102ba578063d3335553146102cd578063dd62ed3e146102e0578063f2fde38b146102f35761014d565b806379cc679014610230578063819d4cc6146102435780638da5cb5b1461025657806395d89b41146102715780639711715a14610279578063981b24d0146102815761014d565b8063313ce56711610115578063313ce567146101cd57806339509351146101dc57806342966c68146101ef5780634ee2cd7e1461020257806370a0823114610215578063715018a6146102285761014d565b806306fdde0314610152578063095ea7b31461017057806316114acd1461019357806318160ddd146101a857806323b872dd146101ba575b600080fd5b61015a610306565b604051610167919061159e565b60405180910390f35b61018361017e3660046114d3565b610398565b6040519015158152602001610167565b6101a66101a136600461143f565b6103b2565b005b6002545b604051908152602001610167565b6101836101c8366004611493565b610476565b60405160128152602001610167565b6101836101ea3660046114d3565b61049c565b6101a66101fd366004611552565b6104be565b6101ac6102103660046114d3565b6104c8565b6101ac61022336600461143f565b610511565b6101a6610530565b6101a661023e3660046114d3565b610566565b6101a66102513660046114d3565b61057f565b6009546040516001600160a01b039091168152602001610167565b61015a610613565b6101a6610622565b6101ac61028f366004611552565b610654565b6101836102a23660046114d3565b61067f565b6101836102b53660046114d3565b610705565b6101a66102c836600461151e565b610713565b6101a66102db366004611552565b6107c8565b6101ac6102ee36600461145b565b61081f565b6101a661030136600461143f565b61084a565b60606003805461031590611681565b80601f016020809104026020016040519081016040528092919081815260200182805461034190611681565b801561038e5780601f106103635761010080835404028352916020019161038e565b820191906000526020600020905b81548152906001019060200180831161037157829003601f168201915b5050505050905090565b6000336103a6818585610938565b60019150505b92915050565b6009546001600160a01b031633146103e55760405162461bcd60e51b81526004016103dc906115d1565b60405180910390fd5b6040516370a0823160e01b81523060048201526104739033906001600160a01b038416906370a082319060240160206040518083038186803b15801561042a57600080fd5b505afa15801561043e573d6000803e3d6000fd5b505050506040513d601f19601f82011682018060405250810190610462919061156a565b6001600160a01b0384169190610a5c565b50565b600033610484858285610aae565b61048f858585610b28565b60019150505b9392505050565b6000336103a68185856104af838361081f565b6104b99190611606565b610938565b6104733382610d01565b6001600160a01b0382166000908152600560205260408120819081906104ef908590610e5b565b91509150816105065761050185610511565b610508565b805b95945050505050565b6001600160a01b0381166000908152602081905260409020545b919050565b6009546001600160a01b0316331461055a5760405162461bcd60e51b81526004016103dc906115d1565b6105646000610f60565b565b610571823383610aae565b61057b8282610d01565b5050565b6009546001600160a01b031633146105a95760405162461bcd60e51b81526004016103dc906115d1565b604051632142170760e11b8152306004820152336024820152604481018290526001600160a01b038316906342842e0e90606401600060405180830381600087803b1580156105f757600080fd5b505af115801561060b573d6000803e3d6000fd5b505050505050565b60606004805461031590611681565b6009546001600160a01b0316331461064c5760405162461bcd60e51b81526004016103dc906115d1565b610473610fb2565b6000806000610664846006610e5b565b915091508161067557600254610677565b805b949350505050565b6000338161068d828661081f565b9050838110156106ed5760405162461bcd60e51b815260206004820152602560248201527f45524332303a2064656372656173656420616c6c6f77616e63652062656c6f77604482015264207a65726f60d81b60648201526084016103dc565b6106fa8286868403610938565b506001949350505050565b6000336103a6818585610b28565b6009546001600160a01b0316331461073d5760405162461bcd60e51b81526004016103dc906115d1565b604051637921219560e11b8152306004820152336024820152604481018390526064810182905260a06084820152600260a482015261060f60f31b60c48201526001600160a01b0384169063f242432a9060e401600060405180830381600087803b1580156107ab57600080fd5b505af11580156107bf573d6000803e3d6000fd5b50505050505050565b6009546001600160a01b031633146107f25760405162461bcd60e51b81526004016103dc906115d1565b604051339082156108fc029083906000818181858888f1935050505015801561057b573d6000803e3d6000fd5b6001600160a01b03918216600090815260016020908152604080832093909416825291909152205490565b6009546001600160a01b031633146108745760405162461bcd60e51b81526004016103dc906115d1565b6001600160a01b0381166108d95760405162461bcd60e51b815260206004820152602660248201527f4f776e61626c653a206e6577206f776e657220697320746865207a65726f206160448201526564647265737360d01b60648201526084016103dc565b61047381610f60565b6001600160a01b038316610906576108f98261100c565b610901611036565b61092f565b6001600160a01b03821661091d576108f98361100c565b6109268361100c565b61092f8261100c565b505050565b5490565b6001600160a01b03831661099a5760405162461bcd60e51b8152602060048201526024808201527f45524332303a20617070726f76652066726f6d20746865207a65726f206164646044820152637265737360e01b60648201526084016103dc565b6001600160a01b0382166109fb5760405162461bcd60e51b815260206004820152602260248201527f45524332303a20617070726f766520746f20746865207a65726f206164647265604482015261737360f01b60648201526084016103dc565b6001600160a01b0383811660008181526001602090815260408083209487168084529482529182902085905590518481527f8c5be1e5ebec7d5bd14f71427d1e84f3dd0314c0f7b2291e5b200ac8c7c3b925910160405180910390a3505050565b604080516001600160a01b038416602482015260448082018490528251808303909101815260649091019091526020810180516001600160e01b031663a9059cbb60e01b17905261092f908490611044565b6000610aba848461081f565b90506000198114610b225781811015610b155760405162461bcd60e51b815260206004820152601d60248201527f45524332303a20696e73756666696369656e7420616c6c6f77616e636500000060448201526064016103dc565b610b228484848403610938565b50505050565b6001600160a01b038316610b8c5760405162461bcd60e51b815260206004820152602560248201527f45524332303a207472616e736665722066726f6d20746865207a65726f206164604482015264647265737360d81b60648201526084016103dc565b6001600160a01b038216610bee5760405162461bcd60e51b815260206004820152602360248201527f45524332303a207472616e7366657220746f20746865207a65726f206164647260448201526265737360e81b60648201526084016103dc565b610bf9838383611116565b6001600160a01b03831660009081526020819052604090205481811015610c715760405162461bcd60e51b815260206004820152602660248201527f45524332303a207472616e7366657220616d6f756e7420657863656564732062604482015265616c616e636560d01b60648201526084016103dc565b6001600160a01b03808516600090815260208190526040808220858503905591851681529081208054849290610ca8908490611606565b92505081905550826001600160a01b0316846001600160a01b03167fddf252ad1be2c89b69c2b068fc378daa952ba7f163c4a11628f55a4df523b3ef84604051610cf491815260200190565b60405180910390a3610b22565b6001600160a01b038216610d615760405162461bcd60e51b815260206004820152602160248201527f45524332303a206275726e2066726f6d20746865207a65726f206164647265736044820152607360f81b60648201526084016103dc565b610d6d82600083611116565b6001600160a01b03821660009081526020819052604090205481811015610de15760405162461bcd60e51b815260206004820152602260248201527f45524332303a206275726e20616d6f756e7420657863656564732062616c616e604482015261636560f01b60648201526084016103dc565b6001600160a01b0383166000908152602081905260408120838303905560028054849290610e1090849061163e565b90915550506040518281526000906001600160a01b038516907fddf252ad1be2c89b69c2b068fc378daa952ba7f163c4a11628f55a4df523b3ef9060200160405180910390a361092f565b60008060008411610ea75760405162461bcd60e51b815260206004820152601660248201527504552433230536e617073686f743a20696420697320360541b60448201526064016103dc565b610eaf611121565b841115610efe5760405162461bcd60e51b815260206004820152601d60248201527f4552433230536e617073686f743a206e6f6e6578697374656e7420696400000060448201526064016103dc565b6000610f0a8486611131565b8454909150811415610f23576000809250925050610f59565b6001846001018281548110610f4857634e487b7160e01b600052603260045260246000fd5b906000526020600020015492509250505b9250929050565b600980546001600160a01b038381166001600160a01b0319831681179093556040519116919082907f8be0079c531659141344cd1fd0a4f28419497f9722a3daafe3b4186f6b6457e090600090a35050565b6000610fc2600880546001019055565b6000610fcc611121565b90507f8030e83b04d87bef53480e26263266d6ca66863aa8506aca6f2559d18aa1cb6781604051610fff91815260200190565b60405180910390a1905090565b6001600160a01b03811660009081526005602052604090206104739061103183610511565b611210565b610564600661103160025490565b6000611099826040518060400160405280602081526020017f5361666545524332303a206c6f772d6c6576656c2063616c6c206661696c6564815250856001600160a01b031661125a9092919063ffffffff16565b80519091501561092f57808060200190518101906110b791906114fe565b61092f5760405162461bcd60e51b815260206004820152602a60248201527f5361666545524332303a204552433230206f7065726174696f6e20646964206e6044820152691bdd081cdd58d8d9595960b21b60648201526084016103dc565b61092f8383836108e2565b600061112c60085490565b905090565b8154600090611142575060006103ac565b82546000905b808210156111ac57600061115c8383611269565b90508486828154811061117f57634e487b7160e01b600052603260045260246000fd5b90600052602060002001541115611198578091506111a6565b6111a3816001611606565b92505b50611148565b6000821180156111ef575083856111c460018561163e565b815481106111e257634e487b7160e01b600052603260045260246000fd5b9060005260206000200154145b15611208576111ff60018361163e565b925050506103ac565b5090506103ac565b600061121a611121565b90508061122684611284565b101561092f578254600180820185556000858152602080822090930193909355938401805494850181558252902090910155565b606061067784846000856112d5565b6000611278600284841861161e565b61049590848416611606565b80546000906112955750600061052b565b815482906112a59060019061163e565b815481106112c357634e487b7160e01b600052603260045260246000fd5b9060005260206000200154905061052b565b6060824710156113365760405162461bcd60e51b815260206004820152602660248201527f416464726573733a20696e73756666696369656e742062616c616e636520666f6044820152651c8818d85b1b60d21b60648201526084016103dc565b6001600160a01b0385163b61138d5760405162461bcd60e51b815260206004820152601d60248201527f416464726573733a2063616c6c20746f206e6f6e2d636f6e747261637400000060448201526064016103dc565b600080866001600160a01b031685876040516113a99190611582565b60006040518083038185875af1925050503d80600081146113e6576040519150601f19603f3d011682016040523d82523d6000602084013e6113eb565b606091505b50915091506113fb828286611406565b979650505050505050565b60608315611415575081610495565b8251156114255782518084602001fd5b8160405162461bcd60e51b81526004016103dc919061159e565b600060208284031215611450578081fd5b8135610495816116d2565b6000806040838503121561146d578081fd5b8235611478816116d2565b91506020830135611488816116d2565b809150509250929050565b6000806000606084860312156114a7578081fd5b83356114b2816116d2565b925060208401356114c2816116d2565b929592945050506040919091013590565b600080604083850312156114e5578182fd5b82356114f0816116d2565b946020939093013593505050565b60006020828403121561150f578081fd5b81518015158114610495578182fd5b600080600060608486031215611532578283fd5b833561153d816116d2565b95602085013595506040909401359392505050565b600060208284031215611563578081fd5b5035919050565b60006020828403121561157b578081fd5b5051919050565b60008251611594818460208701611655565b9190910192915050565b60006020825282518060208401526115bd816040850160208701611655565b601f01601f19169190910160400192915050565b6020808252818101527f4f776e61626c653a2063616c6c6572206973206e6f7420746865206f776e6572604082015260600190565b60008219821115611619576116196116bc565b500190565b60008261163957634e487b7160e01b81526012600452602481fd5b500490565b600082821015611650576116506116bc565b500390565b60005b83811015611670578181015183820152602001611658565b83811115610b225750506000910152565b60028104600182168061169557607f821691505b602082108114156116b657634e487b7160e01b600052602260045260246000fd5b50919050565b634e487b7160e01b600052601160045260246000fd5b6001600160a01b038116811461047357600080fdfea26469706673582212205f14258c02616f2c4a0fae46834fc091549db9de46cdd72811b2ea7da8bbbdda64736f6c63430008020033",
  "linkReferences": {},
  "deployedLinkReferences": {}
}